{
  "contractName": "Group",
  "abi": [
    {
      "constant": false,
      "inputs": [
        {
          "name": "recipient",
          "type": "address"
        }
      ],
      "name": "transferPrimary",
      "outputs": [],
      "payable": false,
      "stateMutability": "nonpayable",
      "type": "function"
    },
    {
      "constant": true,
      "inputs": [],
      "name": "primary",
      "outputs": [
        {
          "name": "",
          "type": "address"
        }
      ],
      "payable": false,
      "stateMutability": "view",
      "type": "function"
    },
    {
      "inputs": [
        {
          "name": "_dai",
          "type": "address"
        },
        {
          "name": "_secretary",
          "type": "address"
        },
        {
          "name": "_volume",
          "type": "uint256"
        },
        {
          "name": "_payout",
          "type": "uint256"
        }
      ],
      "payable": false,
      "stateMutability": "nonpayable",
      "type": "constructor"
    },
    {
      "anonymous": false,
      "inputs": [
        {
          "indexed": false,
          "name": "recipient",
          "type": "address"
        }
      ],
      "name": "PrimaryTransferred",
      "type": "event"
    },
    {
      "anonymous": false,
      "inputs": [],
      "name": "Started",
      "type": "event"
    },
    {
      "anonymous": false,
      "inputs": [],
      "name": "Stopped",
      "type": "event"
    },
    {
      "anonymous": false,
      "inputs": [
        {
          "indexed": false,
          "name": "_period",
          "type": "uint256"
        }
      ],
      "name": "PeriodEnded",
      "type": "event"
    },
    {
      "anonymous": false,
      "inputs": [
        {
          "indexed": false,
          "name": "_value",
          "type": "uint256"
        }
      ],
      "name": "LiquidityWithdrawn",
      "type": "event"
    },
    {
      "anonymous": false,
      "inputs": [
        {
          "indexed": false,
          "name": "_debt",
          "type": "uint256"
        },
        {
          "indexed": false,
          "name": "_mbp",
          "type": "uint256"
        }
      ],
      "name": "Loaned",
      "type": "event"
    },
    {
      "anonymous": false,
      "inputs": [
        {
          "indexed": false,
          "name": "_policyholder",
          "type": "address"
        }
      ],
      "name": "PolicyholderAdded",
      "type": "event"
    },
    {
      "anonymous": false,
      "inputs": [
        {
          "indexed": false,
          "name": "_policyholder",
          "type": "address"
        }
      ],
      "name": "PolicyholderRemoved",
      "type": "event"
    },
    {
      "anonymous": false,
      "inputs": [
        {
          "indexed": false,
          "name": "_policyholder",
          "type": "address"
        },
        {
          "indexed": false,
          "name": "_oldSubgroup",
          "type": "uint256"
        }
      ],
      "name": "SubgroupChange",
      "type": "event"
    },
    {
      "anonymous": false,
      "inputs": [
        {
          "indexed": false,
          "name": "_policyholder",
          "type": "address"
        },
        {
          "indexed": false,
          "name": "_period",
          "type": "uint256"
        }
      ],
      "name": "Paid",
      "type": "event"
    },
    {
      "anonymous": false,
      "inputs": [
        {
          "indexed": false,
          "name": "_claimant",
          "type": "address"
        },
        {
          "indexed": false,
          "name": "_period",
          "type": "uint256"
        }
      ],
      "name": "ClaimSubmitted",
      "type": "event"
    },
    {
      "anonymous": false,
      "inputs": [
        {
          "indexed": false,
          "name": "_defector",
          "type": "address"
        },
        {
          "indexed": false,
          "name": "_period",
          "type": "uint256"
        }
      ],
      "name": "Defected",
      "type": "event"
    },
    {
      "anonymous": false,
      "inputs": [
        {
          "indexed": false,
          "name": "_claimant",
          "type": "address"
        },
        {
          "indexed": false,
          "name": "_period",
          "type": "uint256"
        }
      ],
      "name": "ClaimStripped",
      "type": "event"
    },
    {
      "anonymous": false,
      "inputs": [
        {
          "indexed": false,
          "name": "_claimant",
          "type": "address"
        },
        {
          "indexed": false,
          "name": "_payout",
          "type": "uint256"
        }
      ],
      "name": "ClaimPaid",
      "type": "event"
    },
    {
      "constant": false,
      "inputs": [],
      "name": "startGroup",
      "outputs": [],
      "payable": false,
      "stateMutability": "nonpayable",
      "type": "function"
    },
    {
      "constant": false,
      "inputs": [],
      "name": "stopGroup",
      "outputs": [],
      "payable": false,
      "stateMutability": "nonpayable",
      "type": "function"
    },
    {
      "constant": false,
      "inputs": [
        {
          "name": "_period",
          "type": "uint256"
        }
      ],
      "name": "endPeriod",
      "outputs": [],
      "payable": false,
      "stateMutability": "nonpayable",
      "type": "function"
    },
    {
      "constant": false,
      "inputs": [],
      "name": "withdraw",
      "outputs": [],
      "payable": false,
      "stateMutability": "nonpayable",
      "type": "function"
    },
    {
      "constant": false,
      "inputs": [
        {
          "name": "_debt",
          "type": "uint256"
        },
        {
          "name": "_months",
          "type": "uint256"
        }
      ],
      "name": "makeLoan",
      "outputs": [],
      "payable": false,
      "stateMutability": "nonpayable",
      "type": "function"
    },
    {
      "constant": false,
      "inputs": [
        {
          "name": "_to",
          "type": "address"
        },
        {
          "name": "_subgroup",
          "type": "uint256"
        }
      ],
      "name": "addPolicyholder",
      "outputs": [],
      "payable": false,
      "stateMutability": "nonpayable",
      "type": "function"
    },
    {
      "constant": false,
      "inputs": [
        {
          "name": "_from",
          "type": "address"
        }
      ],
      "name": "removePolicyholder",
      "outputs": [],
      "payable": false,
      "stateMutability": "nonpayable",
      "type": "function"
    },
    {
      "constant": false,
      "inputs": [
        {
          "name": "_policyholder",
          "type": "address"
        },
        {
          "name": "_subgroup",
          "type": "uint256"
        }
      ],
      "name": "changeSubgroup",
      "outputs": [],
      "payable": false,
      "stateMutability": "nonpayable",
      "type": "function"
    },
    {
      "constant": false,
      "inputs": [
        {
          "name": "_period",
          "type": "uint256"
        }
      ],
      "name": "makePayment",
      "outputs": [],
      "payable": false,
      "stateMutability": "nonpayable",
      "type": "function"
    },
    {
      "constant": false,
      "inputs": [
        {
          "name": "_period",
          "type": "uint256"
        },
        {
          "name": "_claimant",
          "type": "address"
        }
      ],
      "name": "submitClaim",
      "outputs": [],
      "payable": false,
      "stateMutability": "nonpayable",
      "type": "function"
    },
    {
      "constant": false,
      "inputs": [
        {
          "name": "_period",
          "type": "uint256"
        }
      ],
      "name": "defect",
      "outputs": [],
      "payable": false,
      "stateMutability": "nonpayable",
      "type": "function"
    },
    {
      "constant": true,
      "inputs": [],
      "name": "isLobby",
      "outputs": [
        {
          "name": "",
          "type": "bool"
        }
      ],
      "payable": false,
      "stateMutability": "view",
      "type": "function"
    },
    {
      "constant": true,
      "inputs": [],
      "name": "doNext",
      "outputs": [
        {
          "name": "",
          "type": "bool"
        }
      ],
      "payable": false,
      "stateMutability": "view",
      "type": "function"
    },
    {
      "constant": true,
      "inputs": [],
      "name": "getSecretary",
      "outputs": [
        {
          "name": "",
          "type": "address"
        }
      ],
      "payable": false,
      "stateMutability": "view",
      "type": "function"
    },
    {
      "constant": true,
      "inputs": [],
      "name": "getLiquidity",
      "outputs": [
        {
          "name": "",
          "type": "address"
        }
      ],
      "payable": false,
      "stateMutability": "view",
      "type": "function"
    },
    {
      "constant": true,
      "inputs": [],
      "name": "withdrawable",
      "outputs": [
        {
          "name": "",
          "type": "bool"
        }
      ],
      "payable": false,
      "stateMutability": "view",
      "type": "function"
    },
    {
      "constant": true,
      "inputs": [],
      "name": "activePeriod",
      "outputs": [
        {
          "name": "",
          "type": "uint256"
        }
      ],
      "payable": false,
      "stateMutability": "view",
      "type": "function"
    },
    {
      "constant": true,
      "inputs": [
        {
          "name": "_period",
          "type": "uint256"
        }
      ],
      "name": "getSubperiod",
      "outputs": [
        {
          "name": "currentSubperiod",
          "type": "uint256"
        }
      ],
      "payable": false,
      "stateMutability": "view",
      "type": "function"
    },
    {
      "constant": true,
      "inputs": [],
      "name": "loaned",
      "outputs": [
        {
          "name": "",
          "type": "bool"
        }
      ],
      "payable": false,
      "stateMutability": "view",
      "type": "function"
    },
    {
      "constant": true,
      "inputs": [
        {
          "name": "_query",
          "type": "address"
        }
      ],
      "name": "calculatePayment",
      "outputs": [
        {
          "name": "",
          "type": "uint256"
        }
      ],
      "payable": false,
      "stateMutability": "view",
      "type": "function"
    },
    {
      "constant": true,
      "inputs": [],
      "name": "calculatePremium",
      "outputs": [
        {
          "name": "",
          "type": "uint256"
        }
      ],
      "payable": false,
      "stateMutability": "view",
      "type": "function"
    },
    {
      "constant": true,
      "inputs": [
        {
          "name": "_size",
          "type": "uint256"
        }
      ],
      "name": "calculateOverpayment",
      "outputs": [
        {
          "name": "",
          "type": "uint256"
        }
      ],
      "payable": false,
      "stateMutability": "view",
      "type": "function"
    },
    {
      "constant": true,
      "inputs": [],
      "name": "calculateLoanPayment",
      "outputs": [
        {
          "name": "",
          "type": "uint256"
        }
      ],
      "payable": false,
      "stateMutability": "view",
      "type": "function"
    },
    {
      "constant": true,
      "inputs": [
        {
          "name": "_period",
          "type": "uint256"
        }
      ],
      "name": "calculateExpectedPayout",
      "outputs": [
        {
          "name": "",
          "type": "uint256"
        }
      ],
      "payable": false,
      "stateMutability": "view",
      "type": "function"
    },
    {
      "constant": true,
      "inputs": [
        {
          "name": "_months",
          "type": "uint256"
        }
      ],
      "name": "calculateEndowment",
      "outputs": [
        {
          "name": "_endowment",
          "type": "uint256"
        }
      ],
      "payable": false,
      "stateMutability": "view",
      "type": "function"
    },
    {
      "constant": true,
      "inputs": [],
      "name": "viewLoan",
      "outputs": [
        {
          "name": "_debt",
          "type": "uint256"
        },
        {
          "name": "_months",
          "type": "uint256"
        }
      ],
      "payable": false,
      "stateMutability": "view",
      "type": "function"
    },
    {
      "constant": true,
      "inputs": [
        {
          "name": "_period",
          "type": "uint256"
        }
      ],
      "name": "viewPool",
      "outputs": [
        {
          "name": "_pool",
          "type": "uint256"
        }
      ],
      "payable": false,
      "stateMutability": "view",
      "type": "function"
    },
    {
      "constant": true,
      "inputs": [
        {
          "name": "_query",
          "type": "address"
        }
      ],
      "name": "isPolicyholder",
      "outputs": [
        {
          "name": "_subgroup",
          "type": "uint256"
        }
      ],
      "payable": false,
      "stateMutability": "view",
      "type": "function"
    },
    {
      "constant": true,
      "inputs": [],
      "name": "getSize",
      "outputs": [
        {
          "name": "_size",
          "type": "uint256"
        }
      ],
      "payable": false,
      "stateMutability": "view",
      "type": "function"
    },
    {
      "constant": true,
      "inputs": [
        {
          "name": "_index",
          "type": "uint256"
        }
      ],
      "name": "getSubgroupSize",
      "outputs": [
        {
          "name": "_size",
          "type": "uint256"
        }
      ],
      "payable": false,
      "stateMutability": "view",
      "type": "function"
    },
    {
      "constant": true,
      "inputs": [
        {
          "name": "_period",
          "type": "uint256"
        },
        {
          "name": "_query",
          "type": "address"
        }
      ],
      "name": "isParticipant",
      "outputs": [
        {
          "name": "_index",
          "type": "uint256"
        }
      ],
      "payable": false,
      "stateMutability": "view",
      "type": "function"
    },
    {
      "constant": true,
      "inputs": [
        {
          "name": "_period",
          "type": "uint256"
        }
      ],
      "name": "activeIndex",
      "outputs": [
        {
          "name": "_index",
          "type": "uint256"
        }
      ],
      "payable": false,
      "stateMutability": "view",
      "type": "function"
    },
    {
      "constant": true,
      "inputs": [
        {
          "name": "_period",
          "type": "uint256"
        },
        {
          "name": "_index",
          "type": "uint256"
        }
      ],
      "name": "indexToParticipant",
      "outputs": [
        {
          "name": "_participant",
          "type": "address"
        }
      ],
      "payable": false,
      "stateMutability": "view",
      "type": "function"
    },
    {
      "constant": true,
      "inputs": [
        {
          "name": "_period",
          "type": "uint256"
        },
        {
          "name": "_query",
          "type": "address"
        }
      ],
      "name": "isClaimant",
      "outputs": [
        {
          "name": "_index",
          "type": "uint256"
        }
      ],
      "payable": false,
      "stateMutability": "view",
      "type": "function"
    },
    {
      "constant": true,
      "inputs": [
        {
          "name": "_period",
          "type": "uint256"
        }
      ],
      "name": "claimIndex",
      "outputs": [
        {
          "name": "_index",
          "type": "uint256"
        }
      ],
      "payable": false,
      "stateMutability": "view",
      "type": "function"
    },
    {
      "constant": true,
      "inputs": [
        {
          "name": "_period",
          "type": "uint256"
        },
        {
          "name": "_index",
          "type": "uint256"
        }
      ],
      "name": "indexToClaimant",
      "outputs": [
        {
          "name": "_claimant",
          "type": "address"
        }
      ],
      "payable": false,
      "stateMutability": "view",
      "type": "function"
    },
    {
      "constant": true,
      "inputs": [
        {
          "name": "_period",
          "type": "uint256"
        },
        {
          "name": "_subgroup",
          "type": "uint256"
        }
      ],
      "name": "getDefectionCount",
      "outputs": [
        {
          "name": "_count",
          "type": "uint256"
        }
      ],
      "payable": false,
      "stateMutability": "view",
      "type": "function"
    }
  ],
  "bytecode": "0x61010060405260006080908152600360a052602160c052602460e0526200002b9060159060046200021a565b503480156200003957600080fd5b5060405160808062003767833981018060405260808110156200005b57600080fd5b508051602080830151604080850151606090950151601b80546001600160a01b03191633179081905582516001600160a01b03919091168152915194959294929390927f4101e71e974f68df5e9730cc223280b41654676bbb052cdcc735c3337e64d2d99281900390910190a1600c8054610100600160a81b0319166101006001600160a01b038616021790556000601181905562000107838362000199602090811b6200247417901c565b90508084866040516200011a9062000262565b9283526001600160a01b039182166020840152166040808301919091525190819003606001906000f08015801562000156573d6000803e3d6000fd5b50601a80546001600160a01b039283166001600160a01b0319918216179091556019805497909216961695909517909455600d91909155600e5550620002909050565b600082620001aa5750600062000214565b82820282848281620001b857fe5b041462000211576040517f08c379a0000000000000000000000000000000000000000000000000000000008152600401808060200182810382526021815260200180620037466021913960400191505060405180910390fd5b90505b92915050565b826004810192821562000250579160200282015b8281111562000250578251829060ff169055916020019190600101906200022e565b506200025e92915062000270565b5090565b61056e80620031d883390190565b6200028d91905b808211156200025e576000815560010162000277565b90565b612f3880620002a06000396000f3fe608060405234801561001057600080fd5b506004361061023d5760003560e01c8063758d9b891161013b578063c6dbdf61116100b8578063f6a718311161007c578063f6a71831146105bc578063f703513d146105c4578063f97c689a146105e7578063f9b790c114610613578063fd373a02146106395761023d565b8063c6dbdf6114610564578063d0b7363f1461056c578063de8fa43114610589578063e844ea6a14610591578063f1833001146105995761023d565b80639b424009116100ff5780639b424009146104a9578063a0d8e199146104c6578063a3ba6a74146104f2578063b13e0ca514610515578063b95e7ec8146105385761023d565b8063758d9b89146104155780638a539972146104415780638bec9a7e1461045e578063981f7055146104665780639a3d3559146104835761023d565b806327e13731116101c9578063501883011161018d57806350188301146103995780635114cb52146103a157806352f7ca26146103be5780635c804476146103db5780635d7045d5146103f85761023d565b806327e137311461034357806328558ea41461036057806330f68ebb146103815780633a709d22146103895780633ccfd60b146103915761023d565b806312e152581161021057806312e15258146102c257806316020ea0146102cc57806317a50425146102f85780632348238c1461030057806323530858146103265761023d565b806308ad7583146102425780630910a5101461025e5780630a441f7b146102825780630ee85b831461029c575b600080fd5b61024a610656565b604080519115158252519081900360200190f35b61026661065f565b604080516001600160a01b039092168252519081900360200190f35b61028a61066e565b60408051918252519081900360200190f35b61028a600480360360208110156102b257600080fd5b50356001600160a01b03166106c6565b6102ca61073a565b005b61028a600480360360408110156102e257600080fd5b50803590602001356001600160a01b031661088e565b61028a6108b8565b6102ca6004803603602081101561031657600080fd5b50356001600160a01b03166108f9565b61028a6004803603602081101561033c57600080fd5b50356109e7565b61028a6004803603602081101561035957600080fd5b5035610a1c565b610368610a71565b6040805192835260208301919091528051918290030190f35b61024a610a7b565b61028a610a84565b6102ca610ad0565b61024a610c4b565b6102ca600480360360208110156103b757600080fd5b5035610c96565b61028a600480360360208110156103d457600080fd5b503561108f565b61028a600480360360208110156103f157600080fd5b5035611141565b61028a6004803603602081101561040e57600080fd5b5035611153565b61028a6004803603604081101561042b57600080fd5b50803590602001356001600160a01b0316611165565b6102ca6004803603602081101561045757600080fd5b503561118d565b61024a61146e565b61028a6004803603602081101561047c57600080fd5b50356114c5565b61028a6004803603602081101561049957600080fd5b50356001600160a01b03166115af565b61028a600480360360208110156104bf57600080fd5b50356115ca565b6102ca600480360360408110156104dc57600080fd5b50803590602001356001600160a01b03166115dc565b6102666004803603604081101561050857600080fd5b508035906020013561178e565b61028a6004803603604081101561052b57600080fd5b50803590602001356117b4565b6102ca6004803603604081101561054e57600080fd5b506001600160a01b0381351690602001356117d1565b610266611a4a565b61028a6004803603602081101561058257600080fd5b5035611a59565b61028a611a6b565b6102ca611a71565b6102ca600480360360408110156105af57600080fd5b5080359060200135611bec565b610266611d81565b610266600480360360408110156105da57600080fd5b5080359060200135611d95565b6102ca600480360360408110156105fd57600080fd5b506001600160a01b038135169060200135611dbb565b6102ca6004803603602081101561062957600080fd5b50356001600160a01b0316612065565b6102ca6004803603602081101561064f57600080fd5b5035612297565b600f5415155b90565b601a546001600160a01b031690565b60115460009081526005602090815260408083206002845290915281205442811180159061069b57508015155b156106bc576011546106b490600163ffffffff6123b716565b91505061065c565b505060115461065c565b6001600160a01b0381166000908152602081815260408083205483526001909152812054816106f3610a84565b90506000610700836109e7565b9050600061070c6108b8565b905061072e81610722858563ffffffff6123b716565b9063ffffffff6123b716565b9450505050505b919050565b600c5461010090046001600160a01b0316331461078b57604051600160e51b62461bcd028152600401808060200182810382526026815260200180612e176026913960400191505060405180910390fd5b6011546000908152600560209081526040808320838052909152812054906107b9428363ffffffff61241416565b90506203f480811180156107d0575062278d008111155b61080e57604051600160e51b62461bcd02815260040180806020018281038252602e815260200180612eb8602e913960400191505060405180910390fd5b600c805460ff1916905560115460009061082f90600163ffffffff6123b716565b905060005b600481101561085f576000828152600560209081526040808320848452909152812055600101610834565b506040517f7acc84e34091ae817647a4c49116f5cc07f319078ba80f8f5fde37ea7e25cbd690600090a1505050565b6000828152600b602090815260408083206001600160a01b03851684529091529020545b92915050565b60006108f46108e56013546108d960016010546123b790919063ffffffff16565b9063ffffffff61247416565b600f549063ffffffff6124d016565b905090565b601b546001600160a01b0316331461094557604051600160e51b62461bcd02815260040180806020018281038252602c815260200180612da4602c913960400191505060405180910390fd5b6001600160a01b03811661098d57604051600160e51b62461bcd02815260040180806020018281038252602a815260200180612d55602a913960400191505060405180910390fd5b601b80546001600160a01b0319166001600160a01b03838116919091179182905560408051929091168252517f4101e71e974f68df5e9730cc223280b41654676bbb052cdcc735c3337e64d2d9916020908290030190a150565b6000806109f2610a84565b9050610a15610a0884600163ffffffff61241416565b829063ffffffff6124d016565b9392505050565b600081815260046020908152604080832054600390925282205480610a4657600092505050610735565b6000610a58838363ffffffff6124d016565b9050600e54811115610a695750600e545b949350505050565b600f546010549091565b600c5460ff1690565b600080610a9e600d54600e5461247490919063ffffffff16565b905060326013541015610abc576106b481603263ffffffff6124d016565b6013546106b490829063ffffffff6124d016565b600c5461010090046001600160a01b03163314610b2157604051600160e51b62461bcd028152600401808060200182810382526026815260200180612e176026913960400191505060405180910390fd5b610b2961146e565b610b9c5760125442036000610b4582601e63ffffffff61253d16565b905060125460001480610b5b57506207e9008111155b610b9957604051600160e51b62461bcd028152600401808060200182810382526024815260200180612e3d6024913960400191505060405180910390fd5b50505b601a5460408051600160e01b633ccfd60b02815290516000926001600160a01b031691633ccfd60b91600480830192602092919082900301818787803b158015610be557600080fd5b505af1158015610bf9573d6000803e3d6000fd5b505050506040513d6020811015610c0f57600080fd5b50516040805182815290519192507f73ce532f480864bd2fccd1bcdbb4c8151f02cd9450c4f3e5b834ef74503abdb2919081900360200190a150565b601254600090420381610c6582601e63ffffffff61253d16565b905060125460001480610c7b57506207e9008111155b15610c8b5760019250505061065c565b60009250505061065c565b33600090815260208190526040902054610ce457604051600160e51b62461bcd02815260040180806020018281038252602c815260200180612c44602c913960400191505060405180910390fd5b80600180610cf18361108f565b14610d3057604051600160e51b62461bcd028152600401808060200182810382526024815260200180612e616024913960400191505060405180910390fd5b600083815260096020908152604080832033845290915290205415610d8957604051600160e51b62461bcd028152600401808060200182810382526033815260200180612e856033913960400191505060405180910390fd5b6000610d94336106c6565b60195460408051600160e11b636eb1769f028152336004820152306024820152905192935083926001600160a01b039092169163dd62ed3e91604480820192602092909190829003018186803b158015610ded57600080fd5b505afa158015610e01573d6000803e3d6000fd5b505050506040513d6020811015610e1757600080fd5b50511015610e5957604051600160e51b62461bcd028152600401808060200182810382526027815260200180612ee66027913960400191505060405180910390fd5b6000610e636108b8565b90506000610e77838363ffffffff61241416565b60195460408051600160e01b6323b872dd0281523360048201523060248201526044810184905290519293506001600160a01b03909116916323b872dd916064808201926020929091908290030181600087803b158015610ed757600080fd5b505af1158015610eeb573d6000803e3d6000fd5b505050506040513d6020811015610f0157600080fd5b50506019546001600160a01b03166323b872dd33610f1d611a4a565b856040518463ffffffff1660e01b815260040180846001600160a01b03166001600160a01b03168152602001836001600160a01b03166001600160a01b031681526020018281526020019350505050602060405180830381600087803b158015610f8657600080fd5b505af1158015610f9a573d6000803e3d6000fd5b505050506040513d6020811015610fb057600080fd5b5050600086815260026020526040902054610fd290600163ffffffff6123b716565b600087815260026020908152604080832084905560088252808320848452825280832080546001600160a01b031916339081179091558a845260098352818420818552835292819020849055805192835290820189905280517f737c69225d647e5994eab1a6c301bf6d9232beb2759ae1e27a8966b4732bc4899281900390910190a1600087815260046020526040902054611074908363ffffffff6123b716565b60009788526004602052604090972096909655505050505050565b60008181526005602090815260408083208380529091528120548015806110b557504281115b156110c55760005b915050610735565b60005b6110da6004600163ffffffff61241416565b811015611139576000848152600560205260408120429161110284600163ffffffff6123b716565b81526020019081526020016000205411156111315761112881600163ffffffff6123b716565b92505050610735565b6001016110c8565b5060046110bd565b60009081526003602052604090205490565b60009081526001602052604090205490565b60009182526009602090815260408084206001600160a01b0393909316845291905290205490565b336000908152602081905260409020546111db57604051600160e51b62461bcd02815260040180806020018281038252602c815260200180612c44602c913960400191505060405180910390fd5b806003806111e88361108f565b1461122757604051600160e51b62461bcd028152600401808060200182810382526024815260200180612e616024913960400191505060405180910390fd5b60008381526009602090815260408083203384529091529020548061128057604051600160e51b62461bcd02815260040180806020018281038252602b815260200180612cab602b913960400191505060405180910390fd5b6000848152600b6020908152604080832033845290915290205480156112aa576112aa85826125a5565b33600090815260208190526040812054906112c482611153565b60008881526006602090815260408083208684529091529020549091506112f290600163ffffffff6123b716565b6000888152600660209081526040808320868452909152902081905560021161133a5760008781526007602090815260408083208584529091529020805460ff191660011790555b6000611344610a84565b90506000611351836109e7565b90506000611365838363ffffffff6123b716565b60195460408051600160e01b63a9059cbb0281523360048201526024810184905290519293506001600160a01b039091169163a9059cbb916044808201926020929091908290030181600087803b1580156113bf57600080fd5b505af11580156113d3573d6000803e3d6000fd5b505050506040513d60208110156113e957600080fd5b506113f690508a88612672565b60408051338152602081018c905281517fbe14feba3e0a5568c6aef4ffe53055e7eb3ded069515fa8124c21286e42b6b5f929181900390910190a160008a815260046020526040902054611450908263ffffffff61241416565b60009a8b5260046020526040909a2099909955505050505050505050565b600c5460009060ff166114bf5760115460009061149290600163ffffffff6123b716565b60008181526005602090815260408083208380529091529020549091506114bd57600191505061065c565b505b50600090565b6000600282101561150a57604051600160e51b62461bcd028152600401808060200182810382526037815260200180612cd66037913960400191505060405180910390fd5b601354603281101561151a575060325b60056000611526610a84565b90506000611533836109e7565b90506000611547838663ffffffff61247416565b9050600061155b838763ffffffff61247416565b9050600061156f838363ffffffff6123b716565b90506115a26115956115888b600163ffffffff61241416565b839063ffffffff6124d016565b829063ffffffff6123b716565b9998505050505050505050565b6001600160a01b031660009081526020819052604090205490565b60009081526002602052604090205490565b600c5461010090046001600160a01b0316331461162d57604051600160e51b62461bcd028152600401808060200182810382526026815260200180612e176026913960400191505060405180910390fd5b8160028061163a8361108f565b1461167957604051600160e51b62461bcd028152600401808060200182810382526024815260200180612e616024913960400191505060405180910390fd5b6000848152600b602090815260408083206001600160a01b0387168452909152902054156116db57604051600160e51b62461bcd028152600401808060200182810382526027815260200180612c1d6027913960400191505060405180910390fd5b6000848152600360205260409020546116fb90600163ffffffff6123b716565b6000858152600360209081526040808320849055600a8252808320848452825280832080546001600160a01b0319166001600160a01b038916908117909155888452600b8352818420818552835292819020849055805192835290820187905280517fedb73a28656fc54b5b54d180d469da306262375b8fab1d30e7bfdfe6fa4d71a89281900390910190a15050505050565b60009182526008602090815260408084209284529190529020546001600160a01b031690565b600091825260066020908152604080842092845291905290205490565b600c5461010090046001600160a01b0316331461182257604051600160e51b62461bcd028152600401808060200182810382526026815260200180612e176026913960400191505060405180910390fd5b600c5460ff161561186757604051600160e51b62461bcd028152600401808060200182810382526027815260200180612d2e6027913960400191505060405180910390fd5b60115460009061187e90600163ffffffff6123b716565b6000818152600560209081526040808320838052909152902054909150156118da57604051600160e51b62461bcd02815260040180806020018281038252603b815260200180612c70603b913960400191505060405180910390fd5b6000828152600160205260409020546007116119375760408051600160e51b62461bcd0281526020600482015260116024820152600160781b7053756267726f75702069732066756c6c2102604482015290519081900360640190fd5b6001600160a01b0383166000908152602081815260408083205483526001918290529091205461196c9163ffffffff61241416565b6001600160a01b03841660009081526020818152604080832054835260019182905280832093909355848252919020546119ab9163ffffffff6123b716565b6000838152600160209081526040808320939093556001600160a01b038616808352828252918390208054908690558351928352908201819052825190927f3cf23ca995fdd06a40f9c394eedd3a27239c256b5383ab9bf8b7a6a4ae17f6ec928290030190a1601454611a2590600163ffffffff6123b716565b831415611a4457601454611a4090600163ffffffff6123b716565b6014555b50505050565b601b546001600160a01b031690565b60009081526004602052604090205490565b60135490565b600c5461010090046001600160a01b03163314611ac257604051600160e51b62461bcd028152600401808060200182810382526026815260200180612e176026913960400191505060405180910390fd5b600c5460ff1615611b0757604051600160e51b62461bcd028152600401808060200182810382526027815260200180612d2e6027913960400191505060405180910390fd5b601154600090611b1e90600163ffffffff6123b716565b600081815260056020908152604080832083805290915290205490915015611b7a57604051600160e51b62461bcd02815260040180806020018281038252603b815260200180612c70603b913960400191505060405180910390fd5b601154611b8e90600163ffffffff6123b716565b601155611ba4426203f48063ffffffff61241416565b601255601154611bb39061273f565b600c805460ff191660011790556040517fd8cea0ecd56872ff072e771658b5682ffe4de16d752947f79597d600ea56f7a990600090a150565b601b546001600160a01b03163314611c3857604051600160e51b62461bcd02815260040180806020018281038252602c815260200180612da4602c913960400191505060405180910390fd5b600c5460ff1615611c7d57604051600160e51b62461bcd028152600401808060200182810382526027815260200180612d2e6027913960400191505060405180910390fd5b601154600090611c9490600163ffffffff6123b716565b600081815260056020908152604080832083805290915290205490915015611cf057604051600160e51b62461bcd02815260040180806020018281038252603b815260200180612c70603b913960400191505060405180910390fd5b611cf8610656565b15611d3757604051600160e51b62461bcd028152600401808060200182810382526025815260200180612d7f6025913960400191505060405180910390fd5b600f8390556010829055604080518481526020810184905281517f57529235d42dc1daa6e5fa9e9182c6e3a6eed1db72665e80db2167b8e10504ea929181900390910190a1505050565b600c5461010090046001600160a01b031690565b6000918252600a602090815260408084209284529190529020546001600160a01b031690565b600c5461010090046001600160a01b03163314611e0c57604051600160e51b62461bcd028152600401808060200182810382526026815260200180612e176026913960400191505060405180910390fd5b600c5460ff1615611e5157604051600160e51b62461bcd028152600401808060200182810382526027815260200180612d2e6027913960400191505060405180910390fd5b601154600090611e6890600163ffffffff6123b716565b600081815260056020908152604080832083805290915290205490915015611ec457604051600160e51b62461bcd02815260040180806020018281038252603b815260200180612c70603b913960400191505060405180910390fd5b6001600160a01b03831660009081526020819052604090205415611f325760408051600160e51b62461bcd02815260206004820152601c60248201527f506f6c696379686f6c64657220616c7265616479206578697374732100000000604482015290519081900360640190fd5b600082815260016020526040902054600711611f8f5760408051600160e51b62461bcd0281526020600482015260116024820152600160781b7053756267726f75702069732066756c6c2102604482015290519081900360640190fd5b6001600160a01b03831660009081526020818152604080832085905584835260019182905290912054611fc79163ffffffff6123b716565b600083815260016020819052604090912091909155601354611fee9163ffffffff6123b716565b601355604080516001600160a01b038516815290517ffd4bbf7aab6797f9bba4fe69d15ee6bbbb91ae8aea5fd72543e6397ccf4857e19181900360200190a160145461204190600163ffffffff6123b716565b8214156120605760145461205c90600163ffffffff6123b716565b6014555b505050565b600c5461010090046001600160a01b031633146120b657604051600160e51b62461bcd028152600401808060200182810382526026815260200180612e176026913960400191505060405180910390fd5b600c5460ff16156120fb57604051600160e51b62461bcd028152600401808060200182810382526027815260200180612d2e6027913960400191505060405180910390fd5b60115460009061211290600163ffffffff6123b716565b60008181526005602090815260408083208380529091529020549091501561216e57604051600160e51b62461bcd02815260040180806020018281038252603b815260200180612c70603b913960400191505060405180910390fd5b6001600160a01b0382166000908152602081905260409020546121db5760408051600160e51b62461bcd02815260206004820152601c60248201527f506f6c696379686f6c64657220646f6573206e6f742065786973742100000000604482015290519081900360640190fd5b6001600160a01b038216600090815260208181526040808320548352600191829052909120546122109163ffffffff61241416565b6001600160a01b038316600081815260208181526040808320805484526001808452918420959095559282528190529091556013546122549163ffffffff61241416565b601355604080516001600160a01b038416815290517f958bba7b27d02e0f577e23ded3d387f0925cc5feb0e6abb66472219429e90d8c9181900360200190a15050565b600c5461010090046001600160a01b03163314806122cd57506122b8611a4a565b6001600160a01b0316336001600160a01b0316145b61230b57604051600160e51b62461bcd028152600401808060200182810382526047815260200180612dd06047913960600191505060405180910390fd5b61231481612898565b61231d81612978565b61232681612abb565b600c5460ff16156123585760115461234590600163ffffffff6123b716565b60118190556123539061273f565b61235e565b60006012555b6040805182815290517f95357e1b81128b2e56387f7f29ae51b03ce299a9784c0714c6401291f27e51749181900360200190a1600260105411156123b4576010546123b090600163ffffffff61241416565b6010555b50565b600082820183811015610a155760408051600160e51b62461bcd02815260206004820152601b60248201527f536166654d6174683a206164646974696f6e206f766572666c6f770000000000604482015290519081900360640190fd5b60008282111561246e5760408051600160e51b62461bcd02815260206004820152601e60248201527f536166654d6174683a207375627472616374696f6e206f766572666c6f770000604482015290519081900360640190fd5b50900390565b600082612483575060006108b2565b8282028284828161249057fe5b0414610a1557604051600160e51b62461bcd028152600401808060200182810382526021815260200180612d0d6021913960400191505060405180910390fd5b60008082116125295760408051600160e51b62461bcd02815260206004820152601a60248201527f536166654d6174683a206469766973696f6e206279207a65726f000000000000604482015290519081900360640190fd5b600082848161253457fe5b04949350505050565b6000816125945760408051600160e51b62461bcd02815260206004820152601860248201527f536166654d6174683a206d6f64756c6f206279207a65726f0000000000000000604482015290519081900360640190fd5b81838161259d57fe5b069392505050565b60008281526003602081815260408084208054600a845282862087875284528286208054828852848820546001600160a01b039081166001600160a01b0319831681179093558a8952600b8752858920838a5287529488208990559689905294909352549193169190612619906001612414565b600086815260036020908152604080832093909355600a815282822095825294855281812080546001600160a01b0319169055958652600b84528086206001600160a01b03939093168652919092528320929092555050565b600082815260026020818152604080842080546008845282862087875284528286208054828852848820546001600160a01b039081166001600160a01b0319831681179093558a895260098752858920838a52875294882089905596899052949093525491931691906126e6906001612414565b6000868152600260209081526040808320939093556008815282822095825294855281812080546001600160a01b0319169055958652600984528086206001600160a01b03939093168652919092528320929092555050565b60008181526005602090815260408083208380529091529020546127e257600081815260056020908152604080832083805290915281204290819055905b60048110156127df5760006127aa620151806015846004811061279c57fe5b01549063ffffffff61247416565b90506127bc838263ffffffff6123b716565b60008581526005602090815260408083208684529091529020555060010161277d565b50505b600081815260056020908152604080832083805290915281205461280f9062278d0063ffffffff6123b716565b9050600061282483600163ffffffff6123b716565b600081815260056020908152604080832083805290915281208490559091505b6004811015611a44576000612863620151806015846004811061279c57fe5b9050612875848263ffffffff6123b716565b600084815260056020908152604080832086845290915290205550600101612844565b60008181526003602052604090205460015b818111612060576000838152600a602090815260408083208484528252808320546001600160a01b0316808452838352818420548785526007845282852081865290935292205460ff161561296e5761290385846125a5565b61291483600163ffffffff61241416565b5061292684600163ffffffff61241416565b604080516001600160a01b03851681526020810188905281519296507fcee2c9f04c414aaad4b76148ff459230a81b444459806296bf03bb91435ead48929081900390910190a15b50506001016128aa565b6000818152600360205260408120549061299183610a1c565b905060015b828111611a44576000848152600a602090815260408083208484528252808320546019548251600160e01b63a9059cbb0281526001600160a01b03928316600482018190526024820189905293519395919092169363a9059cbb93604480850194929391928390030190829087803b158015612a1157600080fd5b505af1158015612a25573d6000803e3d6000fd5b505050506040513d6020811015612a3b57600080fd5b5050600085815260046020526040902054612a5c908463ffffffff61241416565b6000868152600460209081526040918290209290925580516001600160a01b038416815291820187905280517ff42cf8c29487b42c009006cba2a2a0ca0388229f3183e6e957e0a0b163585cb49281900390910190a150600101612996565b6000818152600460205260409020548015612c185760008281526002602052604081205490612af0838363ffffffff6124d016565b905060015b828111612c145760008581526008602090815260408083208484528252808320546019548251600160e01b63a9059cbb0281526001600160a01b03928316600482018190526024820189905293519395919092169363a9059cbb93604480850194929391928390030190829087803b158015612b7057600080fd5b505af1158015612b84573d6000803e3d6000fd5b505050506040513d6020811015612b9a57600080fd5b5050600086815260046020526040902054612bbb908463ffffffff61241416565b60008781526004602090815260408083209390935560088152828220858352815282822080546001600160a01b0319169055888252600981528282206001600160a01b0394909416825292909252812055600101612af5565b5050505b505056fe436c61696d616e7420616c72656164792068617320616e206578697374696e6720436c61696d2141646472657373206973206e6f74206120506f6c696379686f6c64657220696e20746869732047726f75702147726f7570206d7573742066696e697368207468652063757272656e7420706572696f64206265666f726520656e746572696e67204c6f626279214f6e6c79207072656d69756d2d7061696420706f6c696379686f6c64657273206d61792064656665637421456e646f776d656e74206d757374207573652074776f206f72206d6f7265206d6f6e74687320746f20706179206261636b204c6f616e21536166654d6174683a206d756c7469706c69636174696f6e206f766572666c6f7747726f7570206973206c6f636b656420696e2074686520277374617274656427207374617465215365636f6e646172793a206e6577207072696d61727920697320746865207a65726f206164647265737343616e6e6f7420686176652074776f206c6f616e732073696d756c74616e656f75736c79215365636f6e646172793a2063616c6c6572206973206e6f7420746865207072696d617279206163636f756e744f6e6c79205072696d617279202841646d696e206f6620536572766963652e736f6c29206f722074686520536563726574617279206d617920656e642074686520506572696f6441646472657373206973206e6f7420746869732047726f7570277320536563726574617279214c6971756964697479205374616b652069732063757272656e746c79204c6f636b656421496e636f727265637420737562706572696f6420666f72207468697320616374696f6e21416464726573732068617320616c72656164792070616964207072656d69756d206173206120506f6c696379686f6c6465722143616e6e6f742073746f702067726f7570207768696c65207472616e736974696f6e696e6720706572696f647321496e73756666696369656e742044616920616c6c6f77616e636520666f72205061796d656e7421a165627a7a72305820452926768384772903d63ae8d8e1c6a7bb983020df79135296208dbdb5d556160029608060405234801561001057600080fd5b5060405160608061056e8339810180604052606081101561003057600080fd5b508051602080830151604093840151600080546001600160a01b03191633179081905585516001600160a01b0391909116815294519394919390927f4101e71e974f68df5e9730cc223280b41654676bbb052cdcc735c3337e64d2d9928290030190a1600192909255600280546001600160a01b039283166001600160a01b0319918216179091556003805492909316911617905561049a806100d46000396000f3fe608060405234801561001057600080fd5b506004361061004c5760003560e01c80632348238c146100515780633ccfd60b14610079578063a68fee8714610093578063c6dbdf61146100af575b600080fd5b6100776004803603602081101561006757600080fd5b50356001600160a01b03166100d3565b005b6100816101c1565b60408051918252519081900360200190f35b61009b610356565b604080519115158252519081900360200190f35b6100b76103e0565b604080516001600160a01b039092168252519081900360200190f35b6000546001600160a01b0316331461011f57604051600160e51b62461bcd02815260040180806020018281038252602c815260200180610443602c913960400191505060405180910390fd5b6001600160a01b03811661016757604051600160e51b62461bcd02815260040180806020018281038252602a815260200180610419602a913960400191505060405180910390fd5b600080546001600160a01b0319166001600160a01b03838116919091179182905560408051929091168252517f4101e71e974f68df5e9730cc223280b41654676bbb052cdcc735c3337e64d2d9916020908290030190a150565b600080546001600160a01b0316331461020e57604051600160e51b62461bcd02815260040180806020018281038252602c815260200180610443602c913960400191505060405180910390fd5b60035460408051600160e01b6370a0823102815230600482015290516001600160a01b03909216916370a0823191602480820192602092909190829003018186803b15801561025c57600080fd5b505afa158015610270573d6000803e3d6000fd5b505050506040513d602081101561028657600080fd5b50519050806102c957604051600160e51b62461bcd0281526004018080602001828103825260298152602001806103f06029913960400191505060405180910390fd5b60035460025460408051600160e01b63a9059cbb0281526001600160a01b039283166004820152602481018590529051919092169163a9059cbb9160448083019260209291908290030181600087803b15801561032557600080fd5b505af1158015610339573d6000803e3d6000fd5b505050506040513d602081101561034f57600080fd5b5090919050565b60035460408051600160e01b6370a08231028152306004820152905160009283926001600160a01b03909116916370a0823191602480820192602092909190829003018186803b1580156103a957600080fd5b505afa1580156103bd573d6000803e3d6000fd5b505050506040513d60208110156103d357600080fd5b5051600154111591505090565b6000546001600160a01b03169056fe4e6f2044616920696e204c697175696469747920436f6e747261637420746f205769746864726177215365636f6e646172793a206e6577207072696d61727920697320746865207a65726f20616464726573735365636f6e646172793a2063616c6c6572206973206e6f7420746865207072696d617279206163636f756e74a165627a7a72305820b664a4429bd069555acced3ec6af7427e6111e9d2aad9d5581ab96a57983c8710029536166654d6174683a206d756c7469706c69636174696f6e206f766572666c6f77",
  "source": "pragma solidity >= 0.4.0 < 0.7.0;\r\n\r\nimport './IGroup.sol';\r\nimport 'openzeppelin-solidity/contracts/ownership/Secondary.sol';\r\n\r\n/**\r\n * @author blOX Consulting LLC\r\n * Date: 08.26.2019\r\n * Implementation of Group Insurance Contract\r\n */\r\ncontract Group is IGroup, Secondary {\r\n\r\n    ///MODIFIERS///\r\n\r\n    /**\r\n     * Determine whether the liquidity contract is accessable by the Secretary\r\n     */\r\n    modifier liquidityLock() {\r\n        if (!isLobby()) {\r\n            uint range = block.timestamp - origin;\r\n            uint bound = range.mod(30);\r\n            require(origin == 0 || bound <= 6 days, \"Liquidity Stake is currently Locked!\");\r\n        }\r\n        _;\r\n    }\r\n\r\n    /**\r\n     * Modifier to restrict functionality to Lobby subperiod state\r\n     */\r\n    modifier onlyLobby() {\r\n        require((next == false), \"Group is locked in the 'started' state!\");\r\n        uint nextPeriod = currentPeriod.add(1);\r\n        require((periodLocks[nextPeriod][0] == 0), \"Group must finish the current period before entering Lobby!\");\r\n        _;\r\n    }\r\n\r\n    /**\r\n     * Determine whether a given action can currently be performed\r\n     * @param _period uint period index being queried\r\n     * @param _state subperiod restriction being applied\r\n     */\r\n    modifier allowed(uint _period, subperiod _state) {\r\n        require(getSubperiod(_period) == uint(_state), \"Incorrect subperiod for this action!\");\r\n        _;\r\n\r\n    }\r\n\r\n    /**\r\n     * Restrict access to Secretary role\r\n     */\r\n    modifier onlySecretary() {\r\n        require(secretary == msg.sender, \"Address is not this Group's Secretary!\");\r\n        _;\r\n    }\r\n\r\n    /**\r\n     * Restrict access to Policyholder role\r\n     */\r\n    modifier onlyPolicyholder() {\r\n        require(policyholders[msg.sender] != 0, \"Address is not a Policyholder in this Group!\");\r\n        _;\r\n    }\r\n\r\n    ///CONSTRUCTOR///\r\n\r\n    /**\r\n     * Construct a new Group\r\n     * @param _dai the address of the Dai ERC20 contract\r\n     * @param _secretary the address of the secretary of this group\r\n     * @param _volume the number of expected claims\r\n     * @param _payout the number of Dai tokens to pay out per claim\r\n     */\r\n    constructor(address _dai, address _secretary, uint _volume, uint _payout) public {\r\n        secretary = _secretary;\r\n        currentPeriod = 0;\r\n        uint total = _volume.mul(_payout);\r\n        Liquidity = new LiquidityLock(total, _secretary, _dai);\r\n        Dai = IERC20(_dai);\r\n        volume = _volume;\r\n        payout = _payout;\r\n    }\r\n\r\n    ///INTERFACE MUTABLE IMPLEMENTATIONS///\r\n\r\n    function startGroup() public onlySecretary onlyLobby {\r\n        currentPeriod = currentPeriod.add(1);\r\n        origin = block.timestamp.sub(3 days);\r\n        setLocks(currentPeriod);\r\n        next = true;\r\n        emit Started();\r\n    }\r\n\r\n    function stopGroup() public onlySecretary {\r\n        uint periodOrigin = periodLocks[currentPeriod][0];\r\n        uint range = block.timestamp.sub(periodOrigin);\r\n        require(range > 3 days && range <= 30 days, \"Cannot stop group while transitioning periods!\");\r\n        next = false;\r\n        uint nextPeriod = currentPeriod.add(1);\r\n        for(uint i = 0; i < SUBPERIOD_DAYS.length; i++)\r\n            periodLocks[nextPeriod][i] = 0;\r\n        emit Stopped();\r\n    }\r\n\r\n    function endPeriod(uint _period) public {\r\n        require(msg.sender == secretary || msg.sender == primary(), \"Only Primary (Admin of Service.sol) or the Secretary may end the Period\");\r\n        stripToxicSubgroups(_period);\r\n        payClaims(_period);\r\n        payRefunds(_period);\r\n        if(next != false) {\r\n            currentPeriod = currentPeriod.add(1);\r\n            setLocks(currentPeriod);\r\n        } else {\r\n            origin = 0;\r\n        }\r\n        emit PeriodEnded(_period);\r\n        if (loanMonths > 2)\r\n            loanMonths = loanMonths.sub(1);\r\n    }\r\n\r\n    function withdraw() public onlySecretary liquidityLock {\r\n        uint balance = Liquidity.withdraw();\r\n        emit LiquidityWithdrawn(balance);\r\n    }\r\n\r\n    function makeLoan(uint _debt, uint _months) public onlyPrimary onlyLobby {\r\n        require(!loaned(), \"Cannot have two loans simultaneously!\");\r\n        loanDebt = _debt;\r\n        loanMonths = _months;\r\n        emit Loaned(loanDebt, loanMonths);\r\n    }\r\n\r\n    function addPolicyholder(address _to, uint _subgroup) public onlySecretary onlyLobby {\r\n        require(policyholders[_to] == 0, \"Policyholder already exists!\");\r\n        require(subgroupCounts[_subgroup] < 7, \"Subgroup is full!\");\r\n\r\n        policyholders[_to] = _subgroup;\r\n        subgroupCounts[_subgroup] = subgroupCounts[_subgroup].add(1);\r\n        groupSize = groupSize.add(1);\r\n        emit PolicyholderAdded(_to);\r\n        if(_subgroup == subgroupIndex.add(1))\r\n            subgroupIndex = subgroupIndex.add(1);\r\n    }\r\n\r\n    function removePolicyholder(address _from) public onlySecretary onlyLobby {\r\n        require(policyholders[_from] != 0, \"Policyholder does not exist!\");\r\n\r\n        subgroupCounts[policyholders[_from]] = subgroupCounts[policyholders[_from]].sub(1);\r\n        policyholders[_from] = 0;\r\n        groupSize = groupSize.sub(1);\r\n        emit PolicyholderRemoved(_from);\r\n    }\r\n\r\n    function changeSubgroup(address _policyholder, uint _subgroup) public onlySecretary onlyLobby {\r\n        require(subgroupCounts[_subgroup] < 7, \"Subgroup is full!\");\r\n\r\n        subgroupCounts[policyholders[_policyholder]] = subgroupCounts[policyholders[_policyholder]].sub(1);\r\n        subgroupCounts[_subgroup] = subgroupCounts[_subgroup].add(1);\r\n        uint old = policyholders[_policyholder];\r\n        policyholders[_policyholder] = _subgroup;\r\n        emit SubgroupChange(_policyholder, old);\r\n        if(_subgroup == subgroupIndex.add(1))\r\n            subgroupIndex = subgroupIndex.add(1);\r\n    }\r\n\r\n    function makePayment(uint _period) public onlyPolicyholder allowed(_period, subperiod.PRE) {\r\n        require(participantToIndex[_period][msg.sender] == 0, \"Address has already paid premium as a Policyholder!\");\r\n        uint total = calculatePayment(msg.sender);\r\n        require(Dai.allowance(msg.sender, address(this)) >= total, \"Insufficient Dai allowance for Payment!\");\r\n        uint loan = calculateLoanPayment();\r\n        uint insurance = total.sub(loan);\r\n        Dai.transferFrom(msg.sender, address(this), insurance);\r\n        Dai.transferFrom(msg.sender, primary(), loan);\r\n        participantIndices[_period] = participantIndices[_period].add(1);\r\n        uint index = participantIndices[_period];\r\n        participants[_period][index] = msg.sender;\r\n        participantToIndex[_period][msg.sender] = index;\r\n        emit Paid(msg.sender, _period);\r\n        claimPools[_period] = claimPools[_period].add(insurance);\r\n    }\r\n\r\n    function submitClaim(uint _period, address _claimant) public onlySecretary allowed(_period, subperiod.ACTIVE) {\r\n        require(claimants[_period][_claimant] == 0, \"Claimant already has an existing Claim!\");\r\n\r\n        claimIndices[_period] = claimIndices[_period].add(1);\r\n        uint index = claimIndices[_period];\r\n        claims[_period][index] = _claimant;\r\n        claimants[_period][_claimant] = index;\r\n        emit ClaimSubmitted(_claimant, _period);\r\n    }\r\n\r\n    function defect(uint _period) public onlyPolicyholder allowed(_period, subperiod.POST) {\r\n        uint participantIndex = participantToIndex[_period][msg.sender];\r\n        require(participantIndex != 0, \"Only premium-paid policyholders may defect!\");\r\n\r\n        uint claimIndex = claimants[_period][msg.sender];\r\n        if(claimIndex != 0)\r\n            removeClaim(_period, claimIndex);\r\n        uint subgroup = policyholders[msg.sender];\r\n        uint subgroupSize = getSubgroupSize(subgroup);\r\n        defectionCounts[_period][subgroup] = defectionCounts[_period][subgroup].add(1);\r\n        if(defectionCounts[_period][subgroup] >= DEFECTION_THRESHOLD)\r\n            toxicSubgroups[_period][subgroup] = true;\r\n        uint premium = calculatePremium();\r\n        uint overpayment = calculateOverpayment(subgroupSize);\r\n        uint totalRefunded = premium.add(overpayment);\r\n        Dai.transfer(msg.sender, totalRefunded);\r\n        removeParticipant(_period, participantIndex);\r\n        emit Defected(msg.sender, _period);\r\n        claimPools[_period] = claimPools[_period].sub(totalRefunded);\r\n    }\r\n\r\n    ///INTERFACE VIEWABLE FUNCTIONS///\r\n\r\n    function isLobby() public view returns (bool) {\r\n        if (next == false) {\r\n            uint nextPeriod = currentPeriod.add(1);\r\n            if (periodLocks[nextPeriod][0] == 0)\r\n                return true;\r\n        }\r\n        return false;\r\n    }\r\n\r\n    function doNext() public view returns (bool) {\r\n        return next;\r\n    }\r\n\r\n    function getSecretary() public view returns (address) {\r\n        return secretary;\r\n    }\r\n\r\n    function getLiquidity() public view returns (address) {\r\n        return address(Liquidity);\r\n    }\r\n\r\n    function withdrawable() public view returns (bool) {\r\n        uint range = block.timestamp - origin;\r\n        uint bound = range.mod(30);\r\n        if (origin == 0 || bound <= 6 days)\r\n            return true;\r\n        else\r\n            return false;\r\n    }\r\n\r\n    function activePeriod() public view returns (uint) {\r\n        uint postLock = periodLocks[currentPeriod][2];\r\n        if(block.timestamp >= postLock && postLock != 0)\r\n            return currentPeriod.add(1);\r\n        else\r\n            return currentPeriod;\r\n    }\r\n\r\n    function getSubperiod(uint _period) public view returns (uint currentSubperiod) {\r\n        uint preLock = periodLocks[_period][0];\r\n        if (preLock == 0 || preLock > block.timestamp)\r\n            return uint(subperiod.LOBBY);\r\n        else {\r\n            for (uint i = 0; i < SUBPERIOD_DAYS.length.sub(1); i++) {\r\n                if(periodLocks[_period][i.add(1)] > block.timestamp)\r\n                    return (i.add(1));\r\n            }\r\n            return uint(subperiod.ENDED);\r\n        }\r\n    }\r\n\r\n    function loaned() public view returns (bool) {\r\n        return (loanDebt != 0);\r\n    }\r\n\r\n    function calculatePayment(address _query) public view returns (uint) {\r\n        uint subgroupSize = subgroupCounts[policyholders[_query]];\r\n        uint premium = calculatePremium();\r\n        uint overpayment = calculateOverpayment(subgroupSize);\r\n        uint loan = calculateLoanPayment();\r\n        return premium.add(overpayment).add(loan);\r\n    }\r\n\r\n    function calculatePremium() public view returns (uint) {\r\n        uint total = payout.mul(volume);\r\n        if (groupSize < 50)\r\n            return total.div(50);\r\n        else\r\n            return total.div(groupSize);\r\n    }\r\n\r\n    function calculateOverpayment(uint _size) public view returns (uint) {\r\n        uint premium = calculatePremium();\r\n        return (premium.div(_size.sub(1)));\r\n    }\r\n\r\n    function calculateLoanPayment() public view returns (uint) {\r\n        return loanDebt.div((loanMonths.add(1)).mul(groupSize));\r\n    }\r\n\r\n    function calculateExpectedPayout(uint _period) public view returns (uint) {\r\n        uint pool = claimPools[_period];\r\n        uint index = claimIndices[_period];\r\n        if(index == 0)\r\n            return 0;\r\n        uint share = pool.div(index);\r\n        if (share > payout)\r\n            share = payout;\r\n        return share;\r\n    }\r\n\r\n    function calculateEndowment(uint _months) public view returns (uint _endowment) {\r\n        require(_months >= 2, \"Endowment must use two or more months to pay back Loan!\");\r\n\r\n        uint size = groupSize;\r\n        if (size < 50)\r\n            size = 50;\r\n        uint subgroupEstimate = 5;\r\n        uint premium = calculatePremium();\r\n        uint overpayment = calculateOverpayment(subgroupEstimate);\r\n        uint groupPremium = premium.mul(size);\r\n        uint groupOverpayment = overpayment.mul(size);\r\n        uint payment = groupPremium.add(groupOverpayment);\r\n        _endowment = payment.add(payment.div(_months.sub(1)));\r\n    }\r\n\r\n    function viewLoan() public view returns (uint _debt, uint _months) {\r\n        _debt = loanDebt;\r\n        _months = loanMonths;\r\n    }\r\n\r\n    function viewPool(uint _period) public view returns (uint _pool) {\r\n        return claimPools[_period];\r\n    }\r\n\r\n    function isPolicyholder(address _query) public view returns (uint _subgroup) {\r\n        return policyholders[_query];\r\n    }\r\n\r\n    function getSize() public view returns (uint _size) {\r\n        return groupSize;\r\n    }\r\n\r\n    function getSubgroupSize(uint _index) public view returns (uint _size) {\r\n        return subgroupCounts[_index];\r\n    }\r\n\r\n    function isParticipant(uint _period, address _query) public view returns (uint _index) {\r\n        return participantToIndex[_period][_query];\r\n    }\r\n\r\n    function activeIndex(uint _period) public view returns (uint _index) {\r\n        return participantIndices[_period];\r\n    }\r\n\r\n    function indexToParticipant(uint _period, uint _index) public view returns (address _participant) {\r\n        return participants[_period][_index];\r\n    }\r\n\r\n    function isClaimant(uint _period, address _query) public view returns (uint _index) {\r\n        return claimants[_period][_query];\r\n    }\r\n\r\n    function claimIndex(uint _period) public view returns (uint _index) {\r\n        return claimIndices[_period];\r\n    }\r\n\r\n    function indexToClaimant(uint _period, uint _index) public view returns (address _claimant) {\r\n        return claims[_period][_index];\r\n    }\r\n\r\n    function getDefectionCount(uint _period, uint _subgroup) public view returns (uint _count) {\r\n        return defectionCounts[_period][_subgroup];\r\n    }\r\n\r\n    ///INTERNAL FUNCTIONS///\r\n\r\n    /**\r\n     * Set the locks for a given period based off the current block timestamp\r\n     * @param _period uint index of period being locked\r\n     */\r\n    function setLocks(uint _period) internal {\r\n        if(periodLocks[_period][0] == 0) {\r\n            uint periodOrigin = block.timestamp;\r\n            periodLocks[_period][0] = periodOrigin;\r\n            for(uint i = 0; i < SUBPERIOD_DAYS.length; i++) {\r\n                uint threshold = SUBPERIOD_DAYS[i].mul(1 days);\r\n                periodLocks[_period][i] = periodOrigin.add(threshold);\r\n            }\r\n        }\r\n        uint nextOrigin = periodLocks[_period][0].add(30 days);\r\n        uint nextPeriod = _period.add(1);\r\n        periodLocks[nextPeriod][0] = nextOrigin;\r\n        for(uint i = 0; i < SUBPERIOD_DAYS.length; i++) {\r\n            uint threshold = SUBPERIOD_DAYS[i].mul(1 days);\r\n            periodLocks[nextPeriod][i] = nextOrigin.add(threshold);\r\n        }\r\n    }\r\n\r\n    /**\r\n     * Remove any claims that were made within toxic subgroups\r\n     * @param _period uint index of period being remitted\r\n     */\r\n    function stripToxicSubgroups(uint _period) internal {\r\n        uint index = claimIndices[_period];\r\n        for(uint i = 1; i <= index; i++) {\r\n            address claimant = claims[_period][i];\r\n            uint subgroup = policyholders[claimant];\r\n            if(toxicSubgroups[_period][subgroup]) {\r\n                removeClaim(_period, i);\r\n                i.sub(1);\r\n                index = index.sub(1);\r\n                emit ClaimStripped(claimant, _period);\r\n            }\r\n        }\r\n    }\r\n\r\n    /**\r\n     * Pay out each claim according to the Dai pool\r\n     * @param _period uint index of period being remitted\r\n     */\r\n    function payClaims(uint _period) internal {\r\n        uint index = claimIndices[_period];\r\n        uint share = calculateExpectedPayout(_period);\r\n        for(uint i = 1; i <= index; i++) {\r\n            address claimant = claims[_period][i];\r\n            Dai.transfer(claimant, share);\r\n            claimPools[_period] = claimPools[_period].sub(share);\r\n            emit ClaimPaid(claimant, _period);\r\n        }\r\n    }\r\n\r\n    /**\r\n     * Pay refunds to the remaining active policyholders according to the remaining Dai pool\r\n     * @param _period uint index of period being remitted\r\n     */\r\n    function payRefunds(uint _period) internal {\r\n        uint pool = claimPools[_period];\r\n        if(pool > 0) {\r\n            uint index = participantIndices[_period];\r\n            uint share = pool.div(index);\r\n            for(uint i = 1; i <= index; i++) {\r\n                address participant = participants[_period][i];\r\n                Dai.transfer(participant, share);\r\n                claimPools[_period] = claimPools[_period].sub(share);\r\n                delete participants[_period][i];\r\n                delete participantToIndex[_period][participant];\r\n            }\r\n        }\r\n    }\r\n\r\n    /**\r\n     * Remove a claim from a period's claim list\r\n     * @param _period uint index of period being mutated\r\n     * @param _index uint index of claim being removed in claim list\r\n     */\r\n    function removeClaim(uint _period, uint _index) internal {\r\n        uint maxIndex = claimIndices[_period];\r\n        address oldClaimant = claims[_period][_index];\r\n        address newClaimant = claims[_period][maxIndex];\r\n        claims[_period][_index] = newClaimant;\r\n        claimants[_period][newClaimant] = _index;\r\n        claimIndices[_period] = claimIndices[_period].sub(1);\r\n        delete claims[_period][maxIndex];\r\n        delete claimants[_period][oldClaimant];\r\n    }\r\n\r\n    /**\r\n     * Remove a participant from the active participant list\r\n     * @param _period uint index of period being mutated\r\n     * @param _index uint index of participant being ejected\r\n     */\r\n    function removeParticipant(uint _period, uint _index) internal {\r\n        uint maxIndex = participantIndices[_period];\r\n        address oldParticipant = participants[_period][_index];\r\n        address newParticipant = participants[_period][maxIndex];\r\n        participants[_period][_index] = newParticipant;\r\n        participantToIndex[_period][newParticipant] = _index;\r\n        participantIndices[_period] = participantIndices[_period].sub(1);\r\n        delete participants[_period][maxIndex];\r\n        delete participantToIndex[_period][oldParticipant];\r\n    }\r\n\r\n}\r\n",
  "sourcePath": "C:\\Users\\Coda\\Desktop\\The Smart Contract\\TandaPay-Contracts\\contracts\\Group.sol",
  "compiler": {
    "name": "solc",
    "version": "0.5.8+commit.23d335f2.Emscripten.clang"
  },
  "schemaVersion": "3.0.16",
  "updatedAt": "2019-10-28T16:10:28.215Z",
  "devdoc": {
    "author": "blOX Consulting LLC\r Date: 08.26.2019\r Implementation of Group Insurance Contract\r",
    "methods": {
      "constructor": {
        "params": {
          "_dai": "the address of the Dai ERC20 contract\r",
          "_payout": "the number of Dai tokens to pay out per claim\r",
          "_secretary": "the address of the secretary of this group\r",
          "_volume": "the number of expected claims\r"
        }
      },
      "primary()": {
        "return": "the address of the primary."
      },
      "transferPrimary(address)": {
        "details": "Transfers contract to a new primary.",
        "params": {
          "recipient": "The address of new primary."
        }
      }
    }
  },
  "userdoc": {
    "methods": {
      "constructor": "Construct a new Group\r",
      "isLobby()": {
        "notice": "INTERFACE VIEWABLE FUNCTIONS///"
      },
      "startGroup()": {
        "notice": "INTERFACE MUTABLE IMPLEMENTATIONS///"
      }
    }
  }
}