{
  "contractName": "Group",
  "abi": [
    {
      "constant": false,
      "inputs": [
        {
          "name": "recipient",
          "type": "address"
        }
      ],
      "name": "transferPrimary",
      "outputs": [],
      "payable": false,
      "stateMutability": "nonpayable",
      "type": "function"
    },
    {
      "constant": true,
      "inputs": [],
      "name": "primary",
      "outputs": [
        {
          "name": "",
          "type": "address"
        }
      ],
      "payable": false,
      "stateMutability": "view",
      "type": "function"
    },
    {
      "inputs": [
        {
          "name": "_dai",
          "type": "address"
        },
        {
          "name": "_secretary",
          "type": "address"
        },
        {
          "name": "_volume",
          "type": "uint256"
        },
        {
          "name": "_payout",
          "type": "uint256"
        }
      ],
      "payable": false,
      "stateMutability": "nonpayable",
      "type": "constructor"
    },
    {
      "anonymous": false,
      "inputs": [
        {
          "indexed": false,
          "name": "recipient",
          "type": "address"
        }
      ],
      "name": "PrimaryTransferred",
      "type": "event"
    },
    {
      "anonymous": false,
      "inputs": [],
      "name": "Started",
      "type": "event"
    },
    {
      "anonymous": false,
      "inputs": [],
      "name": "Stopped",
      "type": "event"
    },
    {
      "anonymous": false,
      "inputs": [
        {
          "indexed": false,
          "name": "_period",
          "type": "uint256"
        }
      ],
      "name": "PeriodEnded",
      "type": "event"
    },
    {
      "anonymous": false,
      "inputs": [
        {
          "indexed": false,
          "name": "_value",
          "type": "uint256"
        }
      ],
      "name": "LiquidityWithdrawn",
      "type": "event"
    },
    {
      "anonymous": false,
      "inputs": [
        {
          "indexed": false,
          "name": "_debt",
          "type": "uint256"
        },
        {
          "indexed": false,
          "name": "_mbp",
          "type": "uint256"
        }
      ],
      "name": "Loaned",
      "type": "event"
    },
    {
      "anonymous": false,
      "inputs": [
        {
          "indexed": false,
          "name": "_policyholder",
          "type": "address"
        }
      ],
      "name": "PolicyholderAdded",
      "type": "event"
    },
    {
      "anonymous": false,
      "inputs": [
        {
          "indexed": false,
          "name": "_policyholder",
          "type": "address"
        }
      ],
      "name": "PolicyholderRemoved",
      "type": "event"
    },
    {
      "anonymous": false,
      "inputs": [
        {
          "indexed": false,
          "name": "_policyholder",
          "type": "address"
        },
        {
          "indexed": false,
          "name": "_oldSubgroup",
          "type": "uint256"
        }
      ],
      "name": "SubgroupChange",
      "type": "event"
    },
    {
      "anonymous": false,
      "inputs": [
        {
          "indexed": false,
          "name": "_policyholder",
          "type": "address"
        },
        {
          "indexed": false,
          "name": "_period",
          "type": "uint256"
        }
      ],
      "name": "Paid",
      "type": "event"
    },
    {
      "anonymous": false,
      "inputs": [
        {
          "indexed": false,
          "name": "_claimant",
          "type": "address"
        },
        {
          "indexed": false,
          "name": "_period",
          "type": "uint256"
        }
      ],
      "name": "ClaimSubmitted",
      "type": "event"
    },
    {
      "anonymous": false,
      "inputs": [
        {
          "indexed": false,
          "name": "_defector",
          "type": "address"
        },
        {
          "indexed": false,
          "name": "_period",
          "type": "uint256"
        }
      ],
      "name": "Defected",
      "type": "event"
    },
    {
      "anonymous": false,
      "inputs": [
        {
          "indexed": false,
          "name": "_claimant",
          "type": "address"
        },
        {
          "indexed": false,
          "name": "_period",
          "type": "uint256"
        }
      ],
      "name": "ClaimStripped",
      "type": "event"
    },
    {
      "anonymous": false,
      "inputs": [
        {
          "indexed": false,
          "name": "_claimant",
          "type": "address"
        },
        {
          "indexed": false,
          "name": "_payout",
          "type": "uint256"
        }
      ],
      "name": "ClaimPaid",
      "type": "event"
    },
    {
      "constant": false,
      "inputs": [],
      "name": "startGroup",
      "outputs": [],
      "payable": false,
      "stateMutability": "nonpayable",
      "type": "function"
    },
    {
      "constant": false,
      "inputs": [],
      "name": "stopGroup",
      "outputs": [],
      "payable": false,
      "stateMutability": "nonpayable",
      "type": "function"
    },
    {
      "constant": false,
      "inputs": [
        {
          "name": "_period",
          "type": "uint256"
        }
      ],
      "name": "endPeriod",
      "outputs": [],
      "payable": false,
      "stateMutability": "nonpayable",
      "type": "function"
    },
    {
      "constant": false,
      "inputs": [],
      "name": "withdraw",
      "outputs": [],
      "payable": false,
      "stateMutability": "nonpayable",
      "type": "function"
    },
    {
      "constant": false,
      "inputs": [
        {
          "name": "_debt",
          "type": "uint256"
        },
        {
          "name": "_months",
          "type": "uint256"
        }
      ],
      "name": "makeLoan",
      "outputs": [],
      "payable": false,
      "stateMutability": "nonpayable",
      "type": "function"
    },
    {
      "constant": false,
      "inputs": [
        {
          "name": "_to",
          "type": "address"
        },
        {
          "name": "_subgroup",
          "type": "uint256"
        }
      ],
      "name": "addPolicyholder",
      "outputs": [],
      "payable": false,
      "stateMutability": "nonpayable",
      "type": "function"
    },
    {
      "constant": false,
      "inputs": [
        {
          "name": "_from",
          "type": "address"
        }
      ],
      "name": "removePolicyholder",
      "outputs": [],
      "payable": false,
      "stateMutability": "nonpayable",
      "type": "function"
    },
    {
      "constant": false,
      "inputs": [
        {
          "name": "_policyholder",
          "type": "address"
        },
        {
          "name": "_subgroup",
          "type": "uint256"
        }
      ],
      "name": "changeSubgroup",
      "outputs": [],
      "payable": false,
      "stateMutability": "nonpayable",
      "type": "function"
    },
    {
      "constant": false,
      "inputs": [
        {
          "name": "_period",
          "type": "uint256"
        }
      ],
      "name": "makePayment",
      "outputs": [],
      "payable": false,
      "stateMutability": "nonpayable",
      "type": "function"
    },
    {
      "constant": false,
      "inputs": [
        {
          "name": "_period",
          "type": "uint256"
        },
        {
          "name": "_claimant",
          "type": "address"
        }
      ],
      "name": "submitClaim",
      "outputs": [],
      "payable": false,
      "stateMutability": "nonpayable",
      "type": "function"
    },
    {
      "constant": false,
      "inputs": [
        {
          "name": "_period",
          "type": "uint256"
        }
      ],
      "name": "defect",
      "outputs": [],
      "payable": false,
      "stateMutability": "nonpayable",
      "type": "function"
    },
    {
      "constant": true,
      "inputs": [],
      "name": "isLobby",
      "outputs": [
        {
          "name": "",
          "type": "bool"
        }
      ],
      "payable": false,
      "stateMutability": "view",
      "type": "function"
    },
    {
      "constant": true,
      "inputs": [],
      "name": "doNext",
      "outputs": [
        {
          "name": "",
          "type": "bool"
        }
      ],
      "payable": false,
      "stateMutability": "view",
      "type": "function"
    },
    {
      "constant": true,
      "inputs": [],
      "name": "getSecretary",
      "outputs": [
        {
          "name": "",
          "type": "address"
        }
      ],
      "payable": false,
      "stateMutability": "view",
      "type": "function"
    },
    {
      "constant": true,
      "inputs": [],
      "name": "getLiquidity",
      "outputs": [
        {
          "name": "",
          "type": "address"
        }
      ],
      "payable": false,
      "stateMutability": "view",
      "type": "function"
    },
    {
      "constant": true,
      "inputs": [],
      "name": "withdrawable",
      "outputs": [
        {
          "name": "",
          "type": "bool"
        }
      ],
      "payable": false,
      "stateMutability": "view",
      "type": "function"
    },
    {
      "constant": true,
      "inputs": [],
      "name": "activePeriod",
      "outputs": [
        {
          "name": "",
          "type": "uint256"
        }
      ],
      "payable": false,
      "stateMutability": "view",
      "type": "function"
    },
    {
      "constant": true,
      "inputs": [
        {
          "name": "_period",
          "type": "uint256"
        }
      ],
      "name": "getSubperiod",
      "outputs": [
        {
          "name": "currentSubperiod",
          "type": "uint256"
        }
      ],
      "payable": false,
      "stateMutability": "view",
      "type": "function"
    },
    {
      "constant": true,
      "inputs": [],
      "name": "loaned",
      "outputs": [
        {
          "name": "",
          "type": "bool"
        }
      ],
      "payable": false,
      "stateMutability": "view",
      "type": "function"
    },
    {
      "constant": true,
      "inputs": [
        {
          "name": "_query",
          "type": "address"
        }
      ],
      "name": "calculatePayment",
      "outputs": [
        {
          "name": "",
          "type": "uint256"
        }
      ],
      "payable": false,
      "stateMutability": "view",
      "type": "function"
    },
    {
      "constant": true,
      "inputs": [],
      "name": "calculatePremium",
      "outputs": [
        {
          "name": "",
          "type": "uint256"
        }
      ],
      "payable": false,
      "stateMutability": "view",
      "type": "function"
    },
    {
      "constant": true,
      "inputs": [
        {
          "name": "_size",
          "type": "uint256"
        }
      ],
      "name": "calculateOverpayment",
      "outputs": [
        {
          "name": "",
          "type": "uint256"
        }
      ],
      "payable": false,
      "stateMutability": "view",
      "type": "function"
    },
    {
      "constant": true,
      "inputs": [],
      "name": "calculateLoanPayment",
      "outputs": [
        {
          "name": "",
          "type": "uint256"
        }
      ],
      "payable": false,
      "stateMutability": "view",
      "type": "function"
    },
    {
      "constant": true,
      "inputs": [
        {
          "name": "_period",
          "type": "uint256"
        }
      ],
      "name": "calculateExpectedPayout",
      "outputs": [
        {
          "name": "",
          "type": "uint256"
        }
      ],
      "payable": false,
      "stateMutability": "view",
      "type": "function"
    },
    {
      "constant": true,
      "inputs": [
        {
          "name": "_months",
          "type": "uint256"
        }
      ],
      "name": "calculateEndowment",
      "outputs": [
        {
          "name": "_endowment",
          "type": "uint256"
        }
      ],
      "payable": false,
      "stateMutability": "view",
      "type": "function"
    },
    {
      "constant": true,
      "inputs": [
        {
          "name": "_period",
          "type": "uint256"
        },
        {
          "name": "_subgroup",
          "type": "uint256"
        }
      ],
      "name": "getPaidParticipantAmount",
      "outputs": [
        {
          "name": "_groupParticipantAmount",
          "type": "uint256"
        },
        {
          "name": "_subgroupParticipantAmount",
          "type": "uint256"
        }
      ],
      "payable": false,
      "stateMutability": "view",
      "type": "function"
    },
    {
      "constant": true,
      "inputs": [],
      "name": "viewLoan",
      "outputs": [
        {
          "name": "_debt",
          "type": "uint256"
        },
        {
          "name": "_months",
          "type": "uint256"
        }
      ],
      "payable": false,
      "stateMutability": "view",
      "type": "function"
    },
    {
      "constant": true,
      "inputs": [
        {
          "name": "_period",
          "type": "uint256"
        }
      ],
      "name": "viewPool",
      "outputs": [
        {
          "name": "_pool",
          "type": "uint256"
        }
      ],
      "payable": false,
      "stateMutability": "view",
      "type": "function"
    },
    {
      "constant": true,
      "inputs": [
        {
          "name": "_query",
          "type": "address"
        }
      ],
      "name": "isPolicyholder",
      "outputs": [
        {
          "name": "_subgroup",
          "type": "uint256"
        }
      ],
      "payable": false,
      "stateMutability": "view",
      "type": "function"
    },
    {
      "constant": true,
      "inputs": [],
      "name": "getSize",
      "outputs": [
        {
          "name": "_size",
          "type": "uint256"
        }
      ],
      "payable": false,
      "stateMutability": "view",
      "type": "function"
    },
    {
      "constant": true,
      "inputs": [
        {
          "name": "_index",
          "type": "uint256"
        }
      ],
      "name": "getSubgroupSize",
      "outputs": [
        {
          "name": "_size",
          "type": "uint256"
        }
      ],
      "payable": false,
      "stateMutability": "view",
      "type": "function"
    },
    {
      "constant": true,
      "inputs": [
        {
          "name": "_period",
          "type": "uint256"
        },
        {
          "name": "_query",
          "type": "address"
        }
      ],
      "name": "isParticipant",
      "outputs": [
        {
          "name": "_index",
          "type": "uint256"
        }
      ],
      "payable": false,
      "stateMutability": "view",
      "type": "function"
    },
    {
      "constant": true,
      "inputs": [
        {
          "name": "_period",
          "type": "uint256"
        }
      ],
      "name": "activeIndex",
      "outputs": [
        {
          "name": "_index",
          "type": "uint256"
        }
      ],
      "payable": false,
      "stateMutability": "view",
      "type": "function"
    },
    {
      "constant": true,
      "inputs": [
        {
          "name": "_period",
          "type": "uint256"
        },
        {
          "name": "_index",
          "type": "uint256"
        }
      ],
      "name": "indexToParticipant",
      "outputs": [
        {
          "name": "_participant",
          "type": "address"
        }
      ],
      "payable": false,
      "stateMutability": "view",
      "type": "function"
    },
    {
      "constant": true,
      "inputs": [
        {
          "name": "_period",
          "type": "uint256"
        },
        {
          "name": "_query",
          "type": "address"
        }
      ],
      "name": "isClaimant",
      "outputs": [
        {
          "name": "_index",
          "type": "uint256"
        }
      ],
      "payable": false,
      "stateMutability": "view",
      "type": "function"
    },
    {
      "constant": true,
      "inputs": [
        {
          "name": "_period",
          "type": "uint256"
        }
      ],
      "name": "claimIndex",
      "outputs": [
        {
          "name": "_index",
          "type": "uint256"
        }
      ],
      "payable": false,
      "stateMutability": "view",
      "type": "function"
    },
    {
      "constant": true,
      "inputs": [
        {
          "name": "_period",
          "type": "uint256"
        },
        {
          "name": "_index",
          "type": "uint256"
        }
      ],
      "name": "indexToClaimant",
      "outputs": [
        {
          "name": "_claimant",
          "type": "address"
        }
      ],
      "payable": false,
      "stateMutability": "view",
      "type": "function"
    },
    {
      "constant": true,
      "inputs": [
        {
          "name": "_period",
          "type": "uint256"
        },
        {
          "name": "_subgroup",
          "type": "uint256"
        }
      ],
      "name": "getDefectionCount",
      "outputs": [
        {
          "name": "_count",
          "type": "uint256"
        }
      ],
      "payable": false,
      "stateMutability": "view",
      "type": "function"
    },
    {
      "constant": true,
      "inputs": [
        {
          "name": "_period",
          "type": "uint256"
        }
      ],
      "name": "getGroupDefectionCount",
      "outputs": [
        {
          "name": "_count",
          "type": "uint256"
        }
      ],
      "payable": false,
      "stateMutability": "view",
      "type": "function"
    }
  ],
  "bytecode": "0x61010060405260006080908152600360a052602160c052602460e0526200002b9060179060046200021a565b503480156200003957600080fd5b50604051608080620038b5833981018060405260808110156200005b57600080fd5b508051602080830151604080850151606090950151601d80546001600160a01b03191633179081905582516001600160a01b03919091168152915194959294929390927f4101e71e974f68df5e9730cc223280b41654676bbb052cdcc735c3337e64d2d99281900390910190a1600e8054610100600160a81b0319166101006001600160a01b038616021790556000601381905562000107838362000199602090811b620025d217901c565b90508084866040516200011a9062000262565b9283526001600160a01b039182166020840152166040808301919091525190819003606001906000f08015801562000156573d6000803e3d6000fd5b50601c80546001600160a01b039283166001600160a01b031991821617909155601b805497909216961695909517909455600f9190915560105550620002909050565b600082620001aa5750600062000214565b82820282848281620001b857fe5b041462000211576040517f08c379a0000000000000000000000000000000000000000000000000000000008152600401808060200182810382526021815260200180620038946021913960400191505060405180910390fd5b90505b92915050565b826004810192821562000250579160200282015b8281111562000250578251829060ff169055916020019190600101906200022e565b506200025e92915062000270565b5090565b61056e806200332683390190565b6200028d91905b808211156200025e576000815560010162000277565b90565b61308680620002a06000396000f3fe608060405234801561001057600080fd5b50600436106102535760003560e01c80638a53997211610146578063c6dbdf61116100c3578063f183300111610087578063f1833001146105ef578063f6a7183114610612578063f703513d1461061a578063f97c689a1461063d578063f9b790c114610669578063fd373a021461068f57610253565b8063c6dbdf611461059d578063d0b7363f146105a5578063de8fa431146105c2578063e7c1e280146105ca578063e844ea6a146105e757610253565b8063a0d8e1991161010a578063a0d8e199146104dc578063a3ba6a7414610508578063abc5648e1461052b578063b13e0ca51461054e578063b95e7ec81461057157610253565b80638a539972146104575780638bec9a7e14610474578063981f70551461047c5780639a3d3559146104995780639b424009146104bf57610253565b806328558ea4116101d45780635114cb52116101985780635114cb52146103b757806352f7ca26146103d45780635c804476146103f15780635d7045d51461040e578063758d9b891461042b57610253565b806328558ea41461037657806330f68ebb146103975780633a709d221461039f5780633ccfd60b146103a757806350188301146103af57610253565b806316020ea01161021b57806316020ea0146102e257806317a504251461030e5780632348238c14610316578063235308581461033c57806327e137311461035957610253565b806308ad7583146102585780630910a510146102745780630a441f7b146102985780630ee85b83146102b257806312e15258146102d8575b600080fd5b6102606106ac565b604080519115158252519081900360200190f35b61027c6106b5565b604080516001600160a01b039092168252519081900360200190f35b6102a06106c4565b60408051918252519081900360200190f35b6102a0600480360360208110156102c857600080fd5b50356001600160a01b031661071c565b6102e0610790565b005b6102a0600480360360408110156102f857600080fd5b50803590602001356001600160a01b03166108e4565b6102a061090e565b6102e06004803603602081101561032c57600080fd5b50356001600160a01b031661094f565b6102a06004803603602081101561035257600080fd5b5035610a3d565b6102a06004803603602081101561036f57600080fd5b5035610a72565b61037e610ac7565b6040805192835260208301919091528051918290030190f35b610260610ad1565b6102a0610ada565b6102e0610b26565b610260610ca1565b6102e0600480360360208110156103cd57600080fd5b5035610cec565b6102a0600480360360208110156103ea57600080fd5b503561112f565b6102a06004803603602081101561040757600080fd5b50356111e1565b6102a06004803603602081101561042457600080fd5b50356111f3565b6102a06004803603604081101561044157600080fd5b50803590602001356001600160a01b0316611205565b6102e06004803603602081101561046d57600080fd5b503561122d565b61026061154c565b6102a06004803603602081101561049257600080fd5b50356115a3565b6102a0600480360360208110156104af57600080fd5b50356001600160a01b031661168d565b6102a0600480360360208110156104d557600080fd5b50356116a8565b6102e0600480360360408110156104f257600080fd5b50803590602001356001600160a01b03166116ba565b61027c6004803603604081101561051e57600080fd5b508035906020013561186c565b61037e6004803603604081101561054157600080fd5b5080359060200135611892565b6102a06004803603604081101561056457600080fd5b50803590602001356118ba565b6102e06004803603604081101561058757600080fd5b506001600160a01b0381351690602001356118d7565b61027c611b73565b6102a0600480360360208110156105bb57600080fd5b5035611b82565b6102a0611b94565b6102a0600480360360208110156105e057600080fd5b5035611b9a565b6102e0611bac565b6102e06004803603604081101561060557600080fd5b5080359060200135611d27565b61027c611ebc565b61027c6004803603604081101561063057600080fd5b5080359060200135611ed0565b6102e06004803603604081101561065357600080fd5b506001600160a01b038135169060200135611ef6565b6102e06004803603602081101561067f57600080fd5b50356001600160a01b03166121c3565b6102e0600480360360208110156106a557600080fd5b50356123f5565b60115415155b90565b601c546001600160a01b031690565b6013546000908152600660209081526040808320600284529091528120544281118015906106f157508015155b156107125760135461070a90600163ffffffff61251516565b9150506106b2565b50506013546106b2565b6001600160a01b038116600090815260208181526040808320548352600190915281205481610749610ada565b9050600061075683610a3d565b9050600061076261090e565b905061078481610778858563ffffffff61251516565b9063ffffffff61251516565b9450505050505b919050565b600e5461010090046001600160a01b031633146107e157604051600160e51b62461bcd028152600401808060200182810382526026815260200180612f656026913960400191505060405180910390fd5b60135460009081526006602090815260408083208380529091528120549061080f428363ffffffff61257216565b90506203f48081118015610826575062278d008111155b61086457604051600160e51b62461bcd02815260040180806020018281038252602e815260200180613006602e913960400191505060405180910390fd5b600e805460ff1916905560135460009061088590600163ffffffff61251516565b905060005b60048110156108b557600082815260066020908152604080832084845290915281205560010161088a565b506040517f7acc84e34091ae817647a4c49116f5cc07f319078ba80f8f5fde37ea7e25cbd690600090a1505050565b6000828152600d602090815260408083206001600160a01b03851684529091529020545b92915050565b600061094a61093b60155461092f600160125461251590919063ffffffff16565b9063ffffffff6125d216565b6011549063ffffffff61262e16565b905090565b601d546001600160a01b0316331461099b57604051600160e51b62461bcd02815260040180806020018281038252602c815260200180612f39602c913960400191505060405180910390fd5b6001600160a01b0381166109e357604051600160e51b62461bcd02815260040180806020018281038252602a815260200180612eea602a913960400191505060405180910390fd5b601d80546001600160a01b0319166001600160a01b03838116919091179182905560408051929091168252517f4101e71e974f68df5e9730cc223280b41654676bbb052cdcc735c3337e64d2d9916020908290030190a150565b600080610a48610ada565b9050610a6b610a5e84600163ffffffff61257216565b829063ffffffff61262e16565b9392505050565b600081815260046020908152604080832054600390925282205480610a9c5760009250505061078b565b6000610aae838363ffffffff61262e16565b9050601054811115610abf57506010545b949350505050565b6011546012549091565b600e5460ff1690565b600080610af4600f546010546125d290919063ffffffff16565b905060326015541015610b125761070a81603263ffffffff61262e16565b60155461070a90829063ffffffff61262e16565b600e5461010090046001600160a01b03163314610b7757604051600160e51b62461bcd028152600401808060200182810382526026815260200180612f656026913960400191505060405180910390fd5b610b7f61154c565b610bf25760145442036000610b9b82601e63ffffffff61269b16565b905060145460001480610bb157506207e9008111155b610bef57604051600160e51b62461bcd028152600401808060200182810382526024815260200180612f8b6024913960400191505060405180910390fd5b50505b601c5460408051600160e01b633ccfd60b02815290516000926001600160a01b031691633ccfd60b91600480830192602092919082900301818787803b158015610c3b57600080fd5b505af1158015610c4f573d6000803e3d6000fd5b505050506040513d6020811015610c6557600080fd5b50516040805182815290519192507f73ce532f480864bd2fccd1bcdbb4c8151f02cd9450c4f3e5b834ef74503abdb2919081900360200190a150565b601454600090420381610cbb82601e63ffffffff61269b16565b905060145460001480610cd157506207e9008111155b15610ce1576001925050506106b2565b6000925050506106b2565b33600090815260208190526040902054610d3a57604051600160e51b62461bcd02815260040180806020018281038252602c815260200180612dd9602c913960400191505060405180910390fd5b80600180610d478361112f565b14610d8657604051600160e51b62461bcd028152600401808060200182810382526024815260200180612faf6024913960400191505060405180910390fd5b6000838152600b6020908152604080832033845290915290205415610ddf57604051600160e51b62461bcd028152600401808060200182810382526033815260200180612fd36033913960400191505060405180910390fd5b6000610dea3361071c565b601b5460408051600160e11b636eb1769f028152336004820152306024820152905192935083926001600160a01b039092169163dd62ed3e91604480820192602092909190829003018186803b158015610e4357600080fd5b505afa158015610e57573d6000803e3d6000fd5b505050506040513d6020811015610e6d57600080fd5b50511015610eaf57604051600160e51b62461bcd0281526004018080602001828103825260278152602001806130346027913960400191505060405180910390fd5b6000610eb961090e565b90506000610ecd838363ffffffff61257216565b601b5460408051600160e01b6323b872dd0281523360048201523060248201526044810184905290519293506001600160a01b03909116916323b872dd916064808201926020929091908290030181600087803b158015610f2d57600080fd5b505af1158015610f41573d6000803e3d6000fd5b505050506040513d6020811015610f5757600080fd5b5050601b546001600160a01b03166323b872dd33610f73611b73565b856040518463ffffffff1660e01b815260040180846001600160a01b03166001600160a01b03168152602001836001600160a01b03166001600160a01b031681526020018281526020019350505050602060405180830381600087803b158015610fdc57600080fd5b505af1158015610ff0573d6000803e3d6000fd5b505050506040513d602081101561100657600080fd5b505060008681526002602052604090205461102890600163ffffffff61251516565b6000878152600260209081526040808320849055600a8252808320848452825280832080546001600160a01b031916339081179091558a8452600b83528184209084528252808320849055828252808320548a8452600883528184208185529092529091205461109f90600163ffffffff61251516565b60008981526008602090815260408083208584528252918290209290925580513381529182018a905280517f737c69225d647e5994eab1a6c301bf6d9232beb2759ae1e27a8966b4732bc4899281900390910190a1600088815260046020526040902054611113908463ffffffff61251516565b6000988952600460205260409098209790975550505050505050565b600081815260066020908152604080832083805290915281205480158061115557504281115b156111655760005b91505061078b565b60005b61117a6004600163ffffffff61257216565b8110156111d957600084815260066020526040812042916111a284600163ffffffff61251516565b81526020019081526020016000205411156111d1576111c881600163ffffffff61251516565b9250505061078b565b600101611168565b50600461115d565b60009081526003602052604090205490565b60009081526001602052604090205490565b6000918252600b602090815260408084206001600160a01b0393909316845291905290205490565b3360009081526020819052604090205461127b57604051600160e51b62461bcd02815260040180806020018281038252602c815260200180612dd9602c913960400191505060405180910390fd5b806003806112888361112f565b146112c757604051600160e51b62461bcd028152600401808060200182810382526024815260200180612faf6024913960400191505060405180910390fd5b6000838152600b602090815260408083203384529091529020548061132057604051600160e51b62461bcd02815260040180806020018281038252602b815260200180612e40602b913960400191505060405180910390fd5b6000848152600d60209081526040808320338452909152902054801561134a5761134a8582612703565b3360009081526020819052604081205490611364826111f3565b600088815260076020908152604080832086845290915290205490915061139290600163ffffffff61251516565b60008881526007602090815260408083208684528252808320939093558982526005905220546113c990600163ffffffff61251516565b60008881526005602090815260408083209390935560078152828220858352905220546002116114185760008781526009602090815260408083208584529091529020805460ff191660011790555b6000611422610ada565b9050600061142f83610a3d565b90506000611443838363ffffffff61251516565b601b5460408051600160e01b63a9059cbb0281523360048201526024810184905290519293506001600160a01b039091169163a9059cbb916044808201926020929091908290030181600087803b15801561149d57600080fd5b505af11580156114b1573d6000803e3d6000fd5b505050506040513d60208110156114c757600080fd5b506114d490508a886127d0565b60408051338152602081018c905281517fbe14feba3e0a5568c6aef4ffe53055e7eb3ded069515fa8124c21286e42b6b5f929181900390910190a160008a81526004602052604090205461152e908263ffffffff61257216565b60009a8b5260046020526040909a2099909955505050505050505050565b600e5460009060ff1661159d5760135460009061157090600163ffffffff61251516565b600081815260066020908152604080832083805290915290205490915061159b5760019150506106b2565b505b50600090565b600060028210156115e857604051600160e51b62461bcd028152600401808060200182810382526037815260200180612e6b6037913960400191505060405180910390fd5b60155460328110156115f8575060325b60056000611604610ada565b9050600061161183610a3d565b90506000611625838663ffffffff6125d216565b90506000611639838763ffffffff6125d216565b9050600061164d838363ffffffff61251516565b90506116806116736116668b600163ffffffff61257216565b839063ffffffff61262e16565b829063ffffffff61251516565b9998505050505050505050565b6001600160a01b031660009081526020819052604090205490565b60009081526002602052604090205490565b600e5461010090046001600160a01b0316331461170b57604051600160e51b62461bcd028152600401808060200182810382526026815260200180612f656026913960400191505060405180910390fd5b816002806117188361112f565b1461175757604051600160e51b62461bcd028152600401808060200182810382526024815260200180612faf6024913960400191505060405180910390fd5b6000848152600d602090815260408083206001600160a01b0387168452909152902054156117b957604051600160e51b62461bcd028152600401808060200182810382526027815260200180612d7b6027913960400191505060405180910390fd5b6000848152600360205260409020546117d990600163ffffffff61251516565b6000858152600360209081526040808320849055600c8252808320848452825280832080546001600160a01b0319166001600160a01b038916908117909155888452600d8352818420818552835292819020849055805192835290820187905280517fedb73a28656fc54b5b54d180d469da306262375b8fab1d30e7bfdfe6fa4d71a89281900390910190a15050505050565b6000918252600a602090815260408084209284529190529020546001600160a01b031690565b6000918252600260209081526040808420546008835281852093855292909152909120549091565b600091825260076020908152604080842092845291905290205490565b600e5461010090046001600160a01b031633148061190d57506118f8611b73565b6001600160a01b0316336001600160a01b0316145b61194b57604051600160e51b62461bcd028152600401808060200182810382526037815260200180612da26037913960400191505060405180910390fd5b600e5460ff161561199057604051600160e51b62461bcd028152600401808060200182810382526027815260200180612ec36027913960400191505060405180910390fd5b6013546000906119a790600163ffffffff61251516565b600081815260066020908152604080832083805290915290205490915015611a0357604051600160e51b62461bcd02815260040180806020018281038252603b815260200180612e05603b913960400191505060405180910390fd5b600082815260016020526040902054600711611a605760408051600160e51b62461bcd0281526020600482015260116024820152600160781b7053756267726f75702069732066756c6c2102604482015290519081900360640190fd5b6001600160a01b03831660009081526020818152604080832054835260019182905290912054611a959163ffffffff61257216565b6001600160a01b0384166000908152602081815260408083205483526001918290528083209390935584825291902054611ad49163ffffffff61251516565b6000838152600160209081526040808320939093556001600160a01b038616808352828252918390208054908690558351928352908201819052825190927f3cf23ca995fdd06a40f9c394eedd3a27239c256b5383ab9bf8b7a6a4ae17f6ec928290030190a1601654611b4e90600163ffffffff61251516565b831415611b6d57601654611b6990600163ffffffff61251516565b6016555b50505050565b601d546001600160a01b031690565b60009081526004602052604090205490565b60155490565b60009081526005602052604090205490565b600e5461010090046001600160a01b03163314611bfd57604051600160e51b62461bcd028152600401808060200182810382526026815260200180612f656026913960400191505060405180910390fd5b600e5460ff1615611c4257604051600160e51b62461bcd028152600401808060200182810382526027815260200180612ec36027913960400191505060405180910390fd5b601354600090611c5990600163ffffffff61251516565b600081815260066020908152604080832083805290915290205490915015611cb557604051600160e51b62461bcd02815260040180806020018281038252603b815260200180612e05603b913960400191505060405180910390fd5b601354611cc990600163ffffffff61251516565b601355611cdf426203f48063ffffffff61257216565b601455601354611cee9061289d565b600e805460ff191660011790556040517fd8cea0ecd56872ff072e771658b5682ffe4de16d752947f79597d600ea56f7a990600090a150565b601d546001600160a01b03163314611d7357604051600160e51b62461bcd02815260040180806020018281038252602c815260200180612f39602c913960400191505060405180910390fd5b600e5460ff1615611db857604051600160e51b62461bcd028152600401808060200182810382526027815260200180612ec36027913960400191505060405180910390fd5b601354600090611dcf90600163ffffffff61251516565b600081815260066020908152604080832083805290915290205490915015611e2b57604051600160e51b62461bcd02815260040180806020018281038252603b815260200180612e05603b913960400191505060405180910390fd5b611e336106ac565b15611e7257604051600160e51b62461bcd028152600401808060200182810382526025815260200180612f146025913960400191505060405180910390fd5b60118390556012829055604080518481526020810184905281517f57529235d42dc1daa6e5fa9e9182c6e3a6eed1db72665e80db2167b8e10504ea929181900390910190a1505050565b600e5461010090046001600160a01b031690565b6000918252600c602090815260408084209284529190529020546001600160a01b031690565b600e5461010090046001600160a01b0316331480611f2c5750611f17611b73565b6001600160a01b0316336001600160a01b0316145b611f6a57604051600160e51b62461bcd028152600401808060200182810382526037815260200180612da26037913960400191505060405180910390fd5b600e5460ff1615611faf57604051600160e51b62461bcd028152600401808060200182810382526027815260200180612ec36027913960400191505060405180910390fd5b601354600090611fc690600163ffffffff61251516565b60008181526006602090815260408083208380529091529020549091501561202257604051600160e51b62461bcd02815260040180806020018281038252603b815260200180612e05603b913960400191505060405180910390fd5b6001600160a01b038316600090815260208190526040902054156120905760408051600160e51b62461bcd02815260206004820152601c60248201527f506f6c696379686f6c64657220616c7265616479206578697374732100000000604482015290519081900360640190fd5b6000828152600160205260409020546007116120ed5760408051600160e51b62461bcd0281526020600482015260116024820152600160781b7053756267726f75702069732066756c6c2102604482015290519081900360640190fd5b6001600160a01b038316600090815260208181526040808320859055848352600191829052909120546121259163ffffffff61251516565b60008381526001602081905260409091209190915560155461214c9163ffffffff61251516565b601555604080516001600160a01b038516815290517ffd4bbf7aab6797f9bba4fe69d15ee6bbbb91ae8aea5fd72543e6397ccf4857e19181900360200190a160165461219f90600163ffffffff61251516565b8214156121be576016546121ba90600163ffffffff61251516565b6016555b505050565b600e5461010090046001600160a01b0316331461221457604051600160e51b62461bcd028152600401808060200182810382526026815260200180612f656026913960400191505060405180910390fd5b600e5460ff161561225957604051600160e51b62461bcd028152600401808060200182810382526027815260200180612ec36027913960400191505060405180910390fd5b60135460009061227090600163ffffffff61251516565b6000818152600660209081526040808320838052909152902054909150156122cc57604051600160e51b62461bcd02815260040180806020018281038252603b815260200180612e05603b913960400191505060405180910390fd5b6001600160a01b0382166000908152602081905260409020546123395760408051600160e51b62461bcd02815260206004820152601c60248201527f506f6c696379686f6c64657220646f6573206e6f742065786973742100000000604482015290519081900360640190fd5b6001600160a01b0382166000908152602081815260408083205483526001918290529091205461236e9163ffffffff61257216565b6001600160a01b038316600081815260208181526040808320805484526001808452918420959095559282528190529091556015546123b29163ffffffff61257216565b601555604080516001600160a01b038416815290517f958bba7b27d02e0f577e23ded3d387f0925cc5feb0e6abb66472219429e90d8c9181900360200190a15050565b600e5461010090046001600160a01b031633148061242b5750612416611b73565b6001600160a01b0316336001600160a01b0316145b61246957604051600160e51b62461bcd028152600401808060200182810382526037815260200180612da26037913960400191505060405180910390fd5b612472816129f6565b61247b81612ad6565b61248481612c19565b600e5460ff16156124b6576013546124a390600163ffffffff61251516565b60138190556124b19061289d565b6124bc565b60006014555b6040805182815290517f95357e1b81128b2e56387f7f29ae51b03ce299a9784c0714c6401291f27e51749181900360200190a1600260125411156125125760125461250e90600163ffffffff61257216565b6012555b50565b600082820183811015610a6b5760408051600160e51b62461bcd02815260206004820152601b60248201527f536166654d6174683a206164646974696f6e206f766572666c6f770000000000604482015290519081900360640190fd5b6000828211156125cc5760408051600160e51b62461bcd02815260206004820152601e60248201527f536166654d6174683a207375627472616374696f6e206f766572666c6f770000604482015290519081900360640190fd5b50900390565b6000826125e157506000610908565b828202828482816125ee57fe5b0414610a6b57604051600160e51b62461bcd028152600401808060200182810382526021815260200180612ea26021913960400191505060405180910390fd5b60008082116126875760408051600160e51b62461bcd02815260206004820152601a60248201527f536166654d6174683a206469766973696f6e206279207a65726f000000000000604482015290519081900360640190fd5b600082848161269257fe5b04949350505050565b6000816126f25760408051600160e51b62461bcd02815260206004820152601860248201527f536166654d6174683a206d6f64756c6f206279207a65726f0000000000000000604482015290519081900360640190fd5b8183816126fb57fe5b069392505050565b60008281526003602081815260408084208054600c845282862087875284528286208054828852848820546001600160a01b039081166001600160a01b0319831681179093558a8952600d8752858920838a5287529488208990559689905294909352549193169190612777906001612572565b600086815260036020908152604080832093909355600c815282822095825294855281812080546001600160a01b0319169055958652600d84528086206001600160a01b03939093168652919092528320929092555050565b60008281526002602081815260408084208054600a845282862087875284528286208054828852848820546001600160a01b039081166001600160a01b0319831681179093558a8952600b8752858920838a5287529488208990559689905294909352549193169190612844906001612572565b600086815260026020908152604080832093909355600a815282822095825294855281812080546001600160a01b0319169055958652600b84528086206001600160a01b03939093168652919092528320929092555050565b600081815260066020908152604080832083805290915290205461294057600081815260066020908152604080832083805290915281204290819055905b600481101561293d57600061290862015180601784600481106128fa57fe5b01549063ffffffff6125d216565b905061291a838263ffffffff61251516565b6000858152600660209081526040808320868452909152902055506001016128db565b50505b600081815260066020908152604080832083805290915281205461296d9062278d0063ffffffff61251516565b9050600061298283600163ffffffff61251516565b600081815260066020908152604080832083805290915281208490559091505b6004811015611b6d5760006129c162015180601784600481106128fa57fe5b90506129d3848263ffffffff61251516565b6000848152600660209081526040808320868452909152902055506001016129a2565b60008181526003602052604090205460015b8181116121be576000838152600c602090815260408083208484528252808320546001600160a01b0316808452838352818420548785526009845282852081865290935292205460ff1615612acc57612a618584612703565b612a7283600163ffffffff61257216565b50612a8484600163ffffffff61257216565b604080516001600160a01b03851681526020810188905281519296507fcee2c9f04c414aaad4b76148ff459230a81b444459806296bf03bb91435ead48929081900390910190a15b5050600101612a08565b60008181526003602052604081205490612aef83610a72565b905060015b828111611b6d576000848152600c60209081526040808320848452825280832054601b548251600160e01b63a9059cbb0281526001600160a01b03928316600482018190526024820189905293519395919092169363a9059cbb93604480850194929391928390030190829087803b158015612b6f57600080fd5b505af1158015612b83573d6000803e3d6000fd5b505050506040513d6020811015612b9957600080fd5b5050600085815260046020526040902054612bba908463ffffffff61257216565b6000868152600460209081526040918290209290925580516001600160a01b038416815291820187905280517ff42cf8c29487b42c009006cba2a2a0ca0388229f3183e6e957e0a0b163585cb49281900390910190a150600101612af4565b6000818152600460205260409020548015612d765760008281526002602052604081205490612c4e838363ffffffff61262e16565b905060015b828111612d72576000858152600a60209081526040808320848452825280832054601b548251600160e01b63a9059cbb0281526001600160a01b03928316600482018190526024820189905293519395919092169363a9059cbb93604480850194929391928390030190829087803b158015612cce57600080fd5b505af1158015612ce2573d6000803e3d6000fd5b505050506040513d6020811015612cf857600080fd5b5050600086815260046020526040902054612d19908463ffffffff61257216565b600087815260046020908152604080832093909355600a8152828220858352815282822080546001600160a01b0319169055888252600b81528282206001600160a01b0394909416825292909252812055600101612c53565b5050505b505056fe436c61696d616e7420616c72656164792068617320616e206578697374696e6720436c61696d2141646472657373206973206e6f7420746869732047726f7570277320536563726574617279206f7220536572766963652041646d696e2141646472657373206973206e6f74206120506f6c696379686f6c64657220696e20746869732047726f75702147726f7570206d7573742066696e697368207468652063757272656e7420706572696f64206265666f726520656e746572696e67204c6f626279214f6e6c79207072656d69756d2d7061696420706f6c696379686f6c64657273206d61792064656665637421456e646f776d656e74206d757374207573652074776f206f72206d6f7265206d6f6e74687320746f20706179206261636b204c6f616e21536166654d6174683a206d756c7469706c69636174696f6e206f766572666c6f7747726f7570206973206c6f636b656420696e2074686520277374617274656427207374617465215365636f6e646172793a206e6577207072696d61727920697320746865207a65726f206164647265737343616e6e6f7420686176652074776f206c6f616e732073696d756c74616e656f75736c79215365636f6e646172793a2063616c6c6572206973206e6f7420746865207072696d617279206163636f756e7441646472657373206973206e6f7420746869732047726f7570277320536563726574617279214c6971756964697479205374616b652069732063757272656e746c79204c6f636b656421496e636f727265637420737562706572696f6420666f72207468697320616374696f6e21416464726573732068617320616c72656164792070616964207072656d69756d206173206120506f6c696379686f6c6465722143616e6e6f742073746f702067726f7570207768696c65207472616e736974696f6e696e6720706572696f647321496e73756666696369656e742044616920616c6c6f77616e636520666f72205061796d656e7421a165627a7a72305820f22f286b32ac39eb326500a04d37f146bcc4303cae1f5c8a7146bcdd9f6d82860029608060405234801561001057600080fd5b5060405160608061056e8339810180604052606081101561003057600080fd5b508051602080830151604093840151600080546001600160a01b03191633179081905585516001600160a01b0391909116815294519394919390927f4101e71e974f68df5e9730cc223280b41654676bbb052cdcc735c3337e64d2d9928290030190a1600192909255600280546001600160a01b039283166001600160a01b0319918216179091556003805492909316911617905561049a806100d46000396000f3fe608060405234801561001057600080fd5b506004361061004c5760003560e01c80632348238c146100515780633ccfd60b14610079578063a68fee8714610093578063c6dbdf61146100af575b600080fd5b6100776004803603602081101561006757600080fd5b50356001600160a01b03166100d3565b005b6100816101c1565b60408051918252519081900360200190f35b61009b610356565b604080519115158252519081900360200190f35b6100b76103e0565b604080516001600160a01b039092168252519081900360200190f35b6000546001600160a01b0316331461011f57604051600160e51b62461bcd02815260040180806020018281038252602c815260200180610443602c913960400191505060405180910390fd5b6001600160a01b03811661016757604051600160e51b62461bcd02815260040180806020018281038252602a815260200180610419602a913960400191505060405180910390fd5b600080546001600160a01b0319166001600160a01b03838116919091179182905560408051929091168252517f4101e71e974f68df5e9730cc223280b41654676bbb052cdcc735c3337e64d2d9916020908290030190a150565b600080546001600160a01b0316331461020e57604051600160e51b62461bcd02815260040180806020018281038252602c815260200180610443602c913960400191505060405180910390fd5b60035460408051600160e01b6370a0823102815230600482015290516001600160a01b03909216916370a0823191602480820192602092909190829003018186803b15801561025c57600080fd5b505afa158015610270573d6000803e3d6000fd5b505050506040513d602081101561028657600080fd5b50519050806102c957604051600160e51b62461bcd0281526004018080602001828103825260298152602001806103f06029913960400191505060405180910390fd5b60035460025460408051600160e01b63a9059cbb0281526001600160a01b039283166004820152602481018590529051919092169163a9059cbb9160448083019260209291908290030181600087803b15801561032557600080fd5b505af1158015610339573d6000803e3d6000fd5b505050506040513d602081101561034f57600080fd5b5090919050565b60035460408051600160e01b6370a08231028152306004820152905160009283926001600160a01b03909116916370a0823191602480820192602092909190829003018186803b1580156103a957600080fd5b505afa1580156103bd573d6000803e3d6000fd5b505050506040513d60208110156103d357600080fd5b5051600154111591505090565b6000546001600160a01b03169056fe4e6f2044616920696e204c697175696469747920436f6e747261637420746f205769746864726177215365636f6e646172793a206e6577207072696d61727920697320746865207a65726f20616464726573735365636f6e646172793a2063616c6c6572206973206e6f7420746865207072696d617279206163636f756e74a165627a7a72305820d051eb438d4b394a4b37a8d47fbab06eb69b743d0057ae472aa9e98f0c63fd3b0029536166654d6174683a206d756c7469706c69636174696f6e206f766572666c6f77",
  "source": "pragma solidity >= 0.4.0 < 0.7.0;\n\nimport './IGroup.sol';\nimport 'openzeppelin-solidity/contracts/ownership/Secondary.sol';\n\n/**\n * @author blOX Consulting LLC\n * Date: 08.26.2019\n * Implementation of Group Insurance Contract\n */\ncontract Group is IGroup, Secondary {\n    \n    ///MODIFIERS///\n\n    /**\n     * Determine whether the liquidity contract is accessable by the Secretary\n     */\n    modifier liquidityLock() {\n        if (!isLobby()) {\n            uint range = block.timestamp - origin;\n            uint bound = range.mod(30);\n            require(origin == 0 || bound <= 6 days, \"Liquidity Stake is currently Locked!\");\n        }\n        _;\n    }\n\n    /**\n     * Modifier to restrict functionality to Lobby subperiod state\n     */\n    modifier onlyLobby() {\n        require((next == false), \"Group is locked in the 'started' state!\");\n        uint nextPeriod = currentPeriod.add(1);\n        require((periodLocks[nextPeriod][0] == 0), \"Group must finish the current period before entering Lobby!\");\n        _;\n    }\n\n    /**\n     * Determine whether a given action can currently be performed\n     * @param _period uint period index being queried\n     * @param _state subperiod restriction being applied\n     */\n    modifier allowed(uint _period, subperiod _state) {\n        require(getSubperiod(_period) == uint(_state), \"Incorrect subperiod for this action!\");\n        _;\n        \n    }\n\n    /**\n     * Restrict access to Secretary role\n     */\n    modifier onlySecretary() {\n        require(secretary == msg.sender, \"Address is not this Group's Secretary!\");\n        _;\n    }\n\n    modifier onlySecretaryOrAdmin() {\n        require(secretary == msg.sender || msg.sender == primary(), \"Address is not this Group's Secretary or Service Admin!\");\n        _;\n    }\n\n    /**\n     * Restrict access to Policyholder role\n     */\n    modifier onlyPolicyholder() {\n        require(policyholders[msg.sender] != 0, \"Address is not a Policyholder in this Group!\");\n        _;\n    }\n\n    ///CONSTRUCTOR///\n\n    /**\n     * Construct a new Group\n     * @param _dai the address of the Dai ERC20 contract\n     * @param _secretary the address of the secretary of this group\n     * @param _volume the number of expected claims\n     * @param _payout the number of Dai tokens to pay out per claim\n     */\n    constructor(address _dai, address _secretary, uint _volume, uint _payout) public {\n        secretary = _secretary;\n        currentPeriod = 0;\n        uint total = _volume.mul(_payout);\n        Liquidity = new LiquidityLock(total, _secretary, _dai);\n        Dai = IERC20(_dai);\n        volume = _volume;\n        payout = _payout;\n    }\n\n    ///INTERFACE MUTABLE IMPLEMENTATIONS///\n\n    function startGroup() public onlySecretary onlyLobby {\n        currentPeriod = currentPeriod.add(1);\n        origin = block.timestamp.sub(3 days);\n        setLocks(currentPeriod);\n        next = true;\n        emit Started();\n    }\n\n    function stopGroup() public onlySecretary {\n        uint periodOrigin = periodLocks[currentPeriod][0];\n        uint range = block.timestamp.sub(periodOrigin);\n        require(range > 3 days && range <= 30 days, \"Cannot stop group while transitioning periods!\");\n        next = false;\n        uint nextPeriod = currentPeriod.add(1);\n        for(uint i = 0; i < SUBPERIOD_DAYS.length; i++)\n            periodLocks[nextPeriod][i] = 0;\n        emit Stopped();\n    }\n\n    function endPeriod(uint _period) public onlySecretaryOrAdmin {\n        stripToxicSubgroups(_period);\n        payClaims(_period);\n        payRefunds(_period);\n        if(next != false) {\n            currentPeriod = currentPeriod.add(1);\n            setLocks(currentPeriod);\n        } else {\n            origin = 0;\n        }\n        emit PeriodEnded(_period);\n        if (loanMonths > 2)\n            loanMonths = loanMonths.sub(1);\n    }\n\n    function withdraw() public onlySecretary liquidityLock {\n        uint balance = Liquidity.withdraw();\n        emit LiquidityWithdrawn(balance);\n    }\n\n    function makeLoan(uint _debt, uint _months) public onlyPrimary onlyLobby {\n        require(!loaned(), \"Cannot have two loans simultaneously!\");\n        loanDebt = _debt;\n        loanMonths = _months;\n        emit Loaned(loanDebt, loanMonths);\n    }\n\n    function addPolicyholder(address _to, uint _subgroup) public onlySecretaryOrAdmin onlyLobby {\n        require(policyholders[_to] == 0, \"Policyholder already exists!\");\n        require(subgroupCounts[_subgroup] < 7, \"Subgroup is full!\");\n        \n        policyholders[_to] = _subgroup;\n        subgroupCounts[_subgroup] = subgroupCounts[_subgroup].add(1);\n        groupSize = groupSize.add(1);\n        emit PolicyholderAdded(_to);\n        if(_subgroup == subgroupIndex.add(1))\n            subgroupIndex = subgroupIndex.add(1);\n    }\n    \n    function removePolicyholder(address _from) public onlySecretary onlyLobby {\n        require(policyholders[_from] != 0, \"Policyholder does not exist!\");\n        \n        subgroupCounts[policyholders[_from]] = subgroupCounts[policyholders[_from]].sub(1);\n        policyholders[_from] = 0;\n        groupSize = groupSize.sub(1);\n        emit PolicyholderRemoved(_from);\n    }\n    \n    function changeSubgroup(address _policyholder, uint _subgroup) public onlySecretaryOrAdmin onlyLobby {\n        require(subgroupCounts[_subgroup] < 7, \"Subgroup is full!\");\n        \n        subgroupCounts[policyholders[_policyholder]] = subgroupCounts[policyholders[_policyholder]].sub(1);\n        subgroupCounts[_subgroup] = subgroupCounts[_subgroup].add(1);\n        uint old = policyholders[_policyholder];\n        policyholders[_policyholder] = _subgroup;\n        emit SubgroupChange(_policyholder, old);\n        if(_subgroup == subgroupIndex.add(1))\n            subgroupIndex = subgroupIndex.add(1);\n    }\n    \n    function makePayment(uint _period) public onlyPolicyholder allowed(_period, subperiod.PRE) {\n        require(participantToIndex[_period][msg.sender] == 0, \"Address has already paid premium as a Policyholder!\");\n        uint total = calculatePayment(msg.sender);\n        require(Dai.allowance(msg.sender, address(this)) >= total, \"Insufficient Dai allowance for Payment!\");\n        uint loan = calculateLoanPayment();\n        uint insurance = total.sub(loan);\n        Dai.transferFrom(msg.sender, address(this), insurance);\n        Dai.transferFrom(msg.sender, primary(), loan);\n        participantIndices[_period] = participantIndices[_period].add(1);\n        uint index = participantIndices[_period];\n        participants[_period][index] = msg.sender;\n        participantToIndex[_period][msg.sender] = index;\n        uint subgroup = policyholders[msg.sender];\n        subgroupParticipantIndices[_period][subgroup] = subgroupParticipantIndices[_period][subgroup].add(1);\n        emit Paid(msg.sender, _period);\n        claimPools[_period] = claimPools[_period].add(insurance);\n    }\n\n    function submitClaim(uint _period, address _claimant) public onlySecretary allowed(_period, subperiod.ACTIVE) {\n        require(claimants[_period][_claimant] == 0, \"Claimant already has an existing Claim!\");\n        \n        claimIndices[_period] = claimIndices[_period].add(1);\n        uint index = claimIndices[_period];\n        claims[_period][index] = _claimant;\n        claimants[_period][_claimant] = index;\n        emit ClaimSubmitted(_claimant, _period);\n    }\n\n    function defect(uint _period) public onlyPolicyholder allowed(_period, subperiod.POST) {\n        uint participantIndex = participantToIndex[_period][msg.sender];\n        require(participantIndex != 0, \"Only premium-paid policyholders may defect!\");\n\n        uint claimIndex = claimants[_period][msg.sender];\n        if(claimIndex != 0)\n            removeClaim(_period, claimIndex);\n        uint subgroup = policyholders[msg.sender];\n        uint subgroupSize = getSubgroupSize(subgroup);\n        defectionCounts[_period][subgroup] = defectionCounts[_period][subgroup].add(1);\n        totalDefectionCounts[_period] = totalDefectionCounts[_period].add(1);\n        if(defectionCounts[_period][subgroup] >= DEFECTION_THRESHOLD)\n            toxicSubgroups[_period][subgroup] = true;\n        uint premium = calculatePremium();\n        uint overpayment = calculateOverpayment(subgroupSize);\n        uint totalRefunded = premium.add(overpayment);\n        Dai.transfer(msg.sender, totalRefunded);\n        removeParticipant(_period, participantIndex);\n        emit Defected(msg.sender, _period);\n        claimPools[_period] = claimPools[_period].sub(totalRefunded);\n    }\n\n    ///INTERFACE VIEWABLE FUNCTIONS///\n\n    function isLobby() public view returns (bool) {\n        if (next == false) {\n            uint nextPeriod = currentPeriod.add(1);\n            if (periodLocks[nextPeriod][0] == 0)\n                return true;\n        }\n        return false;\n    }\n\n    function doNext() public view returns (bool) {\n        return next;\n    }\n\n    function getSecretary() public view returns (address) {\n        return secretary;\n    }\n\n    function getLiquidity() public view returns (address) {\n        return address(Liquidity);\n    }\n\n    function withdrawable() public view returns (bool) {\n        uint range = block.timestamp - origin;\n        uint bound = range.mod(30);\n        if (origin == 0 || bound <= 6 days)\n            return true;\n        else\n            return false;\n    }\n\n    function activePeriod() public view returns (uint) {\n        uint postLock = periodLocks[currentPeriod][2];\n        if(block.timestamp >= postLock && postLock != 0)\n            return currentPeriod.add(1);\n        else\n            return currentPeriod;\n    }\n\n    function getSubperiod(uint _period) public view returns (uint currentSubperiod) {\n        uint preLock = periodLocks[_period][0];\n        if (preLock == 0 || preLock > block.timestamp)\n            return uint(subperiod.LOBBY);\n        else {\n            for (uint i = 0; i < SUBPERIOD_DAYS.length.sub(1); i++) {\n                if(periodLocks[_period][i.add(1)] > block.timestamp)\n                    return (i.add(1));\n            }\n            return uint(subperiod.ENDED);\n        }\n    }\n\n    function loaned() public view returns (bool) {\n        return (loanDebt != 0);\n    }    \n\n    function calculatePayment(address _query) public view returns (uint) {\n        uint subgroupSize = subgroupCounts[policyholders[_query]];\n        uint premium = calculatePremium();\n        uint overpayment = calculateOverpayment(subgroupSize);\n        uint loan = calculateLoanPayment();\n        return premium.add(overpayment).add(loan);\n    }\n\n    function calculatePremium() public view returns (uint) {\n        uint total = payout.mul(volume);\n        if (groupSize < 50)\n            return total.div(50);\n        else\n            return total.div(groupSize);\n    }\n\n    function calculateOverpayment(uint _size) public view returns (uint) {\n        uint premium = calculatePremium();\n        return (premium.div(_size.sub(1)));\n    }\n\n    function calculateLoanPayment() public view returns (uint) {\n        return loanDebt.div((loanMonths.add(1)).mul(groupSize));\n    }\n\n    function calculateExpectedPayout(uint _period) public view returns (uint) {\n        uint pool = claimPools[_period];\n        uint index = claimIndices[_period];\n        if(index == 0)\n            return 0;\n        uint share = pool.div(index);\n        if (share > payout)\n            share = payout;\n        return share;\n    }\n\n    function calculateEndowment(uint _months) public view returns (uint _endowment) {\n        require(_months >= 2, \"Endowment must use two or more months to pay back Loan!\");\n\n        uint size = groupSize;\n        if (size < 50)\n            size = 50;\n        uint subgroupEstimate = 5;\n        uint premium = calculatePremium();\n        uint overpayment = calculateOverpayment(subgroupEstimate);\n        uint groupPremium = premium.mul(size);\n        uint groupOverpayment = overpayment.mul(size);\n        uint payment = groupPremium.add(groupOverpayment);\n        _endowment = payment.add(payment.div(_months.sub(1)));\n    }\n\n    function getPaidParticipantAmount(uint _period, uint _subgroup) public view \n        returns (uint _groupParticipantAmount, uint _subgroupParticipantAmount) {\n        _groupParticipantAmount = participantIndices[_period];\n        _subgroupParticipantAmount = subgroupParticipantIndices[_period][_subgroup];\n    }\n\n    function viewLoan() public view returns (uint _debt, uint _months) {\n        _debt = loanDebt;\n        _months = loanMonths;\n    }\n\n    function viewPool(uint _period) public view returns (uint _pool) {\n        return claimPools[_period];\n    }\n\n    function isPolicyholder(address _query) public view returns (uint _subgroup) {\n        return policyholders[_query];\n    }\n\n    function getSize() public view returns (uint _size) {\n        return groupSize;\n    }\n\n    function getSubgroupSize(uint _index) public view returns (uint _size) {\n        return subgroupCounts[_index];\n    }\n\n    function isParticipant(uint _period, address _query) public view returns (uint _index) {\n        return participantToIndex[_period][_query];\n    }\n\n    function activeIndex(uint _period) public view returns (uint _index) {\n        return participantIndices[_period];\n    }\n\n    function indexToParticipant(uint _period, uint _index) public view returns (address _participant) {\n        return participants[_period][_index];\n    }\n\n    function isClaimant(uint _period, address _query) public view returns (uint _index) {\n        return claimants[_period][_query];\n    }\n\n    function claimIndex(uint _period) public view returns (uint _index) {\n        return claimIndices[_period];\n    }\n\n    function indexToClaimant(uint _period, uint _index) public view returns (address _claimant) {\n        return claims[_period][_index];\n    }\n\n    //Gets defection count for a subgroup in the given period\n    function getDefectionCount(uint _period, uint _subgroup) public view returns (uint _count) {\n        return defectionCounts[_period][_subgroup];\n    }\n\n    //Gets defection count for the entire group in the given period\n    function getGroupDefectionCount(uint _period) public view returns (uint _count) {\n        return totalDefectionCounts[_period];\n    }\n\n    ///INTERNAL FUNCTIONS///\n\n    /**\n     * Set the locks for a given period based off the current block timestamp\n     * @param _period uint index of period being locked\n     */\n    function setLocks(uint _period) internal {\n        if(periodLocks[_period][0] == 0) {\n            uint periodOrigin = block.timestamp;\n            periodLocks[_period][0] = periodOrigin;\n            for(uint i = 0; i < SUBPERIOD_DAYS.length; i++) {\n                uint threshold = SUBPERIOD_DAYS[i].mul(1 days);\n                periodLocks[_period][i] = periodOrigin.add(threshold);\n            }\n        }\n        uint nextOrigin = periodLocks[_period][0].add(30 days);\n        uint nextPeriod = _period.add(1);\n        periodLocks[nextPeriod][0] = nextOrigin;\n        for(uint i = 0; i < SUBPERIOD_DAYS.length; i++) {\n            uint threshold = SUBPERIOD_DAYS[i].mul(1 days);\n            periodLocks[nextPeriod][i] = nextOrigin.add(threshold);\n        }\n    }\n\n    /**\n     * Remove any claims that were made within toxic subgroups\n     * @param _period uint index of period being remitted\n     */\n    function stripToxicSubgroups(uint _period) internal {\n        uint index = claimIndices[_period];\n        for(uint i = 1; i <= index; i++) {\n            address claimant = claims[_period][i];\n            uint subgroup = policyholders[claimant];\n            if(toxicSubgroups[_period][subgroup]) {\n                removeClaim(_period, i);\n                i.sub(1);\n                index = index.sub(1);\n                emit ClaimStripped(claimant, _period);\n            }\n        }\n    }\n\n    /**\n     * Pay out each claim according to the Dai pool\n     * @param _period uint index of period being remitted\n     */\n    function payClaims(uint _period) internal {\n        uint index = claimIndices[_period];\n        uint share = calculateExpectedPayout(_period);\n        for(uint i = 1; i <= index; i++) {\n            address claimant = claims[_period][i];\n            Dai.transfer(claimant, share);\n            claimPools[_period] = claimPools[_period].sub(share);\n            emit ClaimPaid(claimant, _period);\n        }\n    }\n    \n    /**\n     * Pay refunds to the remaining active policyholders according to the remaining Dai pool\n     * @param _period uint index of period being remitted\n     */\n    function payRefunds(uint _period) internal {\n        uint pool = claimPools[_period];\n        if(pool > 0) {\n            uint index = participantIndices[_period];\n            uint share = pool.div(index);\n            for(uint i = 1; i <= index; i++) {\n                address participant = participants[_period][i];\n                Dai.transfer(participant, share);\n                claimPools[_period] = claimPools[_period].sub(share);\n                delete participants[_period][i];\n                delete participantToIndex[_period][participant];\n            }\n        }\n    }\n\n    /**\n     * Remove a claim from a period's claim list\n     * @param _period uint index of period being mutated\n     * @param _index uint index of claim being removed in claim list\n     */\n    function removeClaim(uint _period, uint _index) internal {\n        uint maxIndex = claimIndices[_period];\n        address oldClaimant = claims[_period][_index];\n        address newClaimant = claims[_period][maxIndex];\n        claims[_period][_index] = newClaimant;\n        claimants[_period][newClaimant] = _index;\n        claimIndices[_period] = claimIndices[_period].sub(1);\n        delete claims[_period][maxIndex];\n        delete claimants[_period][oldClaimant];\n    } \n\n    /**\n     * Remove a participant from the active participant list\n     * @param _period uint index of period being mutated\n     * @param _index uint index of participant being ejected\n     */\n    function removeParticipant(uint _period, uint _index) internal {\n        uint maxIndex = participantIndices[_period];\n        address oldParticipant = participants[_period][_index];\n        address newParticipant = participants[_period][maxIndex];\n        participants[_period][_index] = newParticipant;\n        participantToIndex[_period][newParticipant] = _index;\n        participantIndices[_period] = participantIndices[_period].sub(1);\n        delete participants[_period][maxIndex];\n        delete participantToIndex[_period][oldParticipant]; \n    }\n\n}",
  "sourcePath": "C:\\Users\\Coda\\Desktop\\The Smart Contract\\TandaPay-Contracts\\contracts\\Group.sol",
  "compiler": {
    "name": "solc",
    "version": "0.5.8+commit.23d335f2.Emscripten.clang"
  },
  "schemaVersion": "3.0.16",
  "updatedAt": "2019-11-26T11:30:16.528Z",
  "devdoc": {
    "author": "blOX Consulting LLC Date: 08.26.2019 Implementation of Group Insurance Contract",
    "methods": {
      "constructor": {
        "params": {
          "_dai": "the address of the Dai ERC20 contract",
          "_payout": "the number of Dai tokens to pay out per claim",
          "_secretary": "the address of the secretary of this group",
          "_volume": "the number of expected claims"
        }
      },
      "primary()": {
        "return": "the address of the primary."
      },
      "transferPrimary(address)": {
        "details": "Transfers contract to a new primary.",
        "params": {
          "recipient": "The address of new primary."
        }
      }
    }
  },
  "userdoc": {
    "methods": {
      "constructor": "Construct a new Group",
      "isLobby()": {
        "notice": "INTERFACE VIEWABLE FUNCTIONS///"
      },
      "startGroup()": {
        "notice": "INTERFACE MUTABLE IMPLEMENTATIONS///"
      }
    }
  }
}