{
  "contractName": "LiquidityLock",
  "abi": [
    {
      "constant": false,
      "inputs": [
        {
          "name": "recipient",
          "type": "address"
        }
      ],
      "name": "transferPrimary",
      "outputs": [],
      "payable": false,
      "stateMutability": "nonpayable",
      "type": "function"
    },
    {
      "constant": true,
      "inputs": [],
      "name": "primary",
      "outputs": [
        {
          "name": "",
          "type": "address"
        }
      ],
      "payable": false,
      "stateMutability": "view",
      "type": "function"
    },
    {
      "inputs": [
        {
          "name": "_liquidity",
          "type": "uint256"
        },
        {
          "name": "_secretary",
          "type": "address"
        },
        {
          "name": "_dai",
          "type": "address"
        }
      ],
      "payable": false,
      "stateMutability": "nonpayable",
      "type": "constructor"
    },
    {
      "anonymous": false,
      "inputs": [
        {
          "indexed": false,
          "name": "recipient",
          "type": "address"
        }
      ],
      "name": "PrimaryTransferred",
      "type": "event"
    },
    {
      "constant": true,
      "inputs": [],
      "name": "liquid",
      "outputs": [
        {
          "name": "",
          "type": "bool"
        }
      ],
      "payable": false,
      "stateMutability": "view",
      "type": "function"
    },
    {
      "constant": false,
      "inputs": [],
      "name": "withdraw",
      "outputs": [
        {
          "name": "balance",
          "type": "uint256"
        }
      ],
      "payable": false,
      "stateMutability": "nonpayable",
      "type": "function"
    }
  ],
  "bytecode": "0x608060405234801561001057600080fd5b5060405160608061096a8339810180604052606081101561003057600080fd5b81019080805190602001909291908051906020019092919080519060200190929190505050336000806101000a81548173ffffffffffffffffffffffffffffffffffffffff021916908373ffffffffffffffffffffffffffffffffffffffff1602179055507f4101e71e974f68df5e9730cc223280b41654676bbb052cdcc735c3337e64d2d96000809054906101000a900473ffffffffffffffffffffffffffffffffffffffff16604051808273ffffffffffffffffffffffffffffffffffffffff1673ffffffffffffffffffffffffffffffffffffffff16815260200191505060405180910390a18260018190555081600260006101000a81548173ffffffffffffffffffffffffffffffffffffffff021916908373ffffffffffffffffffffffffffffffffffffffff16021790555080600360006101000a81548173ffffffffffffffffffffffffffffffffffffffff021916908373ffffffffffffffffffffffffffffffffffffffff1602179055505050506107b6806101b46000396000f3fe608060405234801561001057600080fd5b506004361061004c5760003560e01c80632348238c146100515780633ccfd60b14610095578063a68fee87146100b3578063c6dbdf61146100d5575b600080fd5b6100936004803603602081101561006757600080fd5b81019080803573ffffffffffffffffffffffffffffffffffffffff16906020019092919050505061011f565b005b61009d610311565b6040518082815260200191505060405180910390f35b6100bb6105f7565b604051808215151515815260200191505060405180910390f35b6100dd6106e2565b604051808273ffffffffffffffffffffffffffffffffffffffff1673ffffffffffffffffffffffffffffffffffffffff16815260200191505060405180910390f35b6000809054906101000a900473ffffffffffffffffffffffffffffffffffffffff1673ffffffffffffffffffffffffffffffffffffffff163373ffffffffffffffffffffffffffffffffffffffff16146101c4576040517f08c379a000000000000000000000000000000000000000000000000000000000815260040180806020018281038252602c81526020018061075f602c913960400191505060405180910390fd5b600073ffffffffffffffffffffffffffffffffffffffff168173ffffffffffffffffffffffffffffffffffffffff16141561024a576040517f08c379a000000000000000000000000000000000000000000000000000000000815260040180806020018281038252602a815260200180610735602a913960400191505060405180910390fd5b806000806101000a81548173ffffffffffffffffffffffffffffffffffffffff021916908373ffffffffffffffffffffffffffffffffffffffff1602179055507f4101e71e974f68df5e9730cc223280b41654676bbb052cdcc735c3337e64d2d96000809054906101000a900473ffffffffffffffffffffffffffffffffffffffff16604051808273ffffffffffffffffffffffffffffffffffffffff1673ffffffffffffffffffffffffffffffffffffffff16815260200191505060405180910390a150565b60008060009054906101000a900473ffffffffffffffffffffffffffffffffffffffff1673ffffffffffffffffffffffffffffffffffffffff163373ffffffffffffffffffffffffffffffffffffffff16146103b8576040517f08c379a000000000000000000000000000000000000000000000000000000000815260040180806020018281038252602c81526020018061075f602c913960400191505060405180910390fd5b600360009054906101000a900473ffffffffffffffffffffffffffffffffffffffff1673ffffffffffffffffffffffffffffffffffffffff166370a08231306040518263ffffffff1660e01b8152600401808273ffffffffffffffffffffffffffffffffffffffff1673ffffffffffffffffffffffffffffffffffffffff16815260200191505060206040518083038186803b15801561045757600080fd5b505afa15801561046b573d6000803e3d6000fd5b505050506040513d602081101561048157600080fd5b81019080805190602001909291905050509050600081116104ed576040517f08c379a000000000000000000000000000000000000000000000000000000000815260040180806020018281038252602981526020018061070c6029913960400191505060405180910390fd5b600360009054906101000a900473ffffffffffffffffffffffffffffffffffffffff1673ffffffffffffffffffffffffffffffffffffffff1663a9059cbb600260009054906101000a900473ffffffffffffffffffffffffffffffffffffffff16836040518363ffffffff1660e01b8152600401808373ffffffffffffffffffffffffffffffffffffffff1673ffffffffffffffffffffffffffffffffffffffff16815260200182815260200192505050602060405180830381600087803b1580156105b857600080fd5b505af11580156105cc573d6000803e3d6000fd5b505050506040513d60208110156105e257600080fd5b81019080805190602001909291905050505090565b600080600360009054906101000a900473ffffffffffffffffffffffffffffffffffffffff1673ffffffffffffffffffffffffffffffffffffffff166370a08231306040518263ffffffff1660e01b8152600401808273ffffffffffffffffffffffffffffffffffffffff1673ffffffffffffffffffffffffffffffffffffffff16815260200191505060206040518083038186803b15801561069957600080fd5b505afa1580156106ad573d6000803e3d6000fd5b505050506040513d60208110156106c357600080fd5b8101908080519060200190929190505050905060015481101591505090565b60008060009054906101000a900473ffffffffffffffffffffffffffffffffffffffff1690509056fe4e6f2044616920696e204c697175696469747920436f6e747261637420746f205769746864726177215365636f6e646172793a206e6577207072696d61727920697320746865207a65726f20616464726573735365636f6e646172793a2063616c6c6572206973206e6f7420746865207072696d617279206163636f756e74a165627a7a723058208137af3261f4da87fc4239b38ad79d1218ee3f2743938c99b0ef8857c8ac299c0029",
  "source": "pragma solidity >= 0.4.0 < 0.7.0;\r\n\r\nimport 'openzeppelin-solidity/contracts/ownership/Secondary.sol';\r\nimport 'openzeppelin-solidity/contracts/token/ERC20/IERC20.sol';\r\nimport 'openzeppelin-solidity/contracts/math/SafeMath.sol';\r\n\r\n/**\r\n * @author blOX Consulting LLC\r\n * Date: 08.09.2019\r\n * Liquidity Contract for Secretary to post stake into \r\n * Administrator remittance should always pay out secretary\r\n */\r\ncontract LiquidityLock is Secondary {\r\n\r\n    using SafeMath for uint;\r\n\r\n    uint liquidity;\r\n    address secretary;\r\n\r\n    IERC20 dai;\r\n\r\n    /**\r\n     * Construct a new Liquidity Contract\r\n     * @param _liquidity the minimum required liquidity to satisfy the contract\r\n     * @param _secretary the beneficiary address of the timelock\r\n     * @param _dai the address of the Dai ERC20 contract\r\n     */\r\n    constructor(uint _liquidity, address _secretary, address _dai) public {\r\n        liquidity = _liquidity;\r\n        secretary = _secretary;\r\n        dai = IERC20(_dai);\r\n    }\r\n\r\n    /**\r\n     * Determine if the liquidity contract is sufficienty liquid\r\n     * @return bool true if the contract's Dai balance is greater than \r\n     *         liquidity requirement defined at construction, and false otherwise\r\n     */\r\n    function liquid() public view returns (bool) {\r\n        uint balance = dai.balanceOf(address(this));\r\n        return balance >= liquidity;\r\n    }\r\n\r\n    /**\r\n     * Withdraw the current balance to the Secretary\r\n     */\r\n    function withdraw() public onlyPrimary returns (uint balance) {\r\n        balance = dai.balanceOf(address(this));\r\n        require(balance > 0, \"No Dai in Liquidity Contract to Withdraw!\");\r\n        dai.transfer(secretary, balance);\r\n    }\r\n}",
  "sourcePath": "C:\\Users\\Coda\\Desktop\\TandaPay\\contracts\\LiquidityLock.sol",
  "compiler": {
    "name": "solc",
    "version": "0.5.8+commit.23d335f2.Emscripten.clang"
  },
  "schemaVersion": "3.0.11",
  "updatedAt": "2019-09-23T11:57:58.695Z",
  "devdoc": {
    "author": "blOX Consulting LLC\r Date: 08.09.2019\r Liquidity Contract for Secretary to post stake into \r Administrator remittance should always pay out secretary\r",
    "methods": {
      "constructor": {
        "params": {
          "_dai": "the address of the Dai ERC20 contract\r",
          "_liquidity": "the minimum required liquidity to satisfy the contract\r",
          "_secretary": "the beneficiary address of the timelock\r"
        }
      },
      "liquid()": {
        "return": "bool true if the contract's Dai balance is greater than \r        liquidity requirement defined at construction, and false otherwise\r"
      },
      "primary()": {
        "return": "the address of the primary."
      },
      "transferPrimary(address)": {
        "details": "Transfers contract to a new primary.",
        "params": {
          "recipient": "The address of new primary."
        }
      }
    }
  },
  "userdoc": {
    "methods": {
      "constructor": "Construct a new Liquidity Contract\r",
      "liquid()": {
        "notice": "Determine if the liquidity contract is sufficienty liquid\r"
      },
      "withdraw()": {
        "notice": "Withdraw the current balance to the Secretary\r"
      }
    }
  }
}