{
  "contractName": "LiquidityLock",
  "abi": [
    {
      "constant": false,
      "inputs": [
        {
          "name": "recipient",
          "type": "address"
        }
      ],
      "name": "transferPrimary",
      "outputs": [],
      "payable": false,
      "stateMutability": "nonpayable",
      "type": "function"
    },
    {
      "constant": true,
      "inputs": [],
      "name": "primary",
      "outputs": [
        {
          "name": "",
          "type": "address"
        }
      ],
      "payable": false,
      "stateMutability": "view",
      "type": "function"
    },
    {
      "inputs": [
        {
          "name": "_liquidity",
          "type": "uint256"
        },
        {
          "name": "_secretary",
          "type": "address"
        },
        {
          "name": "_dai",
          "type": "address"
        }
      ],
      "payable": false,
      "stateMutability": "nonpayable",
      "type": "constructor"
    },
    {
      "anonymous": false,
      "inputs": [
        {
          "indexed": false,
          "name": "recipient",
          "type": "address"
        }
      ],
      "name": "PrimaryTransferred",
      "type": "event"
    },
    {
      "constant": true,
      "inputs": [],
      "name": "liquid",
      "outputs": [
        {
          "name": "",
          "type": "bool"
        }
      ],
      "payable": false,
      "stateMutability": "view",
      "type": "function"
    },
    {
      "constant": false,
      "inputs": [],
      "name": "withdraw",
      "outputs": [
        {
          "name": "balance",
          "type": "uint256"
        }
      ],
      "payable": false,
      "stateMutability": "nonpayable",
      "type": "function"
    }
  ],
  "bytecode": "0x608060405234801561001057600080fd5b5060405160608061056e8339810180604052606081101561003057600080fd5b508051602080830151604093840151600080546001600160a01b03191633179081905585516001600160a01b0391909116815294519394919390927f4101e71e974f68df5e9730cc223280b41654676bbb052cdcc735c3337e64d2d9928290030190a1600192909255600280546001600160a01b039283166001600160a01b0319918216179091556003805492909316911617905561049a806100d46000396000f3fe608060405234801561001057600080fd5b506004361061004c5760003560e01c80632348238c146100515780633ccfd60b14610079578063a68fee8714610093578063c6dbdf61146100af575b600080fd5b6100776004803603602081101561006757600080fd5b50356001600160a01b03166100d3565b005b6100816101c1565b60408051918252519081900360200190f35b61009b610356565b604080519115158252519081900360200190f35b6100b76103e0565b604080516001600160a01b039092168252519081900360200190f35b6000546001600160a01b0316331461011f57604051600160e51b62461bcd02815260040180806020018281038252602c815260200180610443602c913960400191505060405180910390fd5b6001600160a01b03811661016757604051600160e51b62461bcd02815260040180806020018281038252602a815260200180610419602a913960400191505060405180910390fd5b600080546001600160a01b0319166001600160a01b03838116919091179182905560408051929091168252517f4101e71e974f68df5e9730cc223280b41654676bbb052cdcc735c3337e64d2d9916020908290030190a150565b600080546001600160a01b0316331461020e57604051600160e51b62461bcd02815260040180806020018281038252602c815260200180610443602c913960400191505060405180910390fd5b60035460408051600160e01b6370a0823102815230600482015290516001600160a01b03909216916370a0823191602480820192602092909190829003018186803b15801561025c57600080fd5b505afa158015610270573d6000803e3d6000fd5b505050506040513d602081101561028657600080fd5b50519050806102c957604051600160e51b62461bcd0281526004018080602001828103825260298152602001806103f06029913960400191505060405180910390fd5b60035460025460408051600160e01b63a9059cbb0281526001600160a01b039283166004820152602481018590529051919092169163a9059cbb9160448083019260209291908290030181600087803b15801561032557600080fd5b505af1158015610339573d6000803e3d6000fd5b505050506040513d602081101561034f57600080fd5b5090919050565b60035460408051600160e01b6370a08231028152306004820152905160009283926001600160a01b03909116916370a0823191602480820192602092909190829003018186803b1580156103a957600080fd5b505afa1580156103bd573d6000803e3d6000fd5b505050506040513d60208110156103d357600080fd5b5051600154111591505090565b6000546001600160a01b03169056fe4e6f2044616920696e204c697175696469747920436f6e747261637420746f205769746864726177215365636f6e646172793a206e6577207072696d61727920697320746865207a65726f20616464726573735365636f6e646172793a2063616c6c6572206973206e6f7420746865207072696d617279206163636f756e74a165627a7a72305820b664a4429bd069555acced3ec6af7427e6111e9d2aad9d5581ab96a57983c8710029",
  "source": "pragma solidity >= 0.4.0 < 0.7.0;\r\n\r\nimport 'openzeppelin-solidity/contracts/ownership/Secondary.sol';\r\nimport 'openzeppelin-solidity/contracts/token/ERC20/IERC20.sol';\r\nimport 'openzeppelin-solidity/contracts/math/SafeMath.sol';\r\n\r\n/**\r\n * @author blOX Consulting LLC\r\n * Date: 08.26.2019\r\n * Liquidity Contract for Secretary to post stake into \r\n * Administrator remittance should always pay out secretary\r\n */\r\ncontract LiquidityLock is Secondary {\r\n\r\n    using SafeMath for uint;\r\n\r\n    uint liquidity;\r\n    address secretary;\r\n\r\n    IERC20 dai;\r\n\r\n    /**\r\n     * Construct a new Liquidity Contract\r\n     * @param _liquidity the minimum required liquidity to satisfy the contract\r\n     * @param _secretary the beneficiary address of the timelock\r\n     * @param _dai the address of the Dai ERC20 contract\r\n     */\r\n    constructor(uint _liquidity, address _secretary, address _dai) public {\r\n        liquidity = _liquidity;\r\n        secretary = _secretary;\r\n        dai = IERC20(_dai);\r\n    }\r\n\r\n    /**\r\n     * Determine if the liquidity contract is sufficienty liquid\r\n     * @return bool true if the contract's Dai balance is greater than \r\n     *         liquidity requirement defined at construction, and false otherwise\r\n     */\r\n    function liquid() public view returns (bool) {\r\n        uint balance = dai.balanceOf(address(this));\r\n        return balance >= liquidity;\r\n    }\r\n\r\n    /**\r\n     * Withdraw the current balance to the Secretary\r\n     */\r\n    function withdraw() public onlyPrimary returns (uint balance) {\r\n        balance = dai.balanceOf(address(this));\r\n        require(balance > 0, \"No Dai in Liquidity Contract to Withdraw!\");\r\n        dai.transfer(secretary, balance);\r\n    }\r\n}",
  "sourcePath": "C:\\Users\\Coda\\Desktop\\The Smart Contract\\TandaPay-Contracts\\contracts\\LiquidityLock.sol",
  "compiler": {
    "name": "solc",
    "version": "0.5.8+commit.23d335f2.Emscripten.clang"
  },
  "schemaVersion": "3.0.16",
  "updatedAt": "2019-10-29T21:50:32.978Z",
  "devdoc": {
    "author": "blOX Consulting LLC\r Date: 08.26.2019\r Liquidity Contract for Secretary to post stake into \r Administrator remittance should always pay out secretary\r",
    "methods": {
      "constructor": {
        "params": {
          "_dai": "the address of the Dai ERC20 contract\r",
          "_liquidity": "the minimum required liquidity to satisfy the contract\r",
          "_secretary": "the beneficiary address of the timelock\r"
        }
      },
      "liquid()": {
        "return": "bool true if the contract's Dai balance is greater than \r        liquidity requirement defined at construction, and false otherwise\r"
      },
      "primary()": {
        "return": "the address of the primary."
      },
      "transferPrimary(address)": {
        "details": "Transfers contract to a new primary.",
        "params": {
          "recipient": "The address of new primary."
        }
      }
    }
  },
  "userdoc": {
    "methods": {
      "constructor": "Construct a new Liquidity Contract\r",
      "liquid()": {
        "notice": "Determine if the liquidity contract is sufficienty liquid\r"
      },
      "withdraw()": {
        "notice": "Withdraw the current balance to the Secretary\r"
      }
    }
  }
}