{
  "contractName": "Service",
  "abi": [
    {
      "inputs": [
        {
          "name": "_dai",
          "type": "address"
        }
      ],
      "payable": false,
      "stateMutability": "nonpayable",
      "type": "constructor"
    },
    {
      "anonymous": false,
      "inputs": [
        {
          "indexed": false,
          "name": "_approved",
          "type": "address"
        }
      ],
      "name": "AdminApproved",
      "type": "event"
    },
    {
      "anonymous": false,
      "inputs": [
        {
          "indexed": false,
          "name": "_revoked",
          "type": "address"
        }
      ],
      "name": "AdminRevoked",
      "type": "event"
    },
    {
      "anonymous": false,
      "inputs": [
        {
          "indexed": false,
          "name": "_group",
          "type": "address"
        },
        {
          "indexed": false,
          "name": "_to",
          "type": "address"
        }
      ],
      "name": "GroupCreated",
      "type": "event"
    },
    {
      "anonymous": false,
      "inputs": [
        {
          "indexed": false,
          "name": "_group",
          "type": "address"
        },
        {
          "indexed": false,
          "name": "_period",
          "type": "uint256"
        }
      ],
      "name": "Remitted",
      "type": "event"
    },
    {
      "anonymous": false,
      "inputs": [
        {
          "indexed": false,
          "name": "_group",
          "type": "address"
        }
      ],
      "name": "Loaned",
      "type": "event"
    },
    {
      "constant": false,
      "inputs": [
        {
          "name": "_to",
          "type": "address"
        }
      ],
      "name": "addAdmin",
      "outputs": [],
      "payable": false,
      "stateMutability": "nonpayable",
      "type": "function"
    },
    {
      "constant": false,
      "inputs": [
        {
          "name": "_from",
          "type": "address"
        }
      ],
      "name": "removeAdmin",
      "outputs": [],
      "payable": false,
      "stateMutability": "nonpayable",
      "type": "function"
    },
    {
      "constant": false,
      "inputs": [
        {
          "name": "_to",
          "type": "address"
        },
        {
          "name": "_volume",
          "type": "uint256"
        },
        {
          "name": "_payout",
          "type": "uint256"
        }
      ],
      "name": "createGroup",
      "outputs": [
        {
          "name": "_group",
          "type": "address"
        }
      ],
      "payable": false,
      "stateMutability": "nonpayable",
      "type": "function"
    },
    {
      "constant": false,
      "inputs": [
        {
          "name": "_group",
          "type": "address"
        }
      ],
      "name": "remitGroup",
      "outputs": [],
      "payable": false,
      "stateMutability": "nonpayable",
      "type": "function"
    },
    {
      "constant": false,
      "inputs": [
        {
          "name": "_group",
          "type": "address"
        },
        {
          "name": "_months",
          "type": "uint256"
        }
      ],
      "name": "loan",
      "outputs": [],
      "payable": false,
      "stateMutability": "nonpayable",
      "type": "function"
    },
    {
      "constant": true,
      "inputs": [
        {
          "name": "_query",
          "type": "address"
        }
      ],
      "name": "isAdmin",
      "outputs": [
        {
          "name": "",
          "type": "bool"
        }
      ],
      "payable": false,
      "stateMutability": "view",
      "type": "function"
    },
    {
      "constant": true,
      "inputs": [
        {
          "name": "_query",
          "type": "address"
        }
      ],
      "name": "isSecretary",
      "outputs": [
        {
          "name": "_index",
          "type": "uint256"
        }
      ],
      "payable": false,
      "stateMutability": "view",
      "type": "function"
    },
    {
      "constant": true,
      "inputs": [
        {
          "name": "_index",
          "type": "uint256"
        }
      ],
      "name": "getGroup",
      "outputs": [
        {
          "name": "_group",
          "type": "address"
        }
      ],
      "payable": false,
      "stateMutability": "view",
      "type": "function"
    },
    {
      "constant": true,
      "inputs": [],
      "name": "getGroupCount",
      "outputs": [
        {
          "name": "_index",
          "type": "uint256"
        }
      ],
      "payable": false,
      "stateMutability": "view",
      "type": "function"
    }
  ],
  "bytecode": "0x608060405234801561001057600080fd5b5060405160208061448a8339810180604052602081101561003057600080fd5b50513360008181526020818152604091829020805460ff19166001179055600380546001600160a01b0386166001600160a01b0319909116179055815192835290517ffabaa80f65af32f62e52c9e7740cc469e3307d1e4afc01ab4b11be61ddef48769281900390910190a1506143de806100ac6000396000f3fe608060405234801561001057600080fd5b50600436106100935760003560e01c8063315c0d8411610066578063315c0d841461014057806351a4ac411461018e57806370480275146101b4578063bec0c2d1146101da578063ceb606541461020057610093565b806306545a93146100985780631785f53c146100b2578063185cc751146100da57806324d7806c14610106575b600080fd5b6100a061021d565b60408051918252519081900360200190f35b6100d8600480360360208110156100c857600080fd5b50356001600160a01b0316610223565b005b6100d8600480360360408110156100f057600080fd5b506001600160a01b03813516906020013561033b565b61012c6004803603602081101561011c57600080fd5b50356001600160a01b03166106d7565b604080519115158252519081900360200190f35b6101726004803603606081101561015657600080fd5b506001600160a01b0381351690602081013590604001356106f5565b604080516001600160a01b039092168252519081900360200190f35b6100a0600480360360208110156101a457600080fd5b50356001600160a01b031661087e565b6100d8600480360360208110156101ca57600080fd5b50356001600160a01b0316610899565b6100d8600480360360208110156101f057600080fd5b50356001600160a01b03166109a0565b6101726004803603602081101561021657600080fd5b5035610b12565b60045490565b3360009081526020819052604090205460ff1661027557604051600160e51b62461bcd028152600401808060200182810382526028815260200180620043676028913960400191505060405180910390fd5b6001600160a01b03811660009081526020819052604090205460ff166102e55760408051600160e51b62461bcd02815260206004820181905260248201527f41646472657373206973206e6f7420616e2041646d696e6973747261746f7221604482015290519081900360640190fd5b6001600160a01b03811660008181526020818152604091829020805460ff19169055815192835290517f631ff1c4e1a02c54b480a34b810e03bcee61fe38efcb243930a7f820914923e29281900390910190a150565b6000826001600160a01b031663981f7055836040518263ffffffff1660e01b81526004018082815260200191505060206040518083038186803b15801561038157600080fd5b505afa158015610395573d6000803e3d6000fd5b505050506040513d60208110156103ab57600080fd5b505160035460408051600160e01b6370a08231028152306004820152905192935083926001600160a01b03909216916370a0823191602480820192602092909190829003018186803b15801561040057600080fd5b505afa158015610414573d6000803e3d6000fd5b505050506040513d602081101561042a57600080fd5b505110156104825760408051600160e51b62461bcd02815260206004820152601f60248201527f496e73756666696369656e742044616920746f206d616b65204c6f616e732100604482015290519081900360640190fd5b826001600160a01b03166308ad75836040518163ffffffff1660e01b815260040160206040518083038186803b1580156104bb57600080fd5b505afa1580156104cf573d6000803e3d6000fd5b505050506040513d60208110156104e557600080fd5b50511561053c5760408051600160e51b62461bcd02815260206004820152601d60248201527f43616e6e6f74206c6f616e20746f20612067726f757020747769636521000000604482015290519081900360640190fd5b6000836001600160a01b031663f6a718316040518163ffffffff1660e01b815260040160206040518083038186803b15801561057757600080fd5b505afa15801561058b573d6000803e3d6000fd5b505050506040513d60208110156105a157600080fd5b505160035460408051600160e01b63a9059cbb0281526001600160a01b03808516600483015260248201879052915193945091169163a9059cbb916044808201926020929091908290030181600087803b1580156105fe57600080fd5b505af1158015610612573d6000803e3d6000fd5b505050506040513d602081101561062857600080fd5b505060408051600160e01b63f1833001028152600481018490526024810185905290516001600160a01b0386169163f183300191604480830192600092919082900301818387803b15801561067c57600080fd5b505af1158015610690573d6000803e3d6000fd5b5050604080516001600160a01b038816815290517f76c60893d841c00c634a33c6a439cc13221a9a6cbf42f28b0b96cff80da58aa49350908190036020019150a150505050565b6001600160a01b031660009081526020819052604090205460ff1690565b6001600160a01b0383811660009081526001602090815260408083205483526002909152812054909116156107745760408051600160e51b62461bcd02815260206004820152601f60248201527f4164647265737320697320616c72656164792061205365637265746172792100604482015290519081900360640190fd5b6003546040516000916001600160a01b03169086908690869061079690610bf1565b6001600160a01b0394851681529290931660208301526040808301919091526060820192909252905190819003608001906000f0801580156107dc573d6000803e3d6000fd5b506004549091506107f490600163ffffffff610b2d16565b6004818155600091825260026020908152604080842080546001600160a01b0319166001600160a01b038781169182179092559354908a16808652600184529482902055805192835290820192909252815192935083927fe39aa5facc1ab0c6f9442d5cac663064983c41007e4ff54800c9be350c4d2b10929181900390910190a1509392505050565b6001600160a01b031660009081526001602052604090205490565b3360009081526020819052604090205460ff166108eb57604051600160e51b62461bcd028152600401808060200182810382526028815260200180620043676028913960400191505060405180910390fd5b6001600160a01b03811660009081526020819052604090205460ff161561094757604051600160e51b62461bcd0281526004018080602001828103825260248152602001806200438f6024913960400191505060405180910390fd5b6001600160a01b03811660008181526020818152604091829020805460ff19166001179055815192835290517ffabaa80f65af32f62e52c9e7740cc469e3307d1e4afc01ab4b11be61ddef48769281900390910190a150565b3360009081526020819052604090205460ff166109f257604051600160e51b62461bcd028152600401808060200182810382526028815260200180620043676028913960400191505060405180910390fd5b6000610a6a6001836001600160a01b0316630a441f7b6040518163ffffffff1660e01b815260040160206040518083038186803b158015610a3257600080fd5b505afa158015610a46573d6000803e3d6000fd5b505050506040513d6020811015610a5c57600080fd5b50519063ffffffff610b9116565b9050816001600160a01b031663fd373a02826040518263ffffffff1660e01b815260040180828152602001915050600060405180830381600087803b158015610ab257600080fd5b505af1158015610ac6573d6000803e3d6000fd5b5050604080516001600160a01b03861681526020810185905281517f9d2193c6d30678fed5af507067ced43b4f180bc7dd52b7b042fcaefd7eae8a649450908190039091019150a15050565b6000908152600260205260409020546001600160a01b031690565b600082820183811015610b8a5760408051600160e51b62461bcd02815260206004820152601b60248201527f536166654d6174683a206164646974696f6e206f766572666c6f770000000000604482015290519081900360640190fd5b9392505050565b600082821115610beb5760408051600160e51b62461bcd02815260206004820152601e60248201527f536166654d6174683a207375627472616374696f6e206f766572666c6f770000604482015290519081900360640190fd5b50900390565b6137678062000c008339019056fe61010060405260006080908152600360a052602160c052602460e0526200002b9060159060046200021a565b503480156200003957600080fd5b5060405160808062003767833981018060405260808110156200005b57600080fd5b508051602080830151604080850151606090950151601b80546001600160a01b03191633179081905582516001600160a01b03919091168152915194959294929390927f4101e71e974f68df5e9730cc223280b41654676bbb052cdcc735c3337e64d2d99281900390910190a1600c8054610100600160a81b0319166101006001600160a01b038616021790556000601181905562000107838362000199602090811b6200247417901c565b90508084866040516200011a9062000262565b9283526001600160a01b039182166020840152166040808301919091525190819003606001906000f08015801562000156573d6000803e3d6000fd5b50601a80546001600160a01b039283166001600160a01b0319918216179091556019805497909216961695909517909455600d91909155600e5550620002909050565b600082620001aa5750600062000214565b82820282848281620001b857fe5b041462000211576040517f08c379a0000000000000000000000000000000000000000000000000000000008152600401808060200182810382526021815260200180620037466021913960400191505060405180910390fd5b90505b92915050565b826004810192821562000250579160200282015b8281111562000250578251829060ff169055916020019190600101906200022e565b506200025e92915062000270565b5090565b61056e80620031d883390190565b6200028d91905b808211156200025e576000815560010162000277565b90565b612f3880620002a06000396000f3fe608060405234801561001057600080fd5b506004361061023d5760003560e01c8063758d9b891161013b578063c6dbdf61116100b8578063f6a718311161007c578063f6a71831146105bc578063f703513d146105c4578063f97c689a146105e7578063f9b790c114610613578063fd373a02146106395761023d565b8063c6dbdf6114610564578063d0b7363f1461056c578063de8fa43114610589578063e844ea6a14610591578063f1833001146105995761023d565b80639b424009116100ff5780639b424009146104a9578063a0d8e199146104c6578063a3ba6a74146104f2578063b13e0ca514610515578063b95e7ec8146105385761023d565b8063758d9b89146104155780638a539972146104415780638bec9a7e1461045e578063981f7055146104665780639a3d3559146104835761023d565b806327e13731116101c9578063501883011161018d57806350188301146103995780635114cb52146103a157806352f7ca26146103be5780635c804476146103db5780635d7045d5146103f85761023d565b806327e137311461034357806328558ea41461036057806330f68ebb146103815780633a709d22146103895780633ccfd60b146103915761023d565b806312e152581161021057806312e15258146102c257806316020ea0146102cc57806317a50425146102f85780632348238c1461030057806323530858146103265761023d565b806308ad7583146102425780630910a5101461025e5780630a441f7b146102825780630ee85b831461029c575b600080fd5b61024a610656565b604080519115158252519081900360200190f35b61026661065f565b604080516001600160a01b039092168252519081900360200190f35b61028a61066e565b60408051918252519081900360200190f35b61028a600480360360208110156102b257600080fd5b50356001600160a01b03166106c6565b6102ca61073a565b005b61028a600480360360408110156102e257600080fd5b50803590602001356001600160a01b031661088e565b61028a6108b8565b6102ca6004803603602081101561031657600080fd5b50356001600160a01b03166108f9565b61028a6004803603602081101561033c57600080fd5b50356109e7565b61028a6004803603602081101561035957600080fd5b5035610a1c565b610368610a71565b6040805192835260208301919091528051918290030190f35b61024a610a7b565b61028a610a84565b6102ca610ad0565b61024a610c4b565b6102ca600480360360208110156103b757600080fd5b5035610c96565b61028a600480360360208110156103d457600080fd5b503561108f565b61028a600480360360208110156103f157600080fd5b5035611141565b61028a6004803603602081101561040e57600080fd5b5035611153565b61028a6004803603604081101561042b57600080fd5b50803590602001356001600160a01b0316611165565b6102ca6004803603602081101561045757600080fd5b503561118d565b61024a61146e565b61028a6004803603602081101561047c57600080fd5b50356114c5565b61028a6004803603602081101561049957600080fd5b50356001600160a01b03166115af565b61028a600480360360208110156104bf57600080fd5b50356115ca565b6102ca600480360360408110156104dc57600080fd5b50803590602001356001600160a01b03166115dc565b6102666004803603604081101561050857600080fd5b508035906020013561178e565b61028a6004803603604081101561052b57600080fd5b50803590602001356117b4565b6102ca6004803603604081101561054e57600080fd5b506001600160a01b0381351690602001356117d1565b610266611a4a565b61028a6004803603602081101561058257600080fd5b5035611a59565b61028a611a6b565b6102ca611a71565b6102ca600480360360408110156105af57600080fd5b5080359060200135611bec565b610266611d81565b610266600480360360408110156105da57600080fd5b5080359060200135611d95565b6102ca600480360360408110156105fd57600080fd5b506001600160a01b038135169060200135611dbb565b6102ca6004803603602081101561062957600080fd5b50356001600160a01b0316612065565b6102ca6004803603602081101561064f57600080fd5b5035612297565b600f5415155b90565b601a546001600160a01b031690565b60115460009081526005602090815260408083206002845290915281205442811180159061069b57508015155b156106bc576011546106b490600163ffffffff6123b716565b91505061065c565b505060115461065c565b6001600160a01b0381166000908152602081815260408083205483526001909152812054816106f3610a84565b90506000610700836109e7565b9050600061070c6108b8565b905061072e81610722858563ffffffff6123b716565b9063ffffffff6123b716565b9450505050505b919050565b600c5461010090046001600160a01b0316331461078b57604051600160e51b62461bcd028152600401808060200182810382526026815260200180612e176026913960400191505060405180910390fd5b6011546000908152600560209081526040808320838052909152812054906107b9428363ffffffff61241416565b90506203f480811180156107d0575062278d008111155b61080e57604051600160e51b62461bcd02815260040180806020018281038252602e815260200180612eb8602e913960400191505060405180910390fd5b600c805460ff1916905560115460009061082f90600163ffffffff6123b716565b905060005b600481101561085f576000828152600560209081526040808320848452909152812055600101610834565b506040517f7acc84e34091ae817647a4c49116f5cc07f319078ba80f8f5fde37ea7e25cbd690600090a1505050565b6000828152600b602090815260408083206001600160a01b03851684529091529020545b92915050565b60006108f46108e56013546108d960016010546123b790919063ffffffff16565b9063ffffffff61247416565b600f549063ffffffff6124d016565b905090565b601b546001600160a01b0316331461094557604051600160e51b62461bcd02815260040180806020018281038252602c815260200180612da4602c913960400191505060405180910390fd5b6001600160a01b03811661098d57604051600160e51b62461bcd02815260040180806020018281038252602a815260200180612d55602a913960400191505060405180910390fd5b601b80546001600160a01b0319166001600160a01b03838116919091179182905560408051929091168252517f4101e71e974f68df5e9730cc223280b41654676bbb052cdcc735c3337e64d2d9916020908290030190a150565b6000806109f2610a84565b9050610a15610a0884600163ffffffff61241416565b829063ffffffff6124d016565b9392505050565b600081815260046020908152604080832054600390925282205480610a4657600092505050610735565b6000610a58838363ffffffff6124d016565b9050600e54811115610a695750600e545b949350505050565b600f546010549091565b600c5460ff1690565b600080610a9e600d54600e5461247490919063ffffffff16565b905060326013541015610abc576106b481603263ffffffff6124d016565b6013546106b490829063ffffffff6124d016565b600c5461010090046001600160a01b03163314610b2157604051600160e51b62461bcd028152600401808060200182810382526026815260200180612e176026913960400191505060405180910390fd5b610b2961146e565b610b9c5760125442036000610b4582601e63ffffffff61253d16565b905060125460001480610b5b57506207e9008111155b610b9957604051600160e51b62461bcd028152600401808060200182810382526024815260200180612e3d6024913960400191505060405180910390fd5b50505b601a5460408051600160e01b633ccfd60b02815290516000926001600160a01b031691633ccfd60b91600480830192602092919082900301818787803b158015610be557600080fd5b505af1158015610bf9573d6000803e3d6000fd5b505050506040513d6020811015610c0f57600080fd5b50516040805182815290519192507f73ce532f480864bd2fccd1bcdbb4c8151f02cd9450c4f3e5b834ef74503abdb2919081900360200190a150565b601254600090420381610c6582601e63ffffffff61253d16565b905060125460001480610c7b57506207e9008111155b15610c8b5760019250505061065c565b60009250505061065c565b33600090815260208190526040902054610ce457604051600160e51b62461bcd02815260040180806020018281038252602c815260200180612c44602c913960400191505060405180910390fd5b80600180610cf18361108f565b14610d3057604051600160e51b62461bcd028152600401808060200182810382526024815260200180612e616024913960400191505060405180910390fd5b600083815260096020908152604080832033845290915290205415610d8957604051600160e51b62461bcd028152600401808060200182810382526033815260200180612e856033913960400191505060405180910390fd5b6000610d94336106c6565b60195460408051600160e11b636eb1769f028152336004820152306024820152905192935083926001600160a01b039092169163dd62ed3e91604480820192602092909190829003018186803b158015610ded57600080fd5b505afa158015610e01573d6000803e3d6000fd5b505050506040513d6020811015610e1757600080fd5b50511015610e5957604051600160e51b62461bcd028152600401808060200182810382526027815260200180612ee66027913960400191505060405180910390fd5b6000610e636108b8565b90506000610e77838363ffffffff61241416565b60195460408051600160e01b6323b872dd0281523360048201523060248201526044810184905290519293506001600160a01b03909116916323b872dd916064808201926020929091908290030181600087803b158015610ed757600080fd5b505af1158015610eeb573d6000803e3d6000fd5b505050506040513d6020811015610f0157600080fd5b50506019546001600160a01b03166323b872dd33610f1d611a4a565b856040518463ffffffff1660e01b815260040180846001600160a01b03166001600160a01b03168152602001836001600160a01b03166001600160a01b031681526020018281526020019350505050602060405180830381600087803b158015610f8657600080fd5b505af1158015610f9a573d6000803e3d6000fd5b505050506040513d6020811015610fb057600080fd5b5050600086815260026020526040902054610fd290600163ffffffff6123b716565b600087815260026020908152604080832084905560088252808320848452825280832080546001600160a01b031916339081179091558a845260098352818420818552835292819020849055805192835290820189905280517f737c69225d647e5994eab1a6c301bf6d9232beb2759ae1e27a8966b4732bc4899281900390910190a1600087815260046020526040902054611074908363ffffffff6123b716565b60009788526004602052604090972096909655505050505050565b60008181526005602090815260408083208380529091528120548015806110b557504281115b156110c55760005b915050610735565b60005b6110da6004600163ffffffff61241416565b811015611139576000848152600560205260408120429161110284600163ffffffff6123b716565b81526020019081526020016000205411156111315761112881600163ffffffff6123b716565b92505050610735565b6001016110c8565b5060046110bd565b60009081526003602052604090205490565b60009081526001602052604090205490565b60009182526009602090815260408084206001600160a01b0393909316845291905290205490565b336000908152602081905260409020546111db57604051600160e51b62461bcd02815260040180806020018281038252602c815260200180612c44602c913960400191505060405180910390fd5b806003806111e88361108f565b1461122757604051600160e51b62461bcd028152600401808060200182810382526024815260200180612e616024913960400191505060405180910390fd5b60008381526009602090815260408083203384529091529020548061128057604051600160e51b62461bcd02815260040180806020018281038252602b815260200180612cab602b913960400191505060405180910390fd5b6000848152600b6020908152604080832033845290915290205480156112aa576112aa85826125a5565b33600090815260208190526040812054906112c482611153565b60008881526006602090815260408083208684529091529020549091506112f290600163ffffffff6123b716565b6000888152600660209081526040808320868452909152902081905560021161133a5760008781526007602090815260408083208584529091529020805460ff191660011790555b6000611344610a84565b90506000611351836109e7565b90506000611365838363ffffffff6123b716565b60195460408051600160e01b63a9059cbb0281523360048201526024810184905290519293506001600160a01b039091169163a9059cbb916044808201926020929091908290030181600087803b1580156113bf57600080fd5b505af11580156113d3573d6000803e3d6000fd5b505050506040513d60208110156113e957600080fd5b506113f690508a88612672565b60408051338152602081018c905281517fbe14feba3e0a5568c6aef4ffe53055e7eb3ded069515fa8124c21286e42b6b5f929181900390910190a160008a815260046020526040902054611450908263ffffffff61241416565b60009a8b5260046020526040909a2099909955505050505050505050565b600c5460009060ff166114bf5760115460009061149290600163ffffffff6123b716565b60008181526005602090815260408083208380529091529020549091506114bd57600191505061065c565b505b50600090565b6000600282101561150a57604051600160e51b62461bcd028152600401808060200182810382526037815260200180612cd66037913960400191505060405180910390fd5b601354603281101561151a575060325b60056000611526610a84565b90506000611533836109e7565b90506000611547838663ffffffff61247416565b9050600061155b838763ffffffff61247416565b9050600061156f838363ffffffff6123b716565b90506115a26115956115888b600163ffffffff61241416565b839063ffffffff6124d016565b829063ffffffff6123b716565b9998505050505050505050565b6001600160a01b031660009081526020819052604090205490565b60009081526002602052604090205490565b600c5461010090046001600160a01b0316331461162d57604051600160e51b62461bcd028152600401808060200182810382526026815260200180612e176026913960400191505060405180910390fd5b8160028061163a8361108f565b1461167957604051600160e51b62461bcd028152600401808060200182810382526024815260200180612e616024913960400191505060405180910390fd5b6000848152600b602090815260408083206001600160a01b0387168452909152902054156116db57604051600160e51b62461bcd028152600401808060200182810382526027815260200180612c1d6027913960400191505060405180910390fd5b6000848152600360205260409020546116fb90600163ffffffff6123b716565b6000858152600360209081526040808320849055600a8252808320848452825280832080546001600160a01b0319166001600160a01b038916908117909155888452600b8352818420818552835292819020849055805192835290820187905280517fedb73a28656fc54b5b54d180d469da306262375b8fab1d30e7bfdfe6fa4d71a89281900390910190a15050505050565b60009182526008602090815260408084209284529190529020546001600160a01b031690565b600091825260066020908152604080842092845291905290205490565b600c5461010090046001600160a01b0316331461182257604051600160e51b62461bcd028152600401808060200182810382526026815260200180612e176026913960400191505060405180910390fd5b600c5460ff161561186757604051600160e51b62461bcd028152600401808060200182810382526027815260200180612d2e6027913960400191505060405180910390fd5b60115460009061187e90600163ffffffff6123b716565b6000818152600560209081526040808320838052909152902054909150156118da57604051600160e51b62461bcd02815260040180806020018281038252603b815260200180612c70603b913960400191505060405180910390fd5b6000828152600160205260409020546007116119375760408051600160e51b62461bcd0281526020600482015260116024820152600160781b7053756267726f75702069732066756c6c2102604482015290519081900360640190fd5b6001600160a01b0383166000908152602081815260408083205483526001918290529091205461196c9163ffffffff61241416565b6001600160a01b03841660009081526020818152604080832054835260019182905280832093909355848252919020546119ab9163ffffffff6123b716565b6000838152600160209081526040808320939093556001600160a01b038616808352828252918390208054908690558351928352908201819052825190927f3cf23ca995fdd06a40f9c394eedd3a27239c256b5383ab9bf8b7a6a4ae17f6ec928290030190a1601454611a2590600163ffffffff6123b716565b831415611a4457601454611a4090600163ffffffff6123b716565b6014555b50505050565b601b546001600160a01b031690565b60009081526004602052604090205490565b60135490565b600c5461010090046001600160a01b03163314611ac257604051600160e51b62461bcd028152600401808060200182810382526026815260200180612e176026913960400191505060405180910390fd5b600c5460ff1615611b0757604051600160e51b62461bcd028152600401808060200182810382526027815260200180612d2e6027913960400191505060405180910390fd5b601154600090611b1e90600163ffffffff6123b716565b600081815260056020908152604080832083805290915290205490915015611b7a57604051600160e51b62461bcd02815260040180806020018281038252603b815260200180612c70603b913960400191505060405180910390fd5b601154611b8e90600163ffffffff6123b716565b601155611ba4426203f48063ffffffff61241416565b601255601154611bb39061273f565b600c805460ff191660011790556040517fd8cea0ecd56872ff072e771658b5682ffe4de16d752947f79597d600ea56f7a990600090a150565b601b546001600160a01b03163314611c3857604051600160e51b62461bcd02815260040180806020018281038252602c815260200180612da4602c913960400191505060405180910390fd5b600c5460ff1615611c7d57604051600160e51b62461bcd028152600401808060200182810382526027815260200180612d2e6027913960400191505060405180910390fd5b601154600090611c9490600163ffffffff6123b716565b600081815260056020908152604080832083805290915290205490915015611cf057604051600160e51b62461bcd02815260040180806020018281038252603b815260200180612c70603b913960400191505060405180910390fd5b611cf8610656565b15611d3757604051600160e51b62461bcd028152600401808060200182810382526025815260200180612d7f6025913960400191505060405180910390fd5b600f8390556010829055604080518481526020810184905281517f57529235d42dc1daa6e5fa9e9182c6e3a6eed1db72665e80db2167b8e10504ea929181900390910190a1505050565b600c5461010090046001600160a01b031690565b6000918252600a602090815260408084209284529190529020546001600160a01b031690565b600c5461010090046001600160a01b03163314611e0c57604051600160e51b62461bcd028152600401808060200182810382526026815260200180612e176026913960400191505060405180910390fd5b600c5460ff1615611e5157604051600160e51b62461bcd028152600401808060200182810382526027815260200180612d2e6027913960400191505060405180910390fd5b601154600090611e6890600163ffffffff6123b716565b600081815260056020908152604080832083805290915290205490915015611ec457604051600160e51b62461bcd02815260040180806020018281038252603b815260200180612c70603b913960400191505060405180910390fd5b6001600160a01b03831660009081526020819052604090205415611f325760408051600160e51b62461bcd02815260206004820152601c60248201527f506f6c696379686f6c64657220616c7265616479206578697374732100000000604482015290519081900360640190fd5b600082815260016020526040902054600711611f8f5760408051600160e51b62461bcd0281526020600482015260116024820152600160781b7053756267726f75702069732066756c6c2102604482015290519081900360640190fd5b6001600160a01b03831660009081526020818152604080832085905584835260019182905290912054611fc79163ffffffff6123b716565b600083815260016020819052604090912091909155601354611fee9163ffffffff6123b716565b601355604080516001600160a01b038516815290517ffd4bbf7aab6797f9bba4fe69d15ee6bbbb91ae8aea5fd72543e6397ccf4857e19181900360200190a160145461204190600163ffffffff6123b716565b8214156120605760145461205c90600163ffffffff6123b716565b6014555b505050565b600c5461010090046001600160a01b031633146120b657604051600160e51b62461bcd028152600401808060200182810382526026815260200180612e176026913960400191505060405180910390fd5b600c5460ff16156120fb57604051600160e51b62461bcd028152600401808060200182810382526027815260200180612d2e6027913960400191505060405180910390fd5b60115460009061211290600163ffffffff6123b716565b60008181526005602090815260408083208380529091529020549091501561216e57604051600160e51b62461bcd02815260040180806020018281038252603b815260200180612c70603b913960400191505060405180910390fd5b6001600160a01b0382166000908152602081905260409020546121db5760408051600160e51b62461bcd02815260206004820152601c60248201527f506f6c696379686f6c64657220646f6573206e6f742065786973742100000000604482015290519081900360640190fd5b6001600160a01b038216600090815260208181526040808320548352600191829052909120546122109163ffffffff61241416565b6001600160a01b038316600081815260208181526040808320805484526001808452918420959095559282528190529091556013546122549163ffffffff61241416565b601355604080516001600160a01b038416815290517f958bba7b27d02e0f577e23ded3d387f0925cc5feb0e6abb66472219429e90d8c9181900360200190a15050565b600c5461010090046001600160a01b03163314806122cd57506122b8611a4a565b6001600160a01b0316336001600160a01b0316145b61230b57604051600160e51b62461bcd028152600401808060200182810382526047815260200180612dd06047913960600191505060405180910390fd5b61231481612898565b61231d81612978565b61232681612abb565b600c5460ff16156123585760115461234590600163ffffffff6123b716565b60118190556123539061273f565b61235e565b60006012555b6040805182815290517f95357e1b81128b2e56387f7f29ae51b03ce299a9784c0714c6401291f27e51749181900360200190a1600260105411156123b4576010546123b090600163ffffffff61241416565b6010555b50565b600082820183811015610a155760408051600160e51b62461bcd02815260206004820152601b60248201527f536166654d6174683a206164646974696f6e206f766572666c6f770000000000604482015290519081900360640190fd5b60008282111561246e5760408051600160e51b62461bcd02815260206004820152601e60248201527f536166654d6174683a207375627472616374696f6e206f766572666c6f770000604482015290519081900360640190fd5b50900390565b600082612483575060006108b2565b8282028284828161249057fe5b0414610a1557604051600160e51b62461bcd028152600401808060200182810382526021815260200180612d0d6021913960400191505060405180910390fd5b60008082116125295760408051600160e51b62461bcd02815260206004820152601a60248201527f536166654d6174683a206469766973696f6e206279207a65726f000000000000604482015290519081900360640190fd5b600082848161253457fe5b04949350505050565b6000816125945760408051600160e51b62461bcd02815260206004820152601860248201527f536166654d6174683a206d6f64756c6f206279207a65726f0000000000000000604482015290519081900360640190fd5b81838161259d57fe5b069392505050565b60008281526003602081815260408084208054600a845282862087875284528286208054828852848820546001600160a01b039081166001600160a01b0319831681179093558a8952600b8752858920838a5287529488208990559689905294909352549193169190612619906001612414565b600086815260036020908152604080832093909355600a815282822095825294855281812080546001600160a01b0319169055958652600b84528086206001600160a01b03939093168652919092528320929092555050565b600082815260026020818152604080842080546008845282862087875284528286208054828852848820546001600160a01b039081166001600160a01b0319831681179093558a895260098752858920838a52875294882089905596899052949093525491931691906126e6906001612414565b6000868152600260209081526040808320939093556008815282822095825294855281812080546001600160a01b0319169055958652600984528086206001600160a01b03939093168652919092528320929092555050565b60008181526005602090815260408083208380529091529020546127e257600081815260056020908152604080832083805290915281204290819055905b60048110156127df5760006127aa620151806015846004811061279c57fe5b01549063ffffffff61247416565b90506127bc838263ffffffff6123b716565b60008581526005602090815260408083208684529091529020555060010161277d565b50505b600081815260056020908152604080832083805290915281205461280f9062278d0063ffffffff6123b716565b9050600061282483600163ffffffff6123b716565b600081815260056020908152604080832083805290915281208490559091505b6004811015611a44576000612863620151806015846004811061279c57fe5b9050612875848263ffffffff6123b716565b600084815260056020908152604080832086845290915290205550600101612844565b60008181526003602052604090205460015b818111612060576000838152600a602090815260408083208484528252808320546001600160a01b0316808452838352818420548785526007845282852081865290935292205460ff161561296e5761290385846125a5565b61291483600163ffffffff61241416565b5061292684600163ffffffff61241416565b604080516001600160a01b03851681526020810188905281519296507fcee2c9f04c414aaad4b76148ff459230a81b444459806296bf03bb91435ead48929081900390910190a15b50506001016128aa565b6000818152600360205260408120549061299183610a1c565b905060015b828111611a44576000848152600a602090815260408083208484528252808320546019548251600160e01b63a9059cbb0281526001600160a01b03928316600482018190526024820189905293519395919092169363a9059cbb93604480850194929391928390030190829087803b158015612a1157600080fd5b505af1158015612a25573d6000803e3d6000fd5b505050506040513d6020811015612a3b57600080fd5b5050600085815260046020526040902054612a5c908463ffffffff61241416565b6000868152600460209081526040918290209290925580516001600160a01b038416815291820187905280517ff42cf8c29487b42c009006cba2a2a0ca0388229f3183e6e957e0a0b163585cb49281900390910190a150600101612996565b6000818152600460205260409020548015612c185760008281526002602052604081205490612af0838363ffffffff6124d016565b905060015b828111612c145760008581526008602090815260408083208484528252808320546019548251600160e01b63a9059cbb0281526001600160a01b03928316600482018190526024820189905293519395919092169363a9059cbb93604480850194929391928390030190829087803b158015612b7057600080fd5b505af1158015612b84573d6000803e3d6000fd5b505050506040513d6020811015612b9a57600080fd5b5050600086815260046020526040902054612bbb908463ffffffff61241416565b60008781526004602090815260408083209390935560088152828220858352815282822080546001600160a01b0319169055888252600981528282206001600160a01b0394909416825292909252812055600101612af5565b5050505b505056fe436c61696d616e7420616c72656164792068617320616e206578697374696e6720436c61696d2141646472657373206973206e6f74206120506f6c696379686f6c64657220696e20746869732047726f75702147726f7570206d7573742066696e697368207468652063757272656e7420706572696f64206265666f726520656e746572696e67204c6f626279214f6e6c79207072656d69756d2d7061696420706f6c696379686f6c64657273206d61792064656665637421456e646f776d656e74206d757374207573652074776f206f72206d6f7265206d6f6e74687320746f20706179206261636b204c6f616e21536166654d6174683a206d756c7469706c69636174696f6e206f766572666c6f7747726f7570206973206c6f636b656420696e2074686520277374617274656427207374617465215365636f6e646172793a206e6577207072696d61727920697320746865207a65726f206164647265737343616e6e6f7420686176652074776f206c6f616e732073696d756c74616e656f75736c79215365636f6e646172793a2063616c6c6572206973206e6f7420746865207072696d617279206163636f756e744f6e6c79205072696d617279202841646d696e206f6620536572766963652e736f6c29206f722074686520536563726574617279206d617920656e642074686520506572696f6441646472657373206973206e6f7420746869732047726f7570277320536563726574617279214c6971756964697479205374616b652069732063757272656e746c79204c6f636b656421496e636f727265637420737562706572696f6420666f72207468697320616374696f6e21416464726573732068617320616c72656164792070616964207072656d69756d206173206120506f6c696379686f6c6465722143616e6e6f742073746f702067726f7570207768696c65207472616e736974696f6e696e6720706572696f647321496e73756666696369656e742044616920616c6c6f77616e636520666f72205061796d656e7421a165627a7a72305820452926768384772903d63ae8d8e1c6a7bb983020df79135296208dbdb5d556160029608060405234801561001057600080fd5b5060405160608061056e8339810180604052606081101561003057600080fd5b508051602080830151604093840151600080546001600160a01b03191633179081905585516001600160a01b0391909116815294519394919390927f4101e71e974f68df5e9730cc223280b41654676bbb052cdcc735c3337e64d2d9928290030190a1600192909255600280546001600160a01b039283166001600160a01b0319918216179091556003805492909316911617905561049a806100d46000396000f3fe608060405234801561001057600080fd5b506004361061004c5760003560e01c80632348238c146100515780633ccfd60b14610079578063a68fee8714610093578063c6dbdf61146100af575b600080fd5b6100776004803603602081101561006757600080fd5b50356001600160a01b03166100d3565b005b6100816101c1565b60408051918252519081900360200190f35b61009b610356565b604080519115158252519081900360200190f35b6100b76103e0565b604080516001600160a01b039092168252519081900360200190f35b6000546001600160a01b0316331461011f57604051600160e51b62461bcd02815260040180806020018281038252602c815260200180610443602c913960400191505060405180910390fd5b6001600160a01b03811661016757604051600160e51b62461bcd02815260040180806020018281038252602a815260200180610419602a913960400191505060405180910390fd5b600080546001600160a01b0319166001600160a01b03838116919091179182905560408051929091168252517f4101e71e974f68df5e9730cc223280b41654676bbb052cdcc735c3337e64d2d9916020908290030190a150565b600080546001600160a01b0316331461020e57604051600160e51b62461bcd02815260040180806020018281038252602c815260200180610443602c913960400191505060405180910390fd5b60035460408051600160e01b6370a0823102815230600482015290516001600160a01b03909216916370a0823191602480820192602092909190829003018186803b15801561025c57600080fd5b505afa158015610270573d6000803e3d6000fd5b505050506040513d602081101561028657600080fd5b50519050806102c957604051600160e51b62461bcd0281526004018080602001828103825260298152602001806103f06029913960400191505060405180910390fd5b60035460025460408051600160e01b63a9059cbb0281526001600160a01b039283166004820152602481018590529051919092169163a9059cbb9160448083019260209291908290030181600087803b15801561032557600080fd5b505af1158015610339573d6000803e3d6000fd5b505050506040513d602081101561034f57600080fd5b5090919050565b60035460408051600160e01b6370a08231028152306004820152905160009283926001600160a01b03909116916370a0823191602480820192602092909190829003018186803b1580156103a957600080fd5b505afa1580156103bd573d6000803e3d6000fd5b505050506040513d60208110156103d357600080fd5b5051600154111591505090565b6000546001600160a01b03169056fe4e6f2044616920696e204c697175696469747920436f6e747261637420746f205769746864726177215365636f6e646172793a206e6577207072696d61727920697320746865207a65726f20616464726573735365636f6e646172793a2063616c6c6572206973206e6f7420746865207072696d617279206163636f756e74a165627a7a72305820b664a4429bd069555acced3ec6af7427e6111e9d2aad9d5581ab96a57983c8710029536166654d6174683a206d756c7469706c69636174696f6e206f766572666c6f7741646472657373206973206e6f7420612054616e64615061792041646d696e6973747261746f72214164647265737320697320616c726561647920616e2041646d696e6973747261746f7221a165627a7a7230582008b9a9c701edb5124f87efa0f6b68bae0e8ce08f08d786d8d0bd260c24b0a2450029",
  "source": "pragma solidity >= 0.4.0 < 0.7.0;\r\n\r\nimport './IService.sol';\r\nimport './Group.sol';\r\n\r\n/**\r\n * @author blOX Consulting LLC\r\n * Date: 08.26.2019\r\n * Implementation of Insurance Service/ Group Factory Contract\r\n */\r\ncontract Service is IService {\r\n\r\n    ///MODIFIERS///\r\n     modifier onlyAdmin() {\r\n        require(administrators[msg.sender], \"Address is not a TandaPay Administrator!\");\r\n        _;\r\n    }\r\n\r\n    ///CONSTRUCTOR///\r\n\r\n    /**\r\n     * Construct a new Insurace Service\r\n     * @param _dai address of the Dai ERC20 token\r\n     */\r\n    constructor(address _dai) public {\r\n        administrators[msg.sender] = true;\r\n        Dai = IERC20(_dai);\r\n        emit AdminApproved(msg.sender);\r\n    }\r\n\r\n    ///INTERFACE MUTABLE IMPLEMENTATION///\r\n\r\n    function addAdmin(address _to) public onlyAdmin {\r\n        require(!administrators[_to], \"Address is already an Administrator!\");\r\n        administrators[_to] = true;\r\n        emit AdminApproved(_to);\r\n    }\r\n\r\n    function removeAdmin(address _from) public onlyAdmin {\r\n        require(administrators[_from], \"Address is not an Administrator!\");\r\n        delete administrators[_from];\r\n        emit AdminRevoked(_from);\r\n    }\r\n\r\n    function createGroup(address _to, uint _volume, uint _payout) public returns (address _group) {\r\n        require(groups[secretaries[_to]] == address(0), \"Address is already a Secretary!\");\r\n        Group group = new Group(address(Dai), _to, _volume, _payout);\r\n        groupCount = groupCount.add(1);\r\n        _group = address(group);\r\n        groups[groupCount] = _group;\r\n        secretaries[_to] = groupCount;\r\n        emit GroupCreated(_group, _to);\r\n    }\r\n\r\n//    function createGroup(address _to, uint _volume, uint _payout) public onlyAdmin returns (address _group) {\r\n//         require(groups[secretaries[_to]] == address(0), \"Address is already a Secretary!\");\r\n//         Group group = new Group(address(Dai), _to, _volume, _payout);\r\n//         groupCount = groupCount.add(1);\r\n//         _group = address(group);\r\n//         groups[groupCount] = _group;\r\n//         secretaries[_to] = groupCount;\r\n//         emit GroupCreated(_group);\r\n//     }\r\n\r\n\r\n    function remitGroup(address _group) public onlyAdmin {\r\n        uint period = (Group(_group).activePeriod()).sub(1);\r\n        Group(_group).endPeriod(period);\r\n        emit Remitted(_group, period);\r\n    }\r\n\r\n    function loan(address _group, uint _months) public {\r\n        uint endowment = Group(_group).calculateEndowment(_months);\r\n        require(Dai.balanceOf(address(this)) >= endowment, \"Insufficient Dai to make Loans!\");\r\n        require(!Group(_group).loaned(), \"Cannot loan to a group twice!\");\r\n\r\n        address secretary = Group(_group).getSecretary();\r\n        Dai.transfer(secretary, endowment);\r\n        Group(_group).makeLoan(endowment, _months);\r\n        emit Loaned(_group);\r\n    }\r\n\r\n    ///INTERFACE VIEWABLE IMPLEMENTATION///\r\n\r\n    function isAdmin(address _query) public view returns (bool) {\r\n        return administrators[_query];\r\n    }\r\n\r\n    function isSecretary(address _query) public view returns (uint _index) {\r\n        return secretaries[_query];\r\n    }\r\n\r\n    function getGroup(uint _index) public view returns (address _group) {\r\n        return groups[_index];\r\n    }\r\n\r\n    function getGroupCount() public view returns (uint _index) {\r\n        return groupCount;\r\n    }\r\n}\r\n",
  "sourcePath": "C:/Users/Coda/Desktop/The Smart Contract/TandaPay-Contracts/contracts/Service.sol",
  "compiler": {
    "name": "solc",
    "version": "0.5.8+commit.23d335f2.Emscripten.clang"
  },
  "schemaVersion": "3.0.16",
  "updatedAt": "2019-11-18T07:21:46.003Z",
  "devdoc": {
    "author": "blOX Consulting LLC\r Date: 08.26.2019\r Implementation of Insurance Service/ Group Factory Contract\r",
    "methods": {
      "constructor": {
        "params": {
          "_dai": "address of the Dai ERC20 token\r"
        }
      }
    }
  },
  "userdoc": {
    "methods": {
      "addAdmin(address)": {
        "notice": "INTERFACE MUTABLE IMPLEMENTATION///"
      },
      "constructor": "Construct a new Insurace Service\r",
      "isAdmin(address)": {
        "notice": "INTERFACE VIEWABLE IMPLEMENTATION///"
      }
    }
  }
}