{
  "contractName": "Service",
  "abi": [
    {
      "inputs": [
        {
          "name": "_dai",
          "type": "address"
        }
      ],
      "payable": false,
      "stateMutability": "nonpayable",
      "type": "constructor"
    },
    {
      "anonymous": false,
      "inputs": [
        {
          "indexed": false,
          "name": "_approved",
          "type": "address"
        }
      ],
      "name": "AdminApproved",
      "type": "event"
    },
    {
      "anonymous": false,
      "inputs": [
        {
          "indexed": false,
          "name": "_revoked",
          "type": "address"
        }
      ],
      "name": "AdminRevoked",
      "type": "event"
    },
    {
      "anonymous": false,
      "inputs": [
        {
          "indexed": false,
          "name": "_group",
          "type": "address"
        }
      ],
      "name": "GroupCreated",
      "type": "event"
    },
    {
      "anonymous": false,
      "inputs": [
        {
          "indexed": false,
          "name": "_group",
          "type": "address"
        },
        {
          "indexed": false,
          "name": "_period",
          "type": "uint256"
        }
      ],
      "name": "Remitted",
      "type": "event"
    },
    {
      "anonymous": false,
      "inputs": [
        {
          "indexed": false,
          "name": "_group",
          "type": "address"
        }
      ],
      "name": "Loaned",
      "type": "event"
    },
    {
      "constant": false,
      "inputs": [
        {
          "name": "_to",
          "type": "address"
        }
      ],
      "name": "addAdmin",
      "outputs": [],
      "payable": false,
      "stateMutability": "nonpayable",
      "type": "function"
    },
    {
      "constant": false,
      "inputs": [
        {
          "name": "_from",
          "type": "address"
        }
      ],
      "name": "removeAdmin",
      "outputs": [],
      "payable": false,
      "stateMutability": "nonpayable",
      "type": "function"
    },
    {
      "constant": false,
      "inputs": [
        {
          "name": "_to",
          "type": "address"
        },
        {
          "name": "_volume",
          "type": "uint256"
        },
        {
          "name": "_payout",
          "type": "uint256"
        }
      ],
      "name": "createGroup",
      "outputs": [
        {
          "name": "_group",
          "type": "address"
        }
      ],
      "payable": false,
      "stateMutability": "nonpayable",
      "type": "function"
    },
    {
      "constant": false,
      "inputs": [
        {
          "name": "_group",
          "type": "address"
        }
      ],
      "name": "remitGroup",
      "outputs": [],
      "payable": false,
      "stateMutability": "nonpayable",
      "type": "function"
    },
    {
      "constant": false,
      "inputs": [
        {
          "name": "_group",
          "type": "address"
        },
        {
          "name": "_to",
          "type": "address"
        },
        {
          "name": "_subgroup",
          "type": "uint256"
        }
      ],
      "name": "addPolicyholderToGroup",
      "outputs": [],
      "payable": false,
      "stateMutability": "nonpayable",
      "type": "function"
    },
    {
      "constant": false,
      "inputs": [
        {
          "name": "_group",
          "type": "address"
        },
        {
          "name": "_to",
          "type": "address"
        },
        {
          "name": "_subgroup",
          "type": "uint256"
        }
      ],
      "name": "changeSubgroupInGroup",
      "outputs": [],
      "payable": false,
      "stateMutability": "nonpayable",
      "type": "function"
    },
    {
      "constant": false,
      "inputs": [
        {
          "name": "_group",
          "type": "address"
        },
        {
          "name": "_months",
          "type": "uint256"
        }
      ],
      "name": "loan",
      "outputs": [],
      "payable": false,
      "stateMutability": "nonpayable",
      "type": "function"
    },
    {
      "constant": true,
      "inputs": [
        {
          "name": "_query",
          "type": "address"
        }
      ],
      "name": "isAdmin",
      "outputs": [
        {
          "name": "",
          "type": "bool"
        }
      ],
      "payable": false,
      "stateMutability": "view",
      "type": "function"
    },
    {
      "constant": true,
      "inputs": [
        {
          "name": "_query",
          "type": "address"
        }
      ],
      "name": "isSecretary",
      "outputs": [
        {
          "name": "_index",
          "type": "uint256"
        }
      ],
      "payable": false,
      "stateMutability": "view",
      "type": "function"
    },
    {
      "constant": true,
      "inputs": [
        {
          "name": "_index",
          "type": "uint256"
        }
      ],
      "name": "getGroup",
      "outputs": [
        {
          "name": "_group",
          "type": "address"
        }
      ],
      "payable": false,
      "stateMutability": "view",
      "type": "function"
    },
    {
      "constant": true,
      "inputs": [],
      "name": "getGroupCount",
      "outputs": [
        {
          "name": "_index",
          "type": "uint256"
        }
      ],
      "payable": false,
      "stateMutability": "view",
      "type": "function"
    }
  ],
  "bytecode": "0x608060405234801561001057600080fd5b506040516020806148828339810180604052602081101561003057600080fd5b50513360008181526020818152604091829020805460ff19166001179055600380546001600160a01b0386166001600160a01b0319909116179055815192835290517ffabaa80f65af32f62e52c9e7740cc469e3307d1e4afc01ab4b11be61ddef48769281900390910190a1506147d6806100ac6000396000f3fe60806040523480156200001157600080fd5b5060043610620000b85760003560e01c806351a4ac41116200007b57806351a4ac4114620001c15780637048027514620001ea578063adde2fb01462000213578063bec0c2d1146200024c578063c67a77411462000275578063ceb6065414620002ae57620000b8565b806306545a9314620000bd5780631785f53c14620000d9578063185cc751146200010457806324d7806c1462000133578063315c0d841462000170575b600080fd5b620000c7620002ce565b60408051918252519081900360200190f35b6200010260048036036020811015620000f157600080fd5b50356001600160a01b0316620002d4565b005b62000102600480360360408110156200011c57600080fd5b506001600160a01b038135169060200135620003ee565b6200015c600480360360208110156200014b57600080fd5b50356001600160a01b03166200079d565b604080519115158252519081900360200190f35b620001a5600480360360608110156200018857600080fd5b506001600160a01b038135169060208101359060400135620007bb565b604080516001600160a01b039092168252519081900360200190f35b620000c760048036036020811015620001d957600080fd5b50356001600160a01b031662000996565b62000102600480360360208110156200020257600080fd5b50356001600160a01b0316620009b1565b62000102600480360360608110156200022b57600080fd5b506001600160a01b0381358116916020810135909116906040013562000aba565b62000102600480360360208110156200026457600080fd5b50356001600160a01b031662000b8c565b62000102600480360360608110156200028d57600080fd5b506001600160a01b0381358116916020810135909116906040013562000d06565b620001a560048036036020811015620002c657600080fd5b503562000dba565b60045490565b3360009081526020819052604090205460ff166200032757604051600160e51b62461bcd0281526004018080602001828103825260288152602001806200475f6028913960400191505060405180910390fd5b6001600160a01b03811660009081526020819052604090205460ff16620003985760408051600160e51b62461bcd02815260206004820181905260248201527f41646472657373206973206e6f7420616e2041646d696e6973747261746f7221604482015290519081900360640190fd5b6001600160a01b03811660008181526020818152604091829020805460ff19169055815192835290517f631ff1c4e1a02c54b480a34b810e03bcee61fe38efcb243930a7f820914923e29281900390910190a150565b6000826001600160a01b031663981f7055836040518263ffffffff1660e01b81526004018082815260200191505060206040518083038186803b1580156200043557600080fd5b505afa1580156200044a573d6000803e3d6000fd5b505050506040513d60208110156200046157600080fd5b505160035460408051600160e01b6370a08231028152306004820152905192935083926001600160a01b03909216916370a0823191602480820192602092909190829003018186803b158015620004b757600080fd5b505afa158015620004cc573d6000803e3d6000fd5b505050506040513d6020811015620004e357600080fd5b505110156200053c5760408051600160e51b62461bcd02815260206004820152601f60248201527f496e73756666696369656e742044616920746f206d616b65204c6f616e732100604482015290519081900360640190fd5b826001600160a01b03166308ad75836040518163ffffffff1660e01b815260040160206040518083038186803b1580156200057657600080fd5b505afa1580156200058b573d6000803e3d6000fd5b505050506040513d6020811015620005a257600080fd5b505115620005fa5760408051600160e51b62461bcd02815260206004820152601d60248201527f43616e6e6f74206c6f616e20746f20612067726f757020747769636521000000604482015290519081900360640190fd5b6000836001600160a01b031663f6a718316040518163ffffffff1660e01b815260040160206040518083038186803b1580156200063657600080fd5b505afa1580156200064b573d6000803e3d6000fd5b505050506040513d60208110156200066257600080fd5b505160035460408051600160e01b63a9059cbb0281526001600160a01b03808516600483015260248201879052915193945091169163a9059cbb916044808201926020929091908290030181600087803b158015620006c057600080fd5b505af1158015620006d5573d6000803e3d6000fd5b505050506040513d6020811015620006ec57600080fd5b505060408051600160e01b63f1833001028152600481018490526024810185905290516001600160a01b0386169163f183300191604480830192600092919082900301818387803b1580156200074157600080fd5b505af115801562000756573d6000803e3d6000fd5b5050604080516001600160a01b038816815290517f76c60893d841c00c634a33c6a439cc13221a9a6cbf42f28b0b96cff80da58aa49350908190036020019150a150505050565b6001600160a01b031660009081526020819052604090205460ff1690565b3360009081526020819052604081205460ff166200080e57604051600160e51b62461bcd0281526004018080602001828103825260288152602001806200475f6028913960400191505060405180910390fd5b6001600160a01b038481166000908152600160209081526040808320548352600290915290205416156200088c5760408051600160e51b62461bcd02815260206004820152601f60248201527f4164647265737320697320616c72656164792061205365637265746172792100604482015290519081900360640190fd5b6003546040516000916001600160a01b031690869086908690620008b09062000e9b565b6001600160a01b0394851681529290931660208301526040808301919091526060820192909252905190819003608001906000f080158015620008f7573d6000803e3d6000fd5b506004549091506200091190600163ffffffff62000dd516565b6004818155600091825260026020908152604080842080546001600160a01b0319166001600160a01b038781169182179092559354908a1685526001835293819020939093558251918252915192935083927f1f2fa2c893637aefd4d8cd79504d6c14b955233bcd2e89aece337594793ecb2e929181900390910190a1509392505050565b6001600160a01b031660009081526001602052604090205490565b3360009081526020819052604090205460ff1662000a0457604051600160e51b62461bcd0281526004018080602001828103825260288152602001806200475f6028913960400191505060405180910390fd5b6001600160a01b03811660009081526020819052604090205460ff161562000a6157604051600160e51b62461bcd028152600401808060200182810382526024815260200180620047876024913960400191505060405180910390fd5b6001600160a01b03811660008181526020818152604091829020805460ff19166001179055815192835290517ffabaa80f65af32f62e52c9e7740cc469e3307d1e4afc01ab4b11be61ddef48769281900390910190a150565b3360009081526020819052604090205460ff1662000b0d57604051600160e51b62461bcd0281526004018080602001828103825260288152602001806200475f6028913960400191505060405180910390fd5b826001600160a01b031663f97c689a83836040518363ffffffff1660e01b815260040180836001600160a01b03166001600160a01b0316815260200182815260200192505050600060405180830381600087803b15801562000b6e57600080fd5b505af115801562000b83573d6000803e3d6000fd5b50505050505050565b3360009081526020819052604090205460ff1662000bdf57604051600160e51b62461bcd0281526004018080602001828103825260288152602001806200475f6028913960400191505060405180910390fd5b600062000c5c6001836001600160a01b0316630a441f7b6040518163ffffffff1660e01b815260040160206040518083038186803b15801562000c2157600080fd5b505afa15801562000c36573d6000803e3d6000fd5b505050506040513d602081101562000c4d57600080fd5b50519063ffffffff62000e3a16565b9050816001600160a01b031663fd373a02826040518263ffffffff1660e01b815260040180828152602001915050600060405180830381600087803b15801562000ca557600080fd5b505af115801562000cba573d6000803e3d6000fd5b5050604080516001600160a01b03861681526020810185905281517f9d2193c6d30678fed5af507067ced43b4f180bc7dd52b7b042fcaefd7eae8a649450908190039091019150a15050565b3360009081526020819052604090205460ff1662000d5957604051600160e51b62461bcd0281526004018080602001828103825260288152602001806200475f6028913960400191505060405180910390fd5b826001600160a01b031663b95e7ec883836040518363ffffffff1660e01b815260040180836001600160a01b03166001600160a01b0316815260200182815260200192505050600060405180830381600087803b15801562000b6e57600080fd5b6000908152600260205260409020546001600160a01b031690565b60008282018381101562000e335760408051600160e51b62461bcd02815260206004820152601b60248201527f536166654d6174683a206164646974696f6e206f766572666c6f770000000000604482015290519081900360640190fd5b9392505050565b60008282111562000e955760408051600160e51b62461bcd02815260206004820152601e60248201527f536166654d6174683a207375627472616374696f6e206f766572666c6f770000604482015290519081900360640190fd5b50900390565b6138b58062000eaa8339019056fe61010060405260006080908152600360a052602160c052602460e0526200002b9060179060046200021a565b503480156200003957600080fd5b50604051608080620038b5833981018060405260808110156200005b57600080fd5b508051602080830151604080850151606090950151601d80546001600160a01b03191633179081905582516001600160a01b03919091168152915194959294929390927f4101e71e974f68df5e9730cc223280b41654676bbb052cdcc735c3337e64d2d99281900390910190a1600e8054610100600160a81b0319166101006001600160a01b038616021790556000601381905562000107838362000199602090811b620025d217901c565b90508084866040516200011a9062000262565b9283526001600160a01b039182166020840152166040808301919091525190819003606001906000f08015801562000156573d6000803e3d6000fd5b50601c80546001600160a01b039283166001600160a01b031991821617909155601b805497909216961695909517909455600f9190915560105550620002909050565b600082620001aa5750600062000214565b82820282848281620001b857fe5b041462000211576040517f08c379a0000000000000000000000000000000000000000000000000000000008152600401808060200182810382526021815260200180620038946021913960400191505060405180910390fd5b90505b92915050565b826004810192821562000250579160200282015b8281111562000250578251829060ff169055916020019190600101906200022e565b506200025e92915062000270565b5090565b61056e806200332683390190565b6200028d91905b808211156200025e576000815560010162000277565b90565b61308680620002a06000396000f3fe608060405234801561001057600080fd5b50600436106102535760003560e01c80638a53997211610146578063c6dbdf61116100c3578063f183300111610087578063f1833001146105ef578063f6a7183114610612578063f703513d1461061a578063f97c689a1461063d578063f9b790c114610669578063fd373a021461068f57610253565b8063c6dbdf611461059d578063d0b7363f146105a5578063de8fa431146105c2578063e7c1e280146105ca578063e844ea6a146105e757610253565b8063a0d8e1991161010a578063a0d8e199146104dc578063a3ba6a7414610508578063abc5648e1461052b578063b13e0ca51461054e578063b95e7ec81461057157610253565b80638a539972146104575780638bec9a7e14610474578063981f70551461047c5780639a3d3559146104995780639b424009146104bf57610253565b806328558ea4116101d45780635114cb52116101985780635114cb52146103b757806352f7ca26146103d45780635c804476146103f15780635d7045d51461040e578063758d9b891461042b57610253565b806328558ea41461037657806330f68ebb146103975780633a709d221461039f5780633ccfd60b146103a757806350188301146103af57610253565b806316020ea01161021b57806316020ea0146102e257806317a504251461030e5780632348238c14610316578063235308581461033c57806327e137311461035957610253565b806308ad7583146102585780630910a510146102745780630a441f7b146102985780630ee85b83146102b257806312e15258146102d8575b600080fd5b6102606106ac565b604080519115158252519081900360200190f35b61027c6106b5565b604080516001600160a01b039092168252519081900360200190f35b6102a06106c4565b60408051918252519081900360200190f35b6102a0600480360360208110156102c857600080fd5b50356001600160a01b031661071c565b6102e0610790565b005b6102a0600480360360408110156102f857600080fd5b50803590602001356001600160a01b03166108e4565b6102a061090e565b6102e06004803603602081101561032c57600080fd5b50356001600160a01b031661094f565b6102a06004803603602081101561035257600080fd5b5035610a3d565b6102a06004803603602081101561036f57600080fd5b5035610a72565b61037e610ac7565b6040805192835260208301919091528051918290030190f35b610260610ad1565b6102a0610ada565b6102e0610b26565b610260610ca1565b6102e0600480360360208110156103cd57600080fd5b5035610cec565b6102a0600480360360208110156103ea57600080fd5b503561112f565b6102a06004803603602081101561040757600080fd5b50356111e1565b6102a06004803603602081101561042457600080fd5b50356111f3565b6102a06004803603604081101561044157600080fd5b50803590602001356001600160a01b0316611205565b6102e06004803603602081101561046d57600080fd5b503561122d565b61026061154c565b6102a06004803603602081101561049257600080fd5b50356115a3565b6102a0600480360360208110156104af57600080fd5b50356001600160a01b031661168d565b6102a0600480360360208110156104d557600080fd5b50356116a8565b6102e0600480360360408110156104f257600080fd5b50803590602001356001600160a01b03166116ba565b61027c6004803603604081101561051e57600080fd5b508035906020013561186c565b61037e6004803603604081101561054157600080fd5b5080359060200135611892565b6102a06004803603604081101561056457600080fd5b50803590602001356118ba565b6102e06004803603604081101561058757600080fd5b506001600160a01b0381351690602001356118d7565b61027c611b73565b6102a0600480360360208110156105bb57600080fd5b5035611b82565b6102a0611b94565b6102a0600480360360208110156105e057600080fd5b5035611b9a565b6102e0611bac565b6102e06004803603604081101561060557600080fd5b5080359060200135611d27565b61027c611ebc565b61027c6004803603604081101561063057600080fd5b5080359060200135611ed0565b6102e06004803603604081101561065357600080fd5b506001600160a01b038135169060200135611ef6565b6102e06004803603602081101561067f57600080fd5b50356001600160a01b03166121c3565b6102e0600480360360208110156106a557600080fd5b50356123f5565b60115415155b90565b601c546001600160a01b031690565b6013546000908152600660209081526040808320600284529091528120544281118015906106f157508015155b156107125760135461070a90600163ffffffff61251516565b9150506106b2565b50506013546106b2565b6001600160a01b038116600090815260208181526040808320548352600190915281205481610749610ada565b9050600061075683610a3d565b9050600061076261090e565b905061078481610778858563ffffffff61251516565b9063ffffffff61251516565b9450505050505b919050565b600e5461010090046001600160a01b031633146107e157604051600160e51b62461bcd028152600401808060200182810382526026815260200180612f656026913960400191505060405180910390fd5b60135460009081526006602090815260408083208380529091528120549061080f428363ffffffff61257216565b90506203f48081118015610826575062278d008111155b61086457604051600160e51b62461bcd02815260040180806020018281038252602e815260200180613006602e913960400191505060405180910390fd5b600e805460ff1916905560135460009061088590600163ffffffff61251516565b905060005b60048110156108b557600082815260066020908152604080832084845290915281205560010161088a565b506040517f7acc84e34091ae817647a4c49116f5cc07f319078ba80f8f5fde37ea7e25cbd690600090a1505050565b6000828152600d602090815260408083206001600160a01b03851684529091529020545b92915050565b600061094a61093b60155461092f600160125461251590919063ffffffff16565b9063ffffffff6125d216565b6011549063ffffffff61262e16565b905090565b601d546001600160a01b0316331461099b57604051600160e51b62461bcd02815260040180806020018281038252602c815260200180612f39602c913960400191505060405180910390fd5b6001600160a01b0381166109e357604051600160e51b62461bcd02815260040180806020018281038252602a815260200180612eea602a913960400191505060405180910390fd5b601d80546001600160a01b0319166001600160a01b03838116919091179182905560408051929091168252517f4101e71e974f68df5e9730cc223280b41654676bbb052cdcc735c3337e64d2d9916020908290030190a150565b600080610a48610ada565b9050610a6b610a5e84600163ffffffff61257216565b829063ffffffff61262e16565b9392505050565b600081815260046020908152604080832054600390925282205480610a9c5760009250505061078b565b6000610aae838363ffffffff61262e16565b9050601054811115610abf57506010545b949350505050565b6011546012549091565b600e5460ff1690565b600080610af4600f546010546125d290919063ffffffff16565b905060326015541015610b125761070a81603263ffffffff61262e16565b60155461070a90829063ffffffff61262e16565b600e5461010090046001600160a01b03163314610b7757604051600160e51b62461bcd028152600401808060200182810382526026815260200180612f656026913960400191505060405180910390fd5b610b7f61154c565b610bf25760145442036000610b9b82601e63ffffffff61269b16565b905060145460001480610bb157506207e9008111155b610bef57604051600160e51b62461bcd028152600401808060200182810382526024815260200180612f8b6024913960400191505060405180910390fd5b50505b601c5460408051600160e01b633ccfd60b02815290516000926001600160a01b031691633ccfd60b91600480830192602092919082900301818787803b158015610c3b57600080fd5b505af1158015610c4f573d6000803e3d6000fd5b505050506040513d6020811015610c6557600080fd5b50516040805182815290519192507f73ce532f480864bd2fccd1bcdbb4c8151f02cd9450c4f3e5b834ef74503abdb2919081900360200190a150565b601454600090420381610cbb82601e63ffffffff61269b16565b905060145460001480610cd157506207e9008111155b15610ce1576001925050506106b2565b6000925050506106b2565b33600090815260208190526040902054610d3a57604051600160e51b62461bcd02815260040180806020018281038252602c815260200180612dd9602c913960400191505060405180910390fd5b80600180610d478361112f565b14610d8657604051600160e51b62461bcd028152600401808060200182810382526024815260200180612faf6024913960400191505060405180910390fd5b6000838152600b6020908152604080832033845290915290205415610ddf57604051600160e51b62461bcd028152600401808060200182810382526033815260200180612fd36033913960400191505060405180910390fd5b6000610dea3361071c565b601b5460408051600160e11b636eb1769f028152336004820152306024820152905192935083926001600160a01b039092169163dd62ed3e91604480820192602092909190829003018186803b158015610e4357600080fd5b505afa158015610e57573d6000803e3d6000fd5b505050506040513d6020811015610e6d57600080fd5b50511015610eaf57604051600160e51b62461bcd0281526004018080602001828103825260278152602001806130346027913960400191505060405180910390fd5b6000610eb961090e565b90506000610ecd838363ffffffff61257216565b601b5460408051600160e01b6323b872dd0281523360048201523060248201526044810184905290519293506001600160a01b03909116916323b872dd916064808201926020929091908290030181600087803b158015610f2d57600080fd5b505af1158015610f41573d6000803e3d6000fd5b505050506040513d6020811015610f5757600080fd5b5050601b546001600160a01b03166323b872dd33610f73611b73565b856040518463ffffffff1660e01b815260040180846001600160a01b03166001600160a01b03168152602001836001600160a01b03166001600160a01b031681526020018281526020019350505050602060405180830381600087803b158015610fdc57600080fd5b505af1158015610ff0573d6000803e3d6000fd5b505050506040513d602081101561100657600080fd5b505060008681526002602052604090205461102890600163ffffffff61251516565b6000878152600260209081526040808320849055600a8252808320848452825280832080546001600160a01b031916339081179091558a8452600b83528184209084528252808320849055828252808320548a8452600883528184208185529092529091205461109f90600163ffffffff61251516565b60008981526008602090815260408083208584528252918290209290925580513381529182018a905280517f737c69225d647e5994eab1a6c301bf6d9232beb2759ae1e27a8966b4732bc4899281900390910190a1600088815260046020526040902054611113908463ffffffff61251516565b6000988952600460205260409098209790975550505050505050565b600081815260066020908152604080832083805290915281205480158061115557504281115b156111655760005b91505061078b565b60005b61117a6004600163ffffffff61257216565b8110156111d957600084815260066020526040812042916111a284600163ffffffff61251516565b81526020019081526020016000205411156111d1576111c881600163ffffffff61251516565b9250505061078b565b600101611168565b50600461115d565b60009081526003602052604090205490565b60009081526001602052604090205490565b6000918252600b602090815260408084206001600160a01b0393909316845291905290205490565b3360009081526020819052604090205461127b57604051600160e51b62461bcd02815260040180806020018281038252602c815260200180612dd9602c913960400191505060405180910390fd5b806003806112888361112f565b146112c757604051600160e51b62461bcd028152600401808060200182810382526024815260200180612faf6024913960400191505060405180910390fd5b6000838152600b602090815260408083203384529091529020548061132057604051600160e51b62461bcd02815260040180806020018281038252602b815260200180612e40602b913960400191505060405180910390fd5b6000848152600d60209081526040808320338452909152902054801561134a5761134a8582612703565b3360009081526020819052604081205490611364826111f3565b600088815260076020908152604080832086845290915290205490915061139290600163ffffffff61251516565b60008881526007602090815260408083208684528252808320939093558982526005905220546113c990600163ffffffff61251516565b60008881526005602090815260408083209390935560078152828220858352905220546002116114185760008781526009602090815260408083208584529091529020805460ff191660011790555b6000611422610ada565b9050600061142f83610a3d565b90506000611443838363ffffffff61251516565b601b5460408051600160e01b63a9059cbb0281523360048201526024810184905290519293506001600160a01b039091169163a9059cbb916044808201926020929091908290030181600087803b15801561149d57600080fd5b505af11580156114b1573d6000803e3d6000fd5b505050506040513d60208110156114c757600080fd5b506114d490508a886127d0565b60408051338152602081018c905281517fbe14feba3e0a5568c6aef4ffe53055e7eb3ded069515fa8124c21286e42b6b5f929181900390910190a160008a81526004602052604090205461152e908263ffffffff61257216565b60009a8b5260046020526040909a2099909955505050505050505050565b600e5460009060ff1661159d5760135460009061157090600163ffffffff61251516565b600081815260066020908152604080832083805290915290205490915061159b5760019150506106b2565b505b50600090565b600060028210156115e857604051600160e51b62461bcd028152600401808060200182810382526037815260200180612e6b6037913960400191505060405180910390fd5b60155460328110156115f8575060325b60056000611604610ada565b9050600061161183610a3d565b90506000611625838663ffffffff6125d216565b90506000611639838763ffffffff6125d216565b9050600061164d838363ffffffff61251516565b90506116806116736116668b600163ffffffff61257216565b839063ffffffff61262e16565b829063ffffffff61251516565b9998505050505050505050565b6001600160a01b031660009081526020819052604090205490565b60009081526002602052604090205490565b600e5461010090046001600160a01b0316331461170b57604051600160e51b62461bcd028152600401808060200182810382526026815260200180612f656026913960400191505060405180910390fd5b816002806117188361112f565b1461175757604051600160e51b62461bcd028152600401808060200182810382526024815260200180612faf6024913960400191505060405180910390fd5b6000848152600d602090815260408083206001600160a01b0387168452909152902054156117b957604051600160e51b62461bcd028152600401808060200182810382526027815260200180612d7b6027913960400191505060405180910390fd5b6000848152600360205260409020546117d990600163ffffffff61251516565b6000858152600360209081526040808320849055600c8252808320848452825280832080546001600160a01b0319166001600160a01b038916908117909155888452600d8352818420818552835292819020849055805192835290820187905280517fedb73a28656fc54b5b54d180d469da306262375b8fab1d30e7bfdfe6fa4d71a89281900390910190a15050505050565b6000918252600a602090815260408084209284529190529020546001600160a01b031690565b6000918252600260209081526040808420546008835281852093855292909152909120549091565b600091825260076020908152604080842092845291905290205490565b600e5461010090046001600160a01b031633148061190d57506118f8611b73565b6001600160a01b0316336001600160a01b0316145b61194b57604051600160e51b62461bcd028152600401808060200182810382526037815260200180612da26037913960400191505060405180910390fd5b600e5460ff161561199057604051600160e51b62461bcd028152600401808060200182810382526027815260200180612ec36027913960400191505060405180910390fd5b6013546000906119a790600163ffffffff61251516565b600081815260066020908152604080832083805290915290205490915015611a0357604051600160e51b62461bcd02815260040180806020018281038252603b815260200180612e05603b913960400191505060405180910390fd5b600082815260016020526040902054600711611a605760408051600160e51b62461bcd0281526020600482015260116024820152600160781b7053756267726f75702069732066756c6c2102604482015290519081900360640190fd5b6001600160a01b03831660009081526020818152604080832054835260019182905290912054611a959163ffffffff61257216565b6001600160a01b0384166000908152602081815260408083205483526001918290528083209390935584825291902054611ad49163ffffffff61251516565b6000838152600160209081526040808320939093556001600160a01b038616808352828252918390208054908690558351928352908201819052825190927f3cf23ca995fdd06a40f9c394eedd3a27239c256b5383ab9bf8b7a6a4ae17f6ec928290030190a1601654611b4e90600163ffffffff61251516565b831415611b6d57601654611b6990600163ffffffff61251516565b6016555b50505050565b601d546001600160a01b031690565b60009081526004602052604090205490565b60155490565b60009081526005602052604090205490565b600e5461010090046001600160a01b03163314611bfd57604051600160e51b62461bcd028152600401808060200182810382526026815260200180612f656026913960400191505060405180910390fd5b600e5460ff1615611c4257604051600160e51b62461bcd028152600401808060200182810382526027815260200180612ec36027913960400191505060405180910390fd5b601354600090611c5990600163ffffffff61251516565b600081815260066020908152604080832083805290915290205490915015611cb557604051600160e51b62461bcd02815260040180806020018281038252603b815260200180612e05603b913960400191505060405180910390fd5b601354611cc990600163ffffffff61251516565b601355611cdf426203f48063ffffffff61257216565b601455601354611cee9061289d565b600e805460ff191660011790556040517fd8cea0ecd56872ff072e771658b5682ffe4de16d752947f79597d600ea56f7a990600090a150565b601d546001600160a01b03163314611d7357604051600160e51b62461bcd02815260040180806020018281038252602c815260200180612f39602c913960400191505060405180910390fd5b600e5460ff1615611db857604051600160e51b62461bcd028152600401808060200182810382526027815260200180612ec36027913960400191505060405180910390fd5b601354600090611dcf90600163ffffffff61251516565b600081815260066020908152604080832083805290915290205490915015611e2b57604051600160e51b62461bcd02815260040180806020018281038252603b815260200180612e05603b913960400191505060405180910390fd5b611e336106ac565b15611e7257604051600160e51b62461bcd028152600401808060200182810382526025815260200180612f146025913960400191505060405180910390fd5b60118390556012829055604080518481526020810184905281517f57529235d42dc1daa6e5fa9e9182c6e3a6eed1db72665e80db2167b8e10504ea929181900390910190a1505050565b600e5461010090046001600160a01b031690565b6000918252600c602090815260408084209284529190529020546001600160a01b031690565b600e5461010090046001600160a01b0316331480611f2c5750611f17611b73565b6001600160a01b0316336001600160a01b0316145b611f6a57604051600160e51b62461bcd028152600401808060200182810382526037815260200180612da26037913960400191505060405180910390fd5b600e5460ff1615611faf57604051600160e51b62461bcd028152600401808060200182810382526027815260200180612ec36027913960400191505060405180910390fd5b601354600090611fc690600163ffffffff61251516565b60008181526006602090815260408083208380529091529020549091501561202257604051600160e51b62461bcd02815260040180806020018281038252603b815260200180612e05603b913960400191505060405180910390fd5b6001600160a01b038316600090815260208190526040902054156120905760408051600160e51b62461bcd02815260206004820152601c60248201527f506f6c696379686f6c64657220616c7265616479206578697374732100000000604482015290519081900360640190fd5b6000828152600160205260409020546007116120ed5760408051600160e51b62461bcd0281526020600482015260116024820152600160781b7053756267726f75702069732066756c6c2102604482015290519081900360640190fd5b6001600160a01b038316600090815260208181526040808320859055848352600191829052909120546121259163ffffffff61251516565b60008381526001602081905260409091209190915560155461214c9163ffffffff61251516565b601555604080516001600160a01b038516815290517ffd4bbf7aab6797f9bba4fe69d15ee6bbbb91ae8aea5fd72543e6397ccf4857e19181900360200190a160165461219f90600163ffffffff61251516565b8214156121be576016546121ba90600163ffffffff61251516565b6016555b505050565b600e5461010090046001600160a01b0316331461221457604051600160e51b62461bcd028152600401808060200182810382526026815260200180612f656026913960400191505060405180910390fd5b600e5460ff161561225957604051600160e51b62461bcd028152600401808060200182810382526027815260200180612ec36027913960400191505060405180910390fd5b60135460009061227090600163ffffffff61251516565b6000818152600660209081526040808320838052909152902054909150156122cc57604051600160e51b62461bcd02815260040180806020018281038252603b815260200180612e05603b913960400191505060405180910390fd5b6001600160a01b0382166000908152602081905260409020546123395760408051600160e51b62461bcd02815260206004820152601c60248201527f506f6c696379686f6c64657220646f6573206e6f742065786973742100000000604482015290519081900360640190fd5b6001600160a01b0382166000908152602081815260408083205483526001918290529091205461236e9163ffffffff61257216565b6001600160a01b038316600081815260208181526040808320805484526001808452918420959095559282528190529091556015546123b29163ffffffff61257216565b601555604080516001600160a01b038416815290517f958bba7b27d02e0f577e23ded3d387f0925cc5feb0e6abb66472219429e90d8c9181900360200190a15050565b600e5461010090046001600160a01b031633148061242b5750612416611b73565b6001600160a01b0316336001600160a01b0316145b61246957604051600160e51b62461bcd028152600401808060200182810382526037815260200180612da26037913960400191505060405180910390fd5b612472816129f6565b61247b81612ad6565b61248481612c19565b600e5460ff16156124b6576013546124a390600163ffffffff61251516565b60138190556124b19061289d565b6124bc565b60006014555b6040805182815290517f95357e1b81128b2e56387f7f29ae51b03ce299a9784c0714c6401291f27e51749181900360200190a1600260125411156125125760125461250e90600163ffffffff61257216565b6012555b50565b600082820183811015610a6b5760408051600160e51b62461bcd02815260206004820152601b60248201527f536166654d6174683a206164646974696f6e206f766572666c6f770000000000604482015290519081900360640190fd5b6000828211156125cc5760408051600160e51b62461bcd02815260206004820152601e60248201527f536166654d6174683a207375627472616374696f6e206f766572666c6f770000604482015290519081900360640190fd5b50900390565b6000826125e157506000610908565b828202828482816125ee57fe5b0414610a6b57604051600160e51b62461bcd028152600401808060200182810382526021815260200180612ea26021913960400191505060405180910390fd5b60008082116126875760408051600160e51b62461bcd02815260206004820152601a60248201527f536166654d6174683a206469766973696f6e206279207a65726f000000000000604482015290519081900360640190fd5b600082848161269257fe5b04949350505050565b6000816126f25760408051600160e51b62461bcd02815260206004820152601860248201527f536166654d6174683a206d6f64756c6f206279207a65726f0000000000000000604482015290519081900360640190fd5b8183816126fb57fe5b069392505050565b60008281526003602081815260408084208054600c845282862087875284528286208054828852848820546001600160a01b039081166001600160a01b0319831681179093558a8952600d8752858920838a5287529488208990559689905294909352549193169190612777906001612572565b600086815260036020908152604080832093909355600c815282822095825294855281812080546001600160a01b0319169055958652600d84528086206001600160a01b03939093168652919092528320929092555050565b60008281526002602081815260408084208054600a845282862087875284528286208054828852848820546001600160a01b039081166001600160a01b0319831681179093558a8952600b8752858920838a5287529488208990559689905294909352549193169190612844906001612572565b600086815260026020908152604080832093909355600a815282822095825294855281812080546001600160a01b0319169055958652600b84528086206001600160a01b03939093168652919092528320929092555050565b600081815260066020908152604080832083805290915290205461294057600081815260066020908152604080832083805290915281204290819055905b600481101561293d57600061290862015180601784600481106128fa57fe5b01549063ffffffff6125d216565b905061291a838263ffffffff61251516565b6000858152600660209081526040808320868452909152902055506001016128db565b50505b600081815260066020908152604080832083805290915281205461296d9062278d0063ffffffff61251516565b9050600061298283600163ffffffff61251516565b600081815260066020908152604080832083805290915281208490559091505b6004811015611b6d5760006129c162015180601784600481106128fa57fe5b90506129d3848263ffffffff61251516565b6000848152600660209081526040808320868452909152902055506001016129a2565b60008181526003602052604090205460015b8181116121be576000838152600c602090815260408083208484528252808320546001600160a01b0316808452838352818420548785526009845282852081865290935292205460ff1615612acc57612a618584612703565b612a7283600163ffffffff61257216565b50612a8484600163ffffffff61257216565b604080516001600160a01b03851681526020810188905281519296507fcee2c9f04c414aaad4b76148ff459230a81b444459806296bf03bb91435ead48929081900390910190a15b5050600101612a08565b60008181526003602052604081205490612aef83610a72565b905060015b828111611b6d576000848152600c60209081526040808320848452825280832054601b548251600160e01b63a9059cbb0281526001600160a01b03928316600482018190526024820189905293519395919092169363a9059cbb93604480850194929391928390030190829087803b158015612b6f57600080fd5b505af1158015612b83573d6000803e3d6000fd5b505050506040513d6020811015612b9957600080fd5b5050600085815260046020526040902054612bba908463ffffffff61257216565b6000868152600460209081526040918290209290925580516001600160a01b038416815291820187905280517ff42cf8c29487b42c009006cba2a2a0ca0388229f3183e6e957e0a0b163585cb49281900390910190a150600101612af4565b6000818152600460205260409020548015612d765760008281526002602052604081205490612c4e838363ffffffff61262e16565b905060015b828111612d72576000858152600a60209081526040808320848452825280832054601b548251600160e01b63a9059cbb0281526001600160a01b03928316600482018190526024820189905293519395919092169363a9059cbb93604480850194929391928390030190829087803b158015612cce57600080fd5b505af1158015612ce2573d6000803e3d6000fd5b505050506040513d6020811015612cf857600080fd5b5050600086815260046020526040902054612d19908463ffffffff61257216565b600087815260046020908152604080832093909355600a8152828220858352815282822080546001600160a01b0319169055888252600b81528282206001600160a01b0394909416825292909252812055600101612c53565b5050505b505056fe436c61696d616e7420616c72656164792068617320616e206578697374696e6720436c61696d2141646472657373206973206e6f7420746869732047726f7570277320536563726574617279206f7220536572766963652041646d696e2141646472657373206973206e6f74206120506f6c696379686f6c64657220696e20746869732047726f75702147726f7570206d7573742066696e697368207468652063757272656e7420706572696f64206265666f726520656e746572696e67204c6f626279214f6e6c79207072656d69756d2d7061696420706f6c696379686f6c64657273206d61792064656665637421456e646f776d656e74206d757374207573652074776f206f72206d6f7265206d6f6e74687320746f20706179206261636b204c6f616e21536166654d6174683a206d756c7469706c69636174696f6e206f766572666c6f7747726f7570206973206c6f636b656420696e2074686520277374617274656427207374617465215365636f6e646172793a206e6577207072696d61727920697320746865207a65726f206164647265737343616e6e6f7420686176652074776f206c6f616e732073696d756c74616e656f75736c79215365636f6e646172793a2063616c6c6572206973206e6f7420746865207072696d617279206163636f756e7441646472657373206973206e6f7420746869732047726f7570277320536563726574617279214c6971756964697479205374616b652069732063757272656e746c79204c6f636b656421496e636f727265637420737562706572696f6420666f72207468697320616374696f6e21416464726573732068617320616c72656164792070616964207072656d69756d206173206120506f6c696379686f6c6465722143616e6e6f742073746f702067726f7570207768696c65207472616e736974696f6e696e6720706572696f647321496e73756666696369656e742044616920616c6c6f77616e636520666f72205061796d656e7421a165627a7a72305820f22f286b32ac39eb326500a04d37f146bcc4303cae1f5c8a7146bcdd9f6d82860029608060405234801561001057600080fd5b5060405160608061056e8339810180604052606081101561003057600080fd5b508051602080830151604093840151600080546001600160a01b03191633179081905585516001600160a01b0391909116815294519394919390927f4101e71e974f68df5e9730cc223280b41654676bbb052cdcc735c3337e64d2d9928290030190a1600192909255600280546001600160a01b039283166001600160a01b0319918216179091556003805492909316911617905561049a806100d46000396000f3fe608060405234801561001057600080fd5b506004361061004c5760003560e01c80632348238c146100515780633ccfd60b14610079578063a68fee8714610093578063c6dbdf61146100af575b600080fd5b6100776004803603602081101561006757600080fd5b50356001600160a01b03166100d3565b005b6100816101c1565b60408051918252519081900360200190f35b61009b610356565b604080519115158252519081900360200190f35b6100b76103e0565b604080516001600160a01b039092168252519081900360200190f35b6000546001600160a01b0316331461011f57604051600160e51b62461bcd02815260040180806020018281038252602c815260200180610443602c913960400191505060405180910390fd5b6001600160a01b03811661016757604051600160e51b62461bcd02815260040180806020018281038252602a815260200180610419602a913960400191505060405180910390fd5b600080546001600160a01b0319166001600160a01b03838116919091179182905560408051929091168252517f4101e71e974f68df5e9730cc223280b41654676bbb052cdcc735c3337e64d2d9916020908290030190a150565b600080546001600160a01b0316331461020e57604051600160e51b62461bcd02815260040180806020018281038252602c815260200180610443602c913960400191505060405180910390fd5b60035460408051600160e01b6370a0823102815230600482015290516001600160a01b03909216916370a0823191602480820192602092909190829003018186803b15801561025c57600080fd5b505afa158015610270573d6000803e3d6000fd5b505050506040513d602081101561028657600080fd5b50519050806102c957604051600160e51b62461bcd0281526004018080602001828103825260298152602001806103f06029913960400191505060405180910390fd5b60035460025460408051600160e01b63a9059cbb0281526001600160a01b039283166004820152602481018590529051919092169163a9059cbb9160448083019260209291908290030181600087803b15801561032557600080fd5b505af1158015610339573d6000803e3d6000fd5b505050506040513d602081101561034f57600080fd5b5090919050565b60035460408051600160e01b6370a08231028152306004820152905160009283926001600160a01b03909116916370a0823191602480820192602092909190829003018186803b1580156103a957600080fd5b505afa1580156103bd573d6000803e3d6000fd5b505050506040513d60208110156103d357600080fd5b5051600154111591505090565b6000546001600160a01b03169056fe4e6f2044616920696e204c697175696469747920436f6e747261637420746f205769746864726177215365636f6e646172793a206e6577207072696d61727920697320746865207a65726f20616464726573735365636f6e646172793a2063616c6c6572206973206e6f7420746865207072696d617279206163636f756e74a165627a7a72305820d051eb438d4b394a4b37a8d47fbab06eb69b743d0057ae472aa9e98f0c63fd3b0029536166654d6174683a206d756c7469706c69636174696f6e206f766572666c6f7741646472657373206973206e6f7420612054616e64615061792041646d696e6973747261746f72214164647265737320697320616c726561647920616e2041646d696e6973747261746f7221a165627a7a72305820c7e0abbc1ec9d0f79813cf4ec86354c8a27f5f25c3ab1a4ff9566643384a7d0e0029",
  "source": "pragma solidity >= 0.4.0 < 0.7.0;\n\nimport './IService.sol';\nimport './Group.sol';\n\n/**\n * @author blOX Consulting LLC\n * Date: 08.26.2019\n * Implementation of Insurance Service/ Group Factory Contract\n */\ncontract Service is IService {\n\n    ///MODIFIERS///\n     modifier onlyAdmin() {\n        require(administrators[msg.sender], \"Address is not a TandaPay Administrator!\");\n        _;\n    }\n\n    ///CONSTRUCTOR///\n    \n    /**\n     * Construct a new Insurace Service\n     * @param _dai address of the Dai ERC20 token\n     */\n    constructor(address _dai) public {\n        administrators[msg.sender] = true;\n        Dai = IERC20(_dai);\n        emit AdminApproved(msg.sender);\n    }\n\n    ///INTERFACE MUTABLE IMPLEMENTATION///\n\n    function addAdmin(address _to) public onlyAdmin {\n        require(!administrators[_to], \"Address is already an Administrator!\");\n        administrators[_to] = true;\n        emit AdminApproved(_to);\n    }\n\n    function removeAdmin(address _from) public onlyAdmin {\n        require(administrators[_from], \"Address is not an Administrator!\");\n        delete administrators[_from];\n        emit AdminRevoked(_from);\n    }\n\n    function createGroup(address _to, uint _volume, uint _payout) public onlyAdmin returns (address _group) {\n        require(groups[secretaries[_to]] == address(0), \"Address is already a Secretary!\");\n        Group group = new Group(address(Dai), _to, _volume, _payout);\n        groupCount = groupCount.add(1);\n        _group = address(group);\n        groups[groupCount] = _group;\n        secretaries[_to] = groupCount;\n        emit GroupCreated(_group);\n    }\n\n    function remitGroup(address _group) public onlyAdmin {\n        uint period = (Group(_group).activePeriod()).sub(1);\n        Group(_group).endPeriod(period);\n        emit Remitted(_group, period);\n    }\n\n    function addPolicyholderToGroup(address _group, address _to, uint _subgroup) public onlyAdmin {\n        Group(_group).addPolicyholder(_to, _subgroup);\n    }\n\n    function changeSubgroupInGroup(address _group, address _to, uint _subgroup) public onlyAdmin {\n        Group(_group).changeSubgroup(_to, _subgroup);\n    }\n\n    function loan(address _group, uint _months) public {\n        uint endowment = Group(_group).calculateEndowment(_months);\n        require(Dai.balanceOf(address(this)) >= endowment, \"Insufficient Dai to make Loans!\");\n        require(!Group(_group).loaned(), \"Cannot loan to a group twice!\");\n\n        address secretary = Group(_group).getSecretary();\n        Dai.transfer(secretary, endowment);\n        Group(_group).makeLoan(endowment, _months);\n        emit Loaned(_group);\n    }\n\n    ///INTERFACE VIEWABLE IMPLEMENTATION///\n\n    function isAdmin(address _query) public view returns (bool) {\n        return administrators[_query];\n    }\n\n    function isSecretary(address _query) public view returns (uint _index) {\n        return secretaries[_query];\n    }\n\n    function getGroup(uint _index) public view returns (address _group) {\n        return groups[_index];\n    }\n\n    function getGroupCount() public view returns (uint _index) {\n        return groupCount;\n    }\n}",
  "sourcePath": "C:/Users/Coda/Desktop/The Smart Contract/TandaPay-Contracts/contracts/Service.sol",
  "compiler": {
    "name": "solc",
    "version": "0.5.8+commit.23d335f2.Emscripten.clang"
  },
  "schemaVersion": "3.0.16",
  "updatedAt": "2019-11-26T11:30:11.491Z",
  "devdoc": {
    "author": "blOX Consulting LLC Date: 08.26.2019 Implementation of Insurance Service/ Group Factory Contract",
    "methods": {
      "constructor": {
        "params": {
          "_dai": "address of the Dai ERC20 token"
        }
      }
    }
  },
  "userdoc": {
    "methods": {
      "addAdmin(address)": {
        "notice": "INTERFACE MUTABLE IMPLEMENTATION///"
      },
      "constructor": "Construct a new Insurace Service",
      "isAdmin(address)": {
        "notice": "INTERFACE VIEWABLE IMPLEMENTATION///"
      }
    }
  }
}