{
  "contractName": "Service",
  "abi": [
    {
      "inputs": [
        {
          "name": "_dai",
          "type": "address"
        }
      ],
      "payable": false,
      "stateMutability": "nonpayable",
      "type": "constructor"
    },
    {
      "anonymous": false,
      "inputs": [
        {
          "indexed": false,
          "name": "_approved",
          "type": "address"
        }
      ],
      "name": "AdminApproved",
      "type": "event"
    },
    {
      "anonymous": false,
      "inputs": [
        {
          "indexed": false,
          "name": "_revoked",
          "type": "address"
        }
      ],
      "name": "AdminRevoked",
      "type": "event"
    },
    {
      "anonymous": false,
      "inputs": [
        {
          "indexed": false,
          "name": "_group",
          "type": "address"
        }
      ],
      "name": "GroupCreated",
      "type": "event"
    },
    {
      "anonymous": false,
      "inputs": [
        {
          "indexed": false,
          "name": "_group",
          "type": "address"
        },
        {
          "indexed": false,
          "name": "_period",
          "type": "uint256"
        }
      ],
      "name": "Remitted",
      "type": "event"
    },
    {
      "anonymous": false,
      "inputs": [
        {
          "indexed": false,
          "name": "_group",
          "type": "address"
        }
      ],
      "name": "Loaned",
      "type": "event"
    },
    {
      "constant": false,
      "inputs": [
        {
          "name": "_to",
          "type": "address"
        }
      ],
      "name": "addAdmin",
      "outputs": [],
      "payable": false,
      "stateMutability": "nonpayable",
      "type": "function"
    },
    {
      "constant": false,
      "inputs": [
        {
          "name": "_from",
          "type": "address"
        }
      ],
      "name": "removeAdmin",
      "outputs": [],
      "payable": false,
      "stateMutability": "nonpayable",
      "type": "function"
    },
    {
      "constant": false,
      "inputs": [
        {
          "name": "_to",
          "type": "address"
        },
        {
          "name": "_volume",
          "type": "uint256"
        },
        {
          "name": "_payout",
          "type": "uint256"
        }
      ],
      "name": "createGroup",
      "outputs": [
        {
          "name": "_group",
          "type": "address"
        }
      ],
      "payable": false,
      "stateMutability": "nonpayable",
      "type": "function"
    },
    {
      "constant": false,
      "inputs": [
        {
          "name": "_group",
          "type": "address"
        }
      ],
      "name": "remitGroup",
      "outputs": [],
      "payable": false,
      "stateMutability": "nonpayable",
      "type": "function"
    },
    {
      "constant": false,
      "inputs": [
        {
          "name": "_group",
          "type": "address"
        },
        {
          "name": "_months",
          "type": "uint256"
        }
      ],
      "name": "loan",
      "outputs": [],
      "payable": false,
      "stateMutability": "nonpayable",
      "type": "function"
    }
  ],
  "bytecode": "0x608060405234801561001057600080fd5b506040516020806167d88339810180604052602081101561003057600080fd5b810190808051906020019092919050505060016000803373ffffffffffffffffffffffffffffffffffffffff1673ffffffffffffffffffffffffffffffffffffffff16815260200190815260200160002060006101000a81548160ff02191690831515021790555080600360006101000a81548173ffffffffffffffffffffffffffffffffffffffff021916908373ffffffffffffffffffffffffffffffffffffffff1602179055507ffabaa80f65af32f62e52c9e7740cc469e3307d1e4afc01ab4b11be61ddef487633604051808273ffffffffffffffffffffffffffffffffffffffff1673ffffffffffffffffffffffffffffffffffffffff16815260200191505060405180910390a15061668c8061014c6000396000f3fe60806040523480156200001157600080fd5b50600436106200005e5760003560e01c80631785f53c1462000063578063185cc75114620000aa578063315c0d8414620000fb578063704802751462000196578063bec0c2d114620001dd575b600080fd5b620000a8600480360360208110156200007b57600080fd5b81019080803573ffffffffffffffffffffffffffffffffffffffff16906020019092919050505062000224565b005b620000f960048036036040811015620000c257600080fd5b81019080803573ffffffffffffffffffffffffffffffffffffffff169060200190929190803590602001909291905050506200043a565b005b62000154600480360360608110156200011357600080fd5b81019080803573ffffffffffffffffffffffffffffffffffffffff16906020019092919080359060200190929190803590602001909291905050506200097d565b604051808273ffffffffffffffffffffffffffffffffffffffff1673ffffffffffffffffffffffffffffffffffffffff16815260200191505060405180910390f35b620001db60048036036020811015620001ae57600080fd5b81019080803573ffffffffffffffffffffffffffffffffffffffff16906020019092919050505062000d2a565b005b6200022260048036036020811015620001f557600080fd5b81019080803573ffffffffffffffffffffffffffffffffffffffff16906020019092919050505062000f2e565b005b6000803373ffffffffffffffffffffffffffffffffffffffff1673ffffffffffffffffffffffffffffffffffffffff16815260200190815260200160002060009054906101000a900460ff16620002c7576040517f08c379a0000000000000000000000000000000000000000000000000000000008152600401808060200182810382526028815260200180620065f46028913960400191505060405180910390fd5b6000808273ffffffffffffffffffffffffffffffffffffffff1673ffffffffffffffffffffffffffffffffffffffff16815260200190815260200160002060009054906101000a900460ff1662000386576040517f08c379a00000000000000000000000000000000000000000000000000000000081526004018080602001828103825260208152602001807f41646472657373206973206e6f7420616e2041646d696e6973747261746f722181525060200191505060405180910390fd5b6000808273ffffffffffffffffffffffffffffffffffffffff1673ffffffffffffffffffffffffffffffffffffffff16815260200190815260200160002060006101000a81549060ff02191690557f631ff1c4e1a02c54b480a34b810e03bcee61fe38efcb243930a7f820914923e281604051808273ffffffffffffffffffffffffffffffffffffffff1673ffffffffffffffffffffffffffffffffffffffff16815260200191505060405180910390a150565b60008273ffffffffffffffffffffffffffffffffffffffff1663e8a65d776040518163ffffffff1660e01b815260040160206040518083038186803b1580156200048357600080fd5b505afa15801562000498573d6000803e3d6000fd5b505050506040513d6020811015620004af57600080fd5b81019080805190602001909291905050509050620004d86002826200114a90919063ffffffff16565b600360009054906101000a900473ffffffffffffffffffffffffffffffffffffffff1673ffffffffffffffffffffffffffffffffffffffff166370a08231306040518263ffffffff1660e01b8152600401808273ffffffffffffffffffffffffffffffffffffffff1673ffffffffffffffffffffffffffffffffffffffff16815260200191505060206040518083038186803b1580156200057857600080fd5b505afa1580156200058d573d6000803e3d6000fd5b505050506040513d6020811015620005a457600080fd5b810190808051906020019092919050505010156200062a576040517f08c379a000000000000000000000000000000000000000000000000000000000815260040180806020018281038252601f8152602001807f496e73756666696369656e742044616920746f206d616b65204c6f616e73210081525060200191505060405180910390fd5b8273ffffffffffffffffffffffffffffffffffffffff166308ad75836040518163ffffffff1660e01b815260040160206040518083038186803b1580156200067157600080fd5b505afa15801562000686573d6000803e3d6000fd5b505050506040513d60208110156200069d57600080fd5b81019080805190602001909291905050501562000722576040517f08c379a000000000000000000000000000000000000000000000000000000000815260040180806020018281038252601d8152602001807f43616e6e6f74206c6f616e20746f20612067726f75702074776963652100000081525060200191505060405180910390fd5b60008373ffffffffffffffffffffffffffffffffffffffff1663f6a718316040518163ffffffff1660e01b815260040160206040518083038186803b1580156200076b57600080fd5b505afa15801562000780573d6000803e3d6000fd5b505050506040513d60208110156200079757600080fd5b81019080805190602001909291905050509050600360009054906101000a900473ffffffffffffffffffffffffffffffffffffffff1673ffffffffffffffffffffffffffffffffffffffff1663a9059cbb82620007ff6002866200114a90919063ffffffff16565b6040518363ffffffff1660e01b8152600401808373ffffffffffffffffffffffffffffffffffffffff1673ffffffffffffffffffffffffffffffffffffffff16815260200182815260200192505050602060405180830381600087803b1580156200086957600080fd5b505af11580156200087e573d6000803e3d6000fd5b505050506040513d60208110156200089557600080fd5b8101908080519060200190929190505050508373ffffffffffffffffffffffffffffffffffffffff166340e6f8c2846040518263ffffffff1660e01b815260040180828152602001915050600060405180830381600087803b158015620008fb57600080fd5b505af115801562000910573d6000803e3d6000fd5b505050507f76c60893d841c00c634a33c6a439cc13221a9a6cbf42f28b0b96cff80da58aa484604051808273ffffffffffffffffffffffffffffffffffffffff1673ffffffffffffffffffffffffffffffffffffffff16815260200191505060405180910390a150505050565b60008060003373ffffffffffffffffffffffffffffffffffffffff1673ffffffffffffffffffffffffffffffffffffffff16815260200190815260200160002060009054906101000a900460ff1662000a22576040517f08c379a0000000000000000000000000000000000000000000000000000000008152600401808060200182810382526028815260200180620065f46028913960400191505060405180910390fd5b600073ffffffffffffffffffffffffffffffffffffffff1660026000600160008873ffffffffffffffffffffffffffffffffffffffff1673ffffffffffffffffffffffffffffffffffffffff16815260200190815260200160002054815260200190815260200160002060009054906101000a900473ffffffffffffffffffffffffffffffffffffffff1673ffffffffffffffffffffffffffffffffffffffff161462000b37576040517f08c379a000000000000000000000000000000000000000000000000000000000815260040180806020018281038252601f8152602001807f4164647265737320697320616c7265616479206120536563726574617279210081525060200191505060405180910390fd5b6000600360009054906101000a900473ffffffffffffffffffffffffffffffffffffffff1685858560405162000b6d90620012e8565b808573ffffffffffffffffffffffffffffffffffffffff1673ffffffffffffffffffffffffffffffffffffffff1681526020018473ffffffffffffffffffffffffffffffffffffffff1673ffffffffffffffffffffffffffffffffffffffff168152602001838152602001828152602001945050505050604051809103906000f08015801562000c01573d6000803e3d6000fd5b50905062000c1c6001600454620011d590919063ffffffff16565b6004819055508091508160026000600454815260200190815260200160002060006101000a81548173ffffffffffffffffffffffffffffffffffffffff021916908373ffffffffffffffffffffffffffffffffffffffff160217905550600454600160008773ffffffffffffffffffffffffffffffffffffffff1673ffffffffffffffffffffffffffffffffffffffff168152602001908152602001600020819055507f1f2fa2c893637aefd4d8cd79504d6c14b955233bcd2e89aece337594793ecb2e82604051808273ffffffffffffffffffffffffffffffffffffffff1673ffffffffffffffffffffffffffffffffffffffff16815260200191505060405180910390a1509392505050565b6000803373ffffffffffffffffffffffffffffffffffffffff1673ffffffffffffffffffffffffffffffffffffffff16815260200190815260200160002060009054906101000a900460ff1662000dcd576040517f08c379a0000000000000000000000000000000000000000000000000000000008152600401808060200182810382526028815260200180620065f46028913960400191505060405180910390fd5b6000808273ffffffffffffffffffffffffffffffffffffffff1673ffffffffffffffffffffffffffffffffffffffff16815260200190815260200160002060009054906101000a900460ff161562000e71576040517f08c379a00000000000000000000000000000000000000000000000000000000081526004018080602001828103825260248152602001806200663d6024913960400191505060405180910390fd5b60016000808373ffffffffffffffffffffffffffffffffffffffff1673ffffffffffffffffffffffffffffffffffffffff16815260200190815260200160002060006101000a81548160ff0219169083151502179055507ffabaa80f65af32f62e52c9e7740cc469e3307d1e4afc01ab4b11be61ddef487681604051808273ffffffffffffffffffffffffffffffffffffffff1673ffffffffffffffffffffffffffffffffffffffff16815260200191505060405180910390a150565b6000803373ffffffffffffffffffffffffffffffffffffffff1673ffffffffffffffffffffffffffffffffffffffff16815260200190815260200160002060009054906101000a900460ff1662000fd1576040517f08c379a0000000000000000000000000000000000000000000000000000000008152600401808060200182810382526028815260200180620065f46028913960400191505060405180910390fd5b60006200106c60018373ffffffffffffffffffffffffffffffffffffffff16630a441f7b6040518163ffffffff1660e01b815260040160206040518083038186803b1580156200102057600080fd5b505afa15801562001035573d6000803e3d6000fd5b505050506040513d60208110156200104c57600080fd5b81019080805190602001909291905050506200125e90919063ffffffff16565b90508173ffffffffffffffffffffffffffffffffffffffff1663fd373a02826040518263ffffffff1660e01b815260040180828152602001915050600060405180830381600087803b158015620010c257600080fd5b505af1158015620010d7573d6000803e3d6000fd5b505050507f9d2193c6d30678fed5af507067ced43b4f180bc7dd52b7b042fcaefd7eae8a648282604051808373ffffffffffffffffffffffffffffffffffffffff1673ffffffffffffffffffffffffffffffffffffffff1681526020018281526020019250505060405180910390a15050565b6000808314156200115f5760009050620011cf565b60008284029050828482816200117157fe5b0414620011ca576040517f08c379a00000000000000000000000000000000000000000000000000000000081526004018080602001828103825260218152602001806200661c6021913960400191505060405180910390fd5b809150505b92915050565b60008082840190508381101562001254576040517f08c379a000000000000000000000000000000000000000000000000000000000815260040180806020018281038252601b8152602001807f536166654d6174683a206164646974696f6e206f766572666c6f77000000000081525060200191505060405180910390fd5b8091505092915050565b600082821115620012d7576040517f08c379a000000000000000000000000000000000000000000000000000000000815260040180806020018281038252601e8152602001807f536166654d6174683a207375627472616374696f6e206f766572666c6f77000081525060200191505060405180910390fd5b600082840390508091505092915050565b6152fd80620012f78339019056fe60806040526040518060800160405280600060ff168152602001600360ff168152602001602160ff168152602001602460ff1681525060159060046200004792919062000370565b503480156200005557600080fd5b50604051608080620052fd833981018060405260808110156200007757600080fd5b810190808051906020019092919080519060200190929190805190602001909291908051906020019092919050505033601b60006101000a81548173ffffffffffffffffffffffffffffffffffffffff021916908373ffffffffffffffffffffffffffffffffffffffff1602179055507f4101e71e974f68df5e9730cc223280b41654676bbb052cdcc735c3337e64d2d9601b60009054906101000a900473ffffffffffffffffffffffffffffffffffffffff16604051808273ffffffffffffffffffffffffffffffffffffffff1673ffffffffffffffffffffffffffffffffffffffff16815260200191505060405180910390a160006011819055506000620001908284620002e560201b6200347c1790919060201c565b9050620001ad600282620002e560201b6200347c1790919060201c565b8486604051620001bd90620003ba565b808481526020018373ffffffffffffffffffffffffffffffffffffffff1673ffffffffffffffffffffffffffffffffffffffff1681526020018273ffffffffffffffffffffffffffffffffffffffff1673ffffffffffffffffffffffffffffffffffffffff1681526020019350505050604051809103906000f0801580156200024a573d6000803e3d6000fd5b50601a60006101000a81548173ffffffffffffffffffffffffffffffffffffffff021916908373ffffffffffffffffffffffffffffffffffffffff16021790555084601960006101000a81548173ffffffffffffffffffffffffffffffffffffffff021916908373ffffffffffffffffffffffffffffffffffffffff16021790555082600d8190555081600e819055505050505050620003f0565b600080831415620002fa57600090506200036a565b60008284029050828482816200030c57fe5b041462000365576040517f08c379a0000000000000000000000000000000000000000000000000000000008152600401808060200182810382526021815260200180620052dc6021913960400191505060405180910390fd5b809150505b92915050565b8260048101928215620003a7579160200282015b82811115620003a6578251829060ff1690559160200191906001019062000384565b5b509050620003b69190620003c8565b5090565b61096a806200497283390190565b620003ed91905b80821115620003e9576000816000905550600101620003cf565b5090565b90565b61457280620004006000396000f3fe608060405234801561001057600080fd5b50600436106101585760003560e01c806352f7ca26116100c3578063e844ea6a1161007c578063e844ea6a14610513578063e8a65d771461051d578063f6a718311461053b578063f97c689a14610585578063f9b790c1146105d3578063fd373a021461061757610158565b806352f7ca26146103715780638a539972146103b3578063a0d8e199146103e1578063b95e7ec81461042f578063c1eabe5d1461047d578063c6dbdf61146104c957610158565b80632348238c116101155780632348238c1461026757806327e13731146102ab5780633a709d22146102ed5780633ccfd60b1461030b57806340e6f8c2146103155780635114cb521461034357610158565b806308ad75831461015d5780630910a5101461017f5780630a441f7b146101c95780630ee85b83146101e757806312e152581461023f57806317a5042514610249575b600080fd5b610165610645565b604051808215151515815260200191505060405180910390f35b61018761065f565b604051808273ffffffffffffffffffffffffffffffffffffffff1673ffffffffffffffffffffffffffffffffffffffff16815260200191505060405180910390f35b6101d1610689565b6040518082815260200191505060405180910390f35b610229600480360360208110156101fd57600080fd5b81019080803573ffffffffffffffffffffffffffffffffffffffff1690602001909291905050506106f4565b6040518082815260200191505060405180910390f35b610247610788565b005b610251610987565b6040518082815260200191505060405180910390f35b6102a96004803603602081101561027d57600080fd5b81019080803573ffffffffffffffffffffffffffffffffffffffff1690602001909291905050506109cc565b005b6102d7600480360360208110156102c157600080fd5b8101908080359060200190929190505050610bc1565b6040518082815260200191505060405180910390f35b6102f5610c39565b6040518082815260200191505060405180910390f35b610313610c70565b005b6103416004803603602081101561032b57600080fd5b8101908080359060200190929190505050610e85565b005b61036f6004803603602081101561035957600080fd5b810190808035906020019092919050505061110a565b005b61039d6004803603602081101561038757600080fd5b81019080803590602001909291905050506118e2565b6040518082815260200191505060405180910390f35b6103df600480360360208110156103c957600080fd5b81019080803590602001909291905050506119d5565b005b61042d600480360360408110156103f757600080fd5b8101908080359060200190929190803573ffffffffffffffffffffffffffffffffffffffff169060200190929190505050611e68565b005b61047b6004803603604081101561044557600080fd5b81019080803573ffffffffffffffffffffffffffffffffffffffff169060200190929190803590602001909291905050506121a5565b005b6104b36004803603604081101561049357600080fd5b810190808035906020019092919080359060200190929190505050612688565b6040518082815260200191505060405180910390f35b6104d16126d0565b604051808273ffffffffffffffffffffffffffffffffffffffff1673ffffffffffffffffffffffffffffffffffffffff16815260200191505060405180910390f35b61051b6126fa565b005b610525612930565b6040518082815260200191505060405180910390f35b61054361294e565b604051808273ffffffffffffffffffffffffffffffffffffffff1673ffffffffffffffffffffffffffffffffffffffff16815260200191505060405180910390f35b6105d16004803603604081101561059b57600080fd5b81019080803573ffffffffffffffffffffffffffffffffffffffff16906020019092919080359060200190929190505050612978565b005b610615600480360360208110156105e957600080fd5b81019080803573ffffffffffffffffffffffffffffffffffffffff169060200190929190505050612e26565b005b6106436004803603602081101561062d57600080fd5b8101908080359060200190929190505050613204565b005b600080600f5414801561065a57506000601054145b905090565b6000601a60009054906101000a900473ffffffffffffffffffffffffffffffffffffffff16905090565b6000806005600060115481526020019081526020016000206000600281526020019081526020016000205490508042101580156106c7575060008114155b156106ea576106e2600160115461336b90919063ffffffff16565b9150506106f1565b6011549150505b90565b6000806106ff610c39565b9050600061074b6000808673ffffffffffffffffffffffffffffffffffffffff1673ffffffffffffffffffffffffffffffffffffffff1681526020019081526020016000205483612688565b90506000610757610987565b905061077e81610770848661336b90919063ffffffff16565b61336b90919063ffffffff16565b9350505050919050565b3373ffffffffffffffffffffffffffffffffffffffff16600c60019054906101000a900473ffffffffffffffffffffffffffffffffffffffff1673ffffffffffffffffffffffffffffffffffffffff161461082e576040517f08c379a00000000000000000000000000000000000000000000000000000000081526004018080602001828103825260268152602001806144516026913960400191505060405180910390fd5b60006005600060115481526020019081526020016000206000808152602001908152602001600020549050600061086e82426133f390919063ffffffff16565b90506203f48081118015610885575062278d008111155b6108da576040517f08c379a000000000000000000000000000000000000000000000000000000000815260040180806020018281038252602e8152602001806144f2602e913960400191505060405180910390fd5b6000600c60006101000a81548160ff021916908315150217905550600061090d600160115461336b90919063ffffffff16565b905060008090505b6004811015610955576000600560008481526020019081526020016000206000838152602001908152602001600020819055508080600101915050610915565b507f7acc84e34091ae817647a4c49116f5cc07f319078ba80f8f5fde37ea7e25cbd660405160405180910390a1505050565b60006109c76109b66013546109a8600160105461336b90919063ffffffff16565b61347c90919063ffffffff16565b600f546133f390919063ffffffff16565b905090565b601b60009054906101000a900473ffffffffffffffffffffffffffffffffffffffff1673ffffffffffffffffffffffffffffffffffffffff163373ffffffffffffffffffffffffffffffffffffffff1614610a72576040517f08c379a000000000000000000000000000000000000000000000000000000000815260040180806020018281038252602c815260200180614425602c913960400191505060405180910390fd5b600073ffffffffffffffffffffffffffffffffffffffff168173ffffffffffffffffffffffffffffffffffffffff161415610af8576040517f08c379a000000000000000000000000000000000000000000000000000000000815260040180806020018281038252602a8152602001806143d6602a913960400191505060405180910390fd5b80601b60006101000a81548173ffffffffffffffffffffffffffffffffffffffff021916908373ffffffffffffffffffffffffffffffffffffffff1602179055507f4101e71e974f68df5e9730cc223280b41654676bbb052cdcc735c3337e64d2d9601b60009054906101000a900473ffffffffffffffffffffffffffffffffffffffff16604051808273ffffffffffffffffffffffffffffffffffffffff1673ffffffffffffffffffffffffffffffffffffffff16815260200191505060405180910390a150565b600080600460008481526020019081526020016000205490506000600360008581526020019081526020016000205490506000811415610c0657600092505050610c34565b6000610c1b828461350290919063ffffffff16565b9050600e54811115610c2d57600e5490505b8093505050505b919050565b600080610c53600d54600e5461347c90919063ffffffff16565b9050610c6a6013548261350290919063ffffffff16565b91505090565b3373ffffffffffffffffffffffffffffffffffffffff16600c60019054906101000a900473ffffffffffffffffffffffffffffffffffffffff1673ffffffffffffffffffffffffffffffffffffffff1614610d16576040517f08c379a00000000000000000000000000000000000000000000000000000000081526004018080602001828103825260268152602001806144516026913960400191505060405180910390fd5b6000601254420390506000610d35601e8361359190919063ffffffff16565b905060006012541480610d4b57506207e9008111155b610da0576040517f08c379a00000000000000000000000000000000000000000000000000000000081526004018080602001828103825260248152602001806144776024913960400191505060405180910390fd5b6000601a60009054906101000a900473ffffffffffffffffffffffffffffffffffffffff1673ffffffffffffffffffffffffffffffffffffffff16633ccfd60b6040518163ffffffff1660e01b8152600401602060405180830381600087803b158015610e0c57600080fd5b505af1158015610e20573d6000803e3d6000fd5b505050506040513d6020811015610e3657600080fd5b810190808051906020019092919050505090507f73ce532f480864bd2fccd1bcdbb4c8151f02cd9450c4f3e5b834ef74503abdb2816040518082815260200191505060405180910390a1505050565b601b60009054906101000a900473ffffffffffffffffffffffffffffffffffffffff1673ffffffffffffffffffffffffffffffffffffffff163373ffffffffffffffffffffffffffffffffffffffff1614610f2b576040517f08c379a000000000000000000000000000000000000000000000000000000000815260040180806020018281038252602c815260200180614425602c913960400191505060405180910390fd5b60001515600c60009054906101000a900460ff16151514610f97576040517f08c379a00000000000000000000000000000000000000000000000000000000081526004018080602001828103825260278152602001806143af6027913960400191505060405180910390fd5b6000610faf600160115461336b90919063ffffffff16565b90506000600560008381526020019081526020016000206000808152602001908152602001600020541461102e576040517f08c379a000000000000000000000000000000000000000000000000000000000815260040180806020018281038252603b815260200180614328603b913960400191505060405180910390fd5b611036610645565b1561108c576040517f08c379a00000000000000000000000000000000000000000000000000000000081526004018080602001828103825260258152602001806144006025913960400191505060405180910390fd5b6110b660026110a8600e54600d5461347c90919063ffffffff16565b61347c90919063ffffffff16565b600f81905550816010819055507f57529235d42dc1daa6e5fa9e9182c6e3a6eed1db72665e80db2167b8e10504ea600f54601054604051808381526020018281526020019250505060405180910390a15050565b60008060003373ffffffffffffffffffffffffffffffffffffffff1673ffffffffffffffffffffffffffffffffffffffff1681526020019081526020016000205414156111a2576040517f08c379a000000000000000000000000000000000000000000000000000000000815260040180806020018281038252602c8152602001806142fc602c913960400191505060405180910390fd5b8060018060048111156111b157fe5b6111ba836118e2565b14611210576040517f08c379a000000000000000000000000000000000000000000000000000000000815260040180806020018281038252602481526020018061449b6024913960400191505060405180910390fd5b60006009600085815260200190815260200160002060003373ffffffffffffffffffffffffffffffffffffffff1673ffffffffffffffffffffffffffffffffffffffff16815260200190815260200160002054146112b9576040517f08c379a00000000000000000000000000000000000000000000000000000000081526004018080602001828103825260338152602001806144bf6033913960400191505060405180910390fd5b6000600160008060003373ffffffffffffffffffffffffffffffffffffffff1673ffffffffffffffffffffffffffffffffffffffff1681526020019081526020016000205481526020019081526020016000205490506000611319610c39565b905060006113278383612688565b90506000611333610987565b9050600061135c8261134e858761336b90919063ffffffff16565b61336b90919063ffffffff16565b905080601960009054906101000a900473ffffffffffffffffffffffffffffffffffffffff1673ffffffffffffffffffffffffffffffffffffffff1663dd62ed3e33306040518363ffffffff1660e01b8152600401808373ffffffffffffffffffffffffffffffffffffffff1673ffffffffffffffffffffffffffffffffffffffff1681526020018273ffffffffffffffffffffffffffffffffffffffff1673ffffffffffffffffffffffffffffffffffffffff1681526020019250505060206040518083038186803b15801561143257600080fd5b505afa158015611446573d6000803e3d6000fd5b505050506040513d602081101561145c57600080fd5b810190808051906020019092919050505010156114c4576040517f08c379a00000000000000000000000000000000000000000000000000000000081526004018080602001828103825260278152602001806145206027913960400191505060405180910390fd5b601960009054906101000a900473ffffffffffffffffffffffffffffffffffffffff1673ffffffffffffffffffffffffffffffffffffffff166323b872dd3330611517878961336b90919063ffffffff16565b6040518463ffffffff1660e01b8152600401808473ffffffffffffffffffffffffffffffffffffffff1673ffffffffffffffffffffffffffffffffffffffff1681526020018373ffffffffffffffffffffffffffffffffffffffff1673ffffffffffffffffffffffffffffffffffffffff1681526020018281526020019350505050602060405180830381600087803b1580156115b357600080fd5b505af11580156115c7573d6000803e3d6000fd5b505050506040513d60208110156115dd57600080fd5b810190808051906020019092919050505050601960009054906101000a900473ffffffffffffffffffffffffffffffffffffffff1673ffffffffffffffffffffffffffffffffffffffff166323b872dd336116366126d0565b856040518463ffffffff1660e01b8152600401808473ffffffffffffffffffffffffffffffffffffffff1673ffffffffffffffffffffffffffffffffffffffff1681526020018373ffffffffffffffffffffffffffffffffffffffff1673ffffffffffffffffffffffffffffffffffffffff1681526020018281526020019350505050602060405180830381600087803b1580156116d357600080fd5b505af11580156116e7573d6000803e3d6000fd5b505050506040513d60208110156116fd57600080fd5b8101908080519060200190929190505050506117366001600260008b81526020019081526020016000205461336b90919063ffffffff16565b600260008a8152602001908152602001600020819055506000600260008a815260200190815260200160002054905033600860008b8152602001908152602001600020600083815260200190815260200160002060006101000a81548173ffffffffffffffffffffffffffffffffffffffff021916908373ffffffffffffffffffffffffffffffffffffffff16021790555080600960008b815260200190815260200160002060003373ffffffffffffffffffffffffffffffffffffffff1673ffffffffffffffffffffffffffffffffffffffff168152602001908152602001600020819055507f737c69225d647e5994eab1a6c301bf6d9232beb2759ae1e27a8966b4732bc489338a604051808373ffffffffffffffffffffffffffffffffffffffff1673ffffffffffffffffffffffffffffffffffffffff1681526020018281526020019250505060405180910390a16118c061189e858761336b90919063ffffffff16565b600460008c81526020019081526020016000205461336b90919063ffffffff16565b600460008b815260200190815260200160002081905550505050505050505050565b600080600560008481526020019081526020016000206000808152602001908152602001600020549050600081148061191a57504281115b15611934576000600481111561192c57fe5b9150506119d0565b60008090505b61194f600160046133f390919063ffffffff16565b8110156119bf574260056000868152602001908152602001600020600061198060018561336b90919063ffffffff16565b81526020019081526020016000205411156119b2576119a960018261336b90919063ffffffff16565b925050506119d0565b808060010191505061193a565b506004808111156119cc57fe5b9150505b919050565b60008060003373ffffffffffffffffffffffffffffffffffffffff1673ffffffffffffffffffffffffffffffffffffffff168152602001908152602001600020541415611a6d576040517f08c379a000000000000000000000000000000000000000000000000000000000815260040180806020018281038252602c8152602001806142fc602c913960400191505060405180910390fd5b806003806004811115611a7c57fe5b611a85836118e2565b14611adb576040517f08c379a000000000000000000000000000000000000000000000000000000000815260040180806020018281038252602481526020018061449b6024913960400191505060405180910390fd5b60006009600085815260200190815260200160002060003373ffffffffffffffffffffffffffffffffffffffff1673ffffffffffffffffffffffffffffffffffffffff1681526020019081526020016000205490506000811415611b8a576040517f08c379a000000000000000000000000000000000000000000000000000000000815260040180806020018281038252602b815260200180614363602b913960400191505060405180910390fd5b6000600b600086815260200190815260200160002060003373ffffffffffffffffffffffffffffffffffffffff1673ffffffffffffffffffffffffffffffffffffffff16815260200190815260200160002054905060008114611bf257611bf1858261361b565b5b60008060003373ffffffffffffffffffffffffffffffffffffffff1673ffffffffffffffffffffffffffffffffffffffff168152602001908152602001600020549050611c6d60016006600089815260200190815260200160002060008481526020019081526020016000205461336b90919063ffffffff16565b6006600088815260200190815260200160002060008381526020019081526020016000208190555060026006600088815260200190815260200160002060008381526020019081526020016000205410611cff57600160076000888152602001908152602001600020600083815260200190815260200160002060006101000a81548160ff0219169083151502179055505b601960009054906101000a900473ffffffffffffffffffffffffffffffffffffffff1673ffffffffffffffffffffffffffffffffffffffff1663a9059cbb33611d46610c39565b6040518363ffffffff1660e01b8152600401808373ffffffffffffffffffffffffffffffffffffffff1673ffffffffffffffffffffffffffffffffffffffff16815260200182815260200192505050602060405180830381600087803b158015611daf57600080fd5b505af1158015611dc3573d6000803e3d6000fd5b505050506040513d6020811015611dd957600080fd5b810190808051906020019092919050505050611df5868461385d565b7fbe14feba3e0a5568c6aef4ffe53055e7eb3ded069515fa8124c21286e42b6b5f3387604051808373ffffffffffffffffffffffffffffffffffffffff1673ffffffffffffffffffffffffffffffffffffffff1681526020018281526020019250505060405180910390a1505050505050565b3373ffffffffffffffffffffffffffffffffffffffff16600c60019054906101000a900473ffffffffffffffffffffffffffffffffffffffff1673ffffffffffffffffffffffffffffffffffffffff1614611f0e576040517f08c379a00000000000000000000000000000000000000000000000000000000081526004018080602001828103825260268152602001806144516026913960400191505060405180910390fd5b816002806004811115611f1d57fe5b611f26836118e2565b14611f7c576040517f08c379a000000000000000000000000000000000000000000000000000000000815260040180806020018281038252602481526020018061449b6024913960400191505060405180910390fd5b6000600b600086815260200190815260200160002060008573ffffffffffffffffffffffffffffffffffffffff1673ffffffffffffffffffffffffffffffffffffffff1681526020019081526020016000205414612025576040517f08c379a00000000000000000000000000000000000000000000000000000000081526004018080602001828103825260278152602001806142d56027913960400191505060405180910390fd5b61204c6001600360008781526020019081526020016000205461336b90919063ffffffff16565b600360008681526020019081526020016000208190555060006003600086815260200190815260200160002054905083600a6000878152602001908152602001600020600083815260200190815260200160002060006101000a81548173ffffffffffffffffffffffffffffffffffffffff021916908373ffffffffffffffffffffffffffffffffffffffff16021790555080600b600087815260200190815260200160002060008673ffffffffffffffffffffffffffffffffffffffff1673ffffffffffffffffffffffffffffffffffffffff168152602001908152602001600020819055507fedb73a28656fc54b5b54d180d469da306262375b8fab1d30e7bfdfe6fa4d71a88486604051808373ffffffffffffffffffffffffffffffffffffffff1673ffffffffffffffffffffffffffffffffffffffff1681526020018281526020019250505060405180910390a15050505050565b3373ffffffffffffffffffffffffffffffffffffffff16600c60019054906101000a900473ffffffffffffffffffffffffffffffffffffffff1673ffffffffffffffffffffffffffffffffffffffff161461224b576040517f08c379a00000000000000000000000000000000000000000000000000000000081526004018080602001828103825260268152602001806144516026913960400191505060405180910390fd5b60001515600c60009054906101000a900460ff161515146122b7576040517f08c379a00000000000000000000000000000000000000000000000000000000081526004018080602001828103825260278152602001806143af6027913960400191505060405180910390fd5b60006122cf600160115461336b90919063ffffffff16565b90506000600560008381526020019081526020016000206000808152602001908152602001600020541461234e576040517f08c379a000000000000000000000000000000000000000000000000000000000815260040180806020018281038252603b815260200180614328603b913960400191505060405180910390fd5b60076001600084815260200190815260200160002054106123d7576040517f08c379a00000000000000000000000000000000000000000000000000000000081526004018080602001828103825260118152602001807f53756267726f75702069732066756c6c2100000000000000000000000000000081525060200191505060405180910390fd5b6123ed600160145461336b90919063ffffffff16565b8211612461576040517f08c379a000000000000000000000000000000000000000000000000000000000815260040180806020018281038252601a8152602001807f496e636f72726563742073756267726f75702073796e7461782100000000000081525060200191505060405180910390fd5b6124c560018060008060008873ffffffffffffffffffffffffffffffffffffffff1673ffffffffffffffffffffffffffffffffffffffff168152602001908152602001600020548152602001908152602001600020546133f390919063ffffffff16565b600160008060008773ffffffffffffffffffffffffffffffffffffffff1673ffffffffffffffffffffffffffffffffffffffff1681526020019081526020016000205481526020019081526020016000208190555061254060018060008581526020019081526020016000205461336b90919063ffffffff16565b600160008481526020019081526020016000208190555060008060008573ffffffffffffffffffffffffffffffffffffffff1673ffffffffffffffffffffffffffffffffffffffff168152602001908152602001600020549050826000808673ffffffffffffffffffffffffffffffffffffffff1673ffffffffffffffffffffffffffffffffffffffff168152602001908152602001600020819055507f3cf23ca995fdd06a40f9c394eedd3a27239c256b5383ab9bf8b7a6a4ae17f6ec8482604051808373ffffffffffffffffffffffffffffffffffffffff1673ffffffffffffffffffffffffffffffffffffffff1681526020018281526020019250505060405180910390a161265e600160145461336b90919063ffffffff16565b8314156126825761267b600160145461336b90919063ffffffff16565b6014819055505b50505050565b600080600160008581526020019081526020016000205490506126c76126b86001836133f390919063ffffffff16565b8461350290919063ffffffff16565b91505092915050565b6000601b60009054906101000a900473ffffffffffffffffffffffffffffffffffffffff16905090565b3373ffffffffffffffffffffffffffffffffffffffff16600c60019054906101000a900473ffffffffffffffffffffffffffffffffffffffff1673ffffffffffffffffffffffffffffffffffffffff16146127a0576040517f08c379a00000000000000000000000000000000000000000000000000000000081526004018080602001828103825260268152602001806144516026913960400191505060405180910390fd5b60001515600c60009054906101000a900460ff1615151461280c576040517f08c379a00000000000000000000000000000000000000000000000000000000081526004018080602001828103825260278152602001806143af6027913960400191505060405180910390fd5b6000612824600160115461336b90919063ffffffff16565b9050600060056000838152602001908152602001600020600080815260200190815260200160002054146128a3576040517f08c379a000000000000000000000000000000000000000000000000000000000815260040180806020018281038252603b815260200180614328603b913960400191505060405180910390fd5b6128b9600160115461336b90919063ffffffff16565b6011819055506128d56203f480426133f390919063ffffffff16565b6012819055506128e6601154613a9f565b6001600c60006101000a81548160ff0219169083151502179055507fd8cea0ecd56872ff072e771658b5682ffe4de16d752947f79597d600ea56f7a960405160405180910390a150565b6000612949600d54600e5461347c90919063ffffffff16565b905090565b6000600c60019054906101000a900473ffffffffffffffffffffffffffffffffffffffff16905090565b3373ffffffffffffffffffffffffffffffffffffffff16600c60019054906101000a900473ffffffffffffffffffffffffffffffffffffffff1673ffffffffffffffffffffffffffffffffffffffff1614612a1e576040517f08c379a00000000000000000000000000000000000000000000000000000000081526004018080602001828103825260268152602001806144516026913960400191505060405180910390fd5b60001515600c60009054906101000a900460ff16151514612a8a576040517f08c379a00000000000000000000000000000000000000000000000000000000081526004018080602001828103825260278152602001806143af6027913960400191505060405180910390fd5b6000612aa2600160115461336b90919063ffffffff16565b905060006005600083815260200190815260200160002060008081526020019081526020016000205414612b21576040517f08c379a000000000000000000000000000000000000000000000000000000000815260040180806020018281038252603b815260200180614328603b913960400191505060405180910390fd5b60008060008573ffffffffffffffffffffffffffffffffffffffff1673ffffffffffffffffffffffffffffffffffffffff1681526020019081526020016000205414612bd5576040517f08c379a000000000000000000000000000000000000000000000000000000000815260040180806020018281038252601c8152602001807f506f6c696379686f6c64657220616c726561647920657869737473210000000081525060200191505060405180910390fd5b6007600160008481526020019081526020016000205410612c5e576040517f08c379a00000000000000000000000000000000000000000000000000000000081526004018080602001828103825260118152602001807f53756267726f75702069732066756c6c2100000000000000000000000000000081525060200191505060405180910390fd5b612c74600160145461336b90919063ffffffff16565b8211612ce8576040517f08c379a000000000000000000000000000000000000000000000000000000000815260040180806020018281038252601a8152602001807f496e636f72726563742073756267726f75702073796e7461782100000000000081525060200191505060405180910390fd5b816000808573ffffffffffffffffffffffffffffffffffffffff1673ffffffffffffffffffffffffffffffffffffffff16815260200190815260200160002081905550612d5160018060008581526020019081526020016000205461336b90919063ffffffff16565b6001600084815260200190815260200160002081905550612d7e600160135461336b90919063ffffffff16565b6013819055507ffd4bbf7aab6797f9bba4fe69d15ee6bbbb91ae8aea5fd72543e6397ccf4857e183604051808273ffffffffffffffffffffffffffffffffffffffff1673ffffffffffffffffffffffffffffffffffffffff16815260200191505060405180910390a1612dfd600160145461336b90919063ffffffff16565b821415612e2157612e1a600160145461336b90919063ffffffff16565b6014819055505b505050565b3373ffffffffffffffffffffffffffffffffffffffff16600c60019054906101000a900473ffffffffffffffffffffffffffffffffffffffff1673ffffffffffffffffffffffffffffffffffffffff1614612ecc576040517f08c379a00000000000000000000000000000000000000000000000000000000081526004018080602001828103825260268152602001806144516026913960400191505060405180910390fd5b60001515600c60009054906101000a900460ff16151514612f38576040517f08c379a00000000000000000000000000000000000000000000000000000000081526004018080602001828103825260278152602001806143af6027913960400191505060405180910390fd5b6000612f50600160115461336b90919063ffffffff16565b905060006005600083815260200190815260200160002060008081526020019081526020016000205414612fcf576040517f08c379a000000000000000000000000000000000000000000000000000000000815260040180806020018281038252603b815260200180614328603b913960400191505060405180910390fd5b60008060008473ffffffffffffffffffffffffffffffffffffffff1673ffffffffffffffffffffffffffffffffffffffff168152602001908152602001600020541415613084576040517f08c379a000000000000000000000000000000000000000000000000000000000815260040180806020018281038252601c8152602001807f506f6c696379686f6c64657220646f6573206e6f74206578697374210000000081525060200191505060405180910390fd5b6130e860018060008060008773ffffffffffffffffffffffffffffffffffffffff1673ffffffffffffffffffffffffffffffffffffffff168152602001908152602001600020548152602001908152602001600020546133f390919063ffffffff16565b600160008060008673ffffffffffffffffffffffffffffffffffffffff1673ffffffffffffffffffffffffffffffffffffffff1681526020019081526020016000205481526020019081526020016000208190555060008060008473ffffffffffffffffffffffffffffffffffffffff1673ffffffffffffffffffffffffffffffffffffffff1681526020019081526020016000208190555061319760016013546133f390919063ffffffff16565b6013819055507f958bba7b27d02e0f577e23ded3d387f0925cc5feb0e6abb66472219429e90d8c82604051808273ffffffffffffffffffffffffffffffffffffffff1673ffffffffffffffffffffffffffffffffffffffff16815260200191505060405180910390a15050565b601b60009054906101000a900473ffffffffffffffffffffffffffffffffffffffff1673ffffffffffffffffffffffffffffffffffffffff163373ffffffffffffffffffffffffffffffffffffffff16146132aa576040517f08c379a000000000000000000000000000000000000000000000000000000000815260040180806020018281038252602c815260200180614425602c913960400191505060405180910390fd5b6132b381613c82565b6132bc81613e20565b6132c581614097565b60001515600c60009054906101000a900460ff1615151461330c576132f6600160115461336b90919063ffffffff16565b601181905550613307601154613a9f565b613315565b60006012819055505b7f95357e1b81128b2e56387f7f29ae51b03ce299a9784c0714c6401291f27e5174816040518082815260200191505060405180910390a161336260016010546133f390919063ffffffff16565b60108190555050565b6000808284019050838110156133e9576040517f08c379a000000000000000000000000000000000000000000000000000000000815260040180806020018281038252601b8152602001807f536166654d6174683a206164646974696f6e206f766572666c6f77000000000081525060200191505060405180910390fd5b8091505092915050565b60008282111561346b576040517f08c379a000000000000000000000000000000000000000000000000000000000815260040180806020018281038252601e8152602001807f536166654d6174683a207375627472616374696f6e206f766572666c6f77000081525060200191505060405180910390fd5b600082840390508091505092915050565b60008083141561348f57600090506134fc565b60008284029050828482816134a057fe5b04146134f7576040517f08c379a000000000000000000000000000000000000000000000000000000000815260040180806020018281038252602181526020018061438e6021913960400191505060405180910390fd5b809150505b92915050565b6000808211613579576040517f08c379a000000000000000000000000000000000000000000000000000000000815260040180806020018281038252601a8152602001807f536166654d6174683a206469766973696f6e206279207a65726f00000000000081525060200191505060405180910390fd5b600082848161358457fe5b0490508091505092915050565b600080821415613609576040517f08c379a00000000000000000000000000000000000000000000000000000000081526004018080602001828103825260188152602001807f536166654d6174683a206d6f64756c6f206279207a65726f000000000000000081525060200191505060405180910390fd5b81838161361257fe5b06905092915050565b6000600360008481526020019081526020016000205490506000600a6000858152602001908152602001600020600084815260200190815260200160002060009054906101000a900473ffffffffffffffffffffffffffffffffffffffff1690506000600a6000868152602001908152602001600020600084815260200190815260200160002060009054906101000a900473ffffffffffffffffffffffffffffffffffffffff16905080600a6000878152602001908152602001600020600086815260200190815260200160002060006101000a81548173ffffffffffffffffffffffffffffffffffffffff021916908373ffffffffffffffffffffffffffffffffffffffff16021790555083600b600087815260200190815260200160002060008373ffffffffffffffffffffffffffffffffffffffff1673ffffffffffffffffffffffffffffffffffffffff168152602001908152602001600020819055506137a4600160036000888152602001908152602001600020546133f390919063ffffffff16565b6003600087815260200190815260200160002081905550600a6000868152602001908152602001600020600084815260200190815260200160002060006101000a81549073ffffffffffffffffffffffffffffffffffffffff0219169055600b600086815260200190815260200160002060008373ffffffffffffffffffffffffffffffffffffffff1673ffffffffffffffffffffffffffffffffffffffff168152602001908152602001600020600090555050505050565b600060026000848152602001908152602001600020549050600060086000858152602001908152602001600020600084815260200190815260200160002060009054906101000a900473ffffffffffffffffffffffffffffffffffffffff169050600060086000868152602001908152602001600020600084815260200190815260200160002060009054906101000a900473ffffffffffffffffffffffffffffffffffffffff1690508060086000878152602001908152602001600020600086815260200190815260200160002060006101000a81548173ffffffffffffffffffffffffffffffffffffffff021916908373ffffffffffffffffffffffffffffffffffffffff160217905550836009600087815260200190815260200160002060008373ffffffffffffffffffffffffffffffffffffffff1673ffffffffffffffffffffffffffffffffffffffff168152602001908152602001600020819055506139e6600160026000888152602001908152602001600020546133f390919063ffffffff16565b600260008781526020019081526020016000208190555060086000868152602001908152602001600020600084815260200190815260200160002060006101000a81549073ffffffffffffffffffffffffffffffffffffffff02191690556009600086815260200190815260200160002060008373ffffffffffffffffffffffffffffffffffffffff1673ffffffffffffffffffffffffffffffffffffffff168152602001908152602001600020600090555050505050565b6000600560008381526020019081526020016000206000808152602001908152602001600020541415613b7d576000429050806005600084815260200190815260200160002060008081526020019081526020016000208190555060008090505b6004811015613b7a576000613b2f6201518060158460048110613b1f57fe5b015461347c90919063ffffffff16565b9050613b44818461336b90919063ffffffff16565b60056000868152602001908152602001600020600084815260200190815260200160002081905550508080600101915050613b00565b50505b6000613bb962278d006005600085815260200190815260200160002060008081526020019081526020016000205461336b90919063ffffffff16565b90506000613bd160018461336b90919063ffffffff16565b9050816005600083815260200190815260200160002060008081526020019081526020016000208190555060008090505b6004811015613c7c576000613c316201518060158460048110613c2157fe5b015461347c90919063ffffffff16565b9050613c46818561336b90919063ffffffff16565b60056000858152602001908152602001600020600084815260200190815260200160002081905550508080600101915050613c02565b50505050565b6000600360008381526020019081526020016000205490506000600190505b818111613e1b576000600a6000858152602001908152602001600020600083815260200190815260200160002060009054906101000a900473ffffffffffffffffffffffffffffffffffffffff16905060008060008373ffffffffffffffffffffffffffffffffffffffff1673ffffffffffffffffffffffffffffffffffffffff16815260200190815260200160002054905060076000868152602001908152602001600020600082815260200190815260200160002060009054906101000a900460ff1615613e0c57613d75858461361b565b613d896001846133f390919063ffffffff16565b50613d9e6001856133f390919063ffffffff16565b93507fcee2c9f04c414aaad4b76148ff459230a81b444459806296bf03bb91435ead488286604051808373ffffffffffffffffffffffffffffffffffffffff1673ffffffffffffffffffffffffffffffffffffffff1681526020018281526020019250505060405180910390a15b50508080600101915050613ca1565b505050565b6000600360008381526020019081526020016000205490506000613e4383610bc1565b90506000600190505b828111614091576000600a6000868152602001908152602001600020600083815260200190815260200160002060009054906101000a900473ffffffffffffffffffffffffffffffffffffffff169050601960009054906101000a900473ffffffffffffffffffffffffffffffffffffffff1673ffffffffffffffffffffffffffffffffffffffff1663a9059cbb82856040518363ffffffff1660e01b8152600401808373ffffffffffffffffffffffffffffffffffffffff1673ffffffffffffffffffffffffffffffffffffffff16815260200182815260200192505050602060405180830381600087803b158015613f4557600080fd5b505af1158015613f59573d6000803e3d6000fd5b505050506040513d6020811015613f6f57600080fd5b810190808051906020019092919050505050613fa78360046000888152602001908152602001600020546133f390919063ffffffff16565b6004600087815260200190815260200160002081905550614018856009600088815260200190815260200160002060008473ffffffffffffffffffffffffffffffffffffffff1673ffffffffffffffffffffffffffffffffffffffff1681526020019081526020016000205461385d565b7ff42cf8c29487b42c009006cba2a2a0ca0388229f3183e6e957e0a0b163585cb48186604051808373ffffffffffffffffffffffffffffffffffffffff1673ffffffffffffffffffffffffffffffffffffffff1681526020018281526020019250505060405180910390a1508080600101915050613e4c565b50505050565b60006004600083815260200190815260200160002054905060008111156142d05760006002600084815260200190815260200160002054905060006140e5828461350290919063ffffffff16565b90506000600190505b8281116142cc57600060086000878152602001908152602001600020600083815260200190815260200160002060009054906101000a900473ffffffffffffffffffffffffffffffffffffffff169050601960009054906101000a900473ffffffffffffffffffffffffffffffffffffffff1673ffffffffffffffffffffffffffffffffffffffff1663a9059cbb82856040518363ffffffff1660e01b8152600401808373ffffffffffffffffffffffffffffffffffffffff1673ffffffffffffffffffffffffffffffffffffffff16815260200182815260200192505050602060405180830381600087803b1580156141e757600080fd5b505af11580156141fb573d6000803e3d6000fd5b505050506040513d602081101561421157600080fd5b81019080805190602001909291905050505060086000878152602001908152602001600020600083815260200190815260200160002060006101000a81549073ffffffffffffffffffffffffffffffffffffffff02191690556009600087815260200190815260200160002060008273ffffffffffffffffffffffffffffffffffffffff1673ffffffffffffffffffffffffffffffffffffffff168152602001908152602001600020600090555080806001019150506140ee565b5050505b505056fe436c61696d616e7420616c72656164792068617320616e206578697374696e6720436c61696d2141646472657373206973206e6f74206120506f6c696379686f6c64657220696e20746869732047726f75702147726f7570206d7573742066696e697368207468652063757272656e7420706572696f64206265666f726520656e746572696e67204c6f626279214f6e6c79207072656d69756d2d7061696420706f6c696379686f6c64657273206d61792064656665637421536166654d6174683a206d756c7469706c69636174696f6e206f766572666c6f7747726f7570206973206c6f636b656420696e2074686520277374617274656427207374617465215365636f6e646172793a206e6577207072696d61727920697320746865207a65726f206164647265737343616e6e6f7420686176652074776f206c6f616e732073696d756c74616e656f75736c79215365636f6e646172793a2063616c6c6572206973206e6f7420746865207072696d617279206163636f756e7441646472657373206973206e6f7420746869732047726f7570277320536563726574617279214c6971756964697479205374616b652069732063757272656e746c79204c6f636b656421496e636f727265637420737562706572696f6420666f72207468697320616374696f6e21416464726573732068617320616c72656164792070616964207072656d69756d206173206120506f6c696379686f6c6465722143616e6e6f742073746f702067726f7570207768696c65207472616e736974696f6e696e6720706572696f647321496e73756666696369656e742044616920616c6c6f77616e636520666f72205061796d656e7421a165627a7a723058208194ca3af3728fe86dd6266d8f3d154fbc442faba49f56a428d9f27fa99a4c480029608060405234801561001057600080fd5b5060405160608061096a8339810180604052606081101561003057600080fd5b81019080805190602001909291908051906020019092919080519060200190929190505050336000806101000a81548173ffffffffffffffffffffffffffffffffffffffff021916908373ffffffffffffffffffffffffffffffffffffffff1602179055507f4101e71e974f68df5e9730cc223280b41654676bbb052cdcc735c3337e64d2d96000809054906101000a900473ffffffffffffffffffffffffffffffffffffffff16604051808273ffffffffffffffffffffffffffffffffffffffff1673ffffffffffffffffffffffffffffffffffffffff16815260200191505060405180910390a18260018190555081600260006101000a81548173ffffffffffffffffffffffffffffffffffffffff021916908373ffffffffffffffffffffffffffffffffffffffff16021790555080600360006101000a81548173ffffffffffffffffffffffffffffffffffffffff021916908373ffffffffffffffffffffffffffffffffffffffff1602179055505050506107b6806101b46000396000f3fe608060405234801561001057600080fd5b506004361061004c5760003560e01c80632348238c146100515780633ccfd60b14610095578063a68fee87146100b3578063c6dbdf61146100d5575b600080fd5b6100936004803603602081101561006757600080fd5b81019080803573ffffffffffffffffffffffffffffffffffffffff16906020019092919050505061011f565b005b61009d610311565b6040518082815260200191505060405180910390f35b6100bb6105f7565b604051808215151515815260200191505060405180910390f35b6100dd6106e2565b604051808273ffffffffffffffffffffffffffffffffffffffff1673ffffffffffffffffffffffffffffffffffffffff16815260200191505060405180910390f35b6000809054906101000a900473ffffffffffffffffffffffffffffffffffffffff1673ffffffffffffffffffffffffffffffffffffffff163373ffffffffffffffffffffffffffffffffffffffff16146101c4576040517f08c379a000000000000000000000000000000000000000000000000000000000815260040180806020018281038252602c81526020018061075f602c913960400191505060405180910390fd5b600073ffffffffffffffffffffffffffffffffffffffff168173ffffffffffffffffffffffffffffffffffffffff16141561024a576040517f08c379a000000000000000000000000000000000000000000000000000000000815260040180806020018281038252602a815260200180610735602a913960400191505060405180910390fd5b806000806101000a81548173ffffffffffffffffffffffffffffffffffffffff021916908373ffffffffffffffffffffffffffffffffffffffff1602179055507f4101e71e974f68df5e9730cc223280b41654676bbb052cdcc735c3337e64d2d96000809054906101000a900473ffffffffffffffffffffffffffffffffffffffff16604051808273ffffffffffffffffffffffffffffffffffffffff1673ffffffffffffffffffffffffffffffffffffffff16815260200191505060405180910390a150565b60008060009054906101000a900473ffffffffffffffffffffffffffffffffffffffff1673ffffffffffffffffffffffffffffffffffffffff163373ffffffffffffffffffffffffffffffffffffffff16146103b8576040517f08c379a000000000000000000000000000000000000000000000000000000000815260040180806020018281038252602c81526020018061075f602c913960400191505060405180910390fd5b600360009054906101000a900473ffffffffffffffffffffffffffffffffffffffff1673ffffffffffffffffffffffffffffffffffffffff166370a08231306040518263ffffffff1660e01b8152600401808273ffffffffffffffffffffffffffffffffffffffff1673ffffffffffffffffffffffffffffffffffffffff16815260200191505060206040518083038186803b15801561045757600080fd5b505afa15801561046b573d6000803e3d6000fd5b505050506040513d602081101561048157600080fd5b81019080805190602001909291905050509050600081116104ed576040517f08c379a000000000000000000000000000000000000000000000000000000000815260040180806020018281038252602981526020018061070c6029913960400191505060405180910390fd5b600360009054906101000a900473ffffffffffffffffffffffffffffffffffffffff1673ffffffffffffffffffffffffffffffffffffffff1663a9059cbb600260009054906101000a900473ffffffffffffffffffffffffffffffffffffffff16836040518363ffffffff1660e01b8152600401808373ffffffffffffffffffffffffffffffffffffffff1673ffffffffffffffffffffffffffffffffffffffff16815260200182815260200192505050602060405180830381600087803b1580156105b857600080fd5b505af11580156105cc573d6000803e3d6000fd5b505050506040513d60208110156105e257600080fd5b81019080805190602001909291905050505090565b600080600360009054906101000a900473ffffffffffffffffffffffffffffffffffffffff1673ffffffffffffffffffffffffffffffffffffffff166370a08231306040518263ffffffff1660e01b8152600401808273ffffffffffffffffffffffffffffffffffffffff1673ffffffffffffffffffffffffffffffffffffffff16815260200191505060206040518083038186803b15801561069957600080fd5b505afa1580156106ad573d6000803e3d6000fd5b505050506040513d60208110156106c357600080fd5b8101908080519060200190929190505050905060015481101591505090565b60008060009054906101000a900473ffffffffffffffffffffffffffffffffffffffff1690509056fe4e6f2044616920696e204c697175696469747920436f6e747261637420746f205769746864726177215365636f6e646172793a206e6577207072696d61727920697320746865207a65726f20616464726573735365636f6e646172793a2063616c6c6572206973206e6f7420746865207072696d617279206163636f756e74a165627a7a723058208137af3261f4da87fc4239b38ad79d1218ee3f2743938c99b0ef8857c8ac299c0029536166654d6174683a206d756c7469706c69636174696f6e206f766572666c6f7741646472657373206973206e6f7420612054616e64615061792041646d696e6973747261746f7221536166654d6174683a206d756c7469706c69636174696f6e206f766572666c6f774164647265737320697320616c726561647920616e2041646d696e6973747261746f7221a165627a7a72305820ca450166750a6a669e8ff0d1887f3621b7c5d2799939428652c6b751c214cdd80029",
  "source": "\r\npragma solidity >= 0.4.0 < 0.7.0;\r\n\r\nimport './IService.sol';\r\nimport './Group.sol';\r\n\r\n/**\r\n * @author blOX Consulting LLC\r\n * Date: 08.11.2019\r\n */\r\ncontract Service is IService {\r\n\r\n    ///MODIFIERS///\r\n     modifier onlyAdmin() {\r\n        require(administrators[msg.sender], \"Address is not a TandaPay Administrator!\");\r\n        _;\r\n    }\r\n\r\n    ///CONSTRUCTOR///\r\n    \r\n    /**\r\n     * Construct a new Insurace Service\r\n     * @param _dai address of the Dai ERC20 token\r\n     */\r\n    constructor(address _dai) public {\r\n        administrators[msg.sender] = true;\r\n        Dai = IERC20(_dai);\r\n        emit AdminApproved(msg.sender);\r\n    }\r\n\r\n    ///INTERFACE MUTABLE IMPLEMENTATION///\r\n\r\n    function addAdmin(address _to) public onlyAdmin {\r\n        require(!administrators[_to], \"Address is already an Administrator!\");\r\n        administrators[_to] = true;\r\n        emit AdminApproved(_to);\r\n    }\r\n\r\n    function removeAdmin(address _from) public onlyAdmin {\r\n        require(administrators[_from], \"Address is not an Administrator!\");\r\n        delete administrators[_from];\r\n        emit AdminRevoked(_from);\r\n    }\r\n\r\n    function createGroup(address _to, uint _volume, uint _payout) public onlyAdmin returns (address _group) {\r\n        require(groups[secretaries[_to]] == address(0), \"Address is already a Secretary!\");\r\n        Group group = new Group(address(Dai), _to, _volume, _payout);\r\n        groupCount = groupCount.add(1);\r\n        _group = address(group);\r\n        groups[groupCount] = _group;\r\n        secretaries[_to] = groupCount;\r\n        emit GroupCreated(_group);\r\n    }\r\n\r\n    function remitGroup(address _group) public onlyAdmin {\r\n        uint period = (Group(_group).activePeriod()).sub(1);\r\n        Group(_group).endPeriod(period);\r\n        emit Remitted(_group, period);\r\n    }\r\n\r\n    function loan(address _group, uint _months) public {\r\n        uint total = Group(_group).groupPremium();\r\n        require(Dai.balanceOf(address(this)) >= total.mul(2), \"Insufficient Dai to make Loans!\");\r\n        require(!Group(_group).loaned(), \"Cannot loan to a group twice!\");\r\n\r\n        address secretary = Group(_group).getSecretary();\r\n        Dai.transfer(secretary, total.mul(2));\r\n        Group(_group).makeLoan(_months);\r\n        emit Loaned(_group);\r\n    }\r\n\r\n}",
  "sourcePath": "C:/Users/Coda/Desktop/TandaPay/contracts/Service.sol",
  "compiler": {
    "name": "solc",
    "version": "0.5.8+commit.23d335f2.Emscripten.clang"
  },
  "schemaVersion": "3.0.11",
  "updatedAt": "2019-09-21T20:58:32.510Z",
  "devdoc": {
    "author": "blOX Consulting LLC\r Date: 08.11.2019\r",
    "methods": {
      "constructor": {
        "params": {
          "_dai": "address of the Dai ERC20 token\r"
        }
      }
    }
  },
  "userdoc": {
    "methods": {
      "addAdmin(address)": {
        "notice": "INTERFACE MUTABLE IMPLEMENTATION///"
      },
      "constructor": "Construct a new Insurace Service\r"
    }
  }
}